{
    "contractName": "NFTCreator",
    "abi": [
        {
            "inputs": [
                {
                    "internalType": "address",
                    "name": "_operatorAccountAddress",
                    "type": "address"
                },
                {
                    "internalType": "address",
                    "name": "_nimic",
                    "type": "address"
                }
            ],
            "stateMutability": "nonpayable",
            "type": "constructor"
        },
        {
            "anonymous": false,
            "inputs": [
                {
                    "indexed": false,
                    "internalType": "bool",
                    "name": "",
                    "type": "bool"
                },
                {
                    "indexed": false,
                    "internalType": "bytes",
                    "name": "",
                    "type": "bytes"
                }
            ],
            "name": "CallResponseEvent",
            "type": "event"
        },
        {
            "inputs": [
                {
                    "internalType": "string",
                    "name": "name",
                    "type": "string"
                },
                {
                    "internalType": "string",
                    "name": "symbol",
                    "type": "string"
                },
                {
                    "internalType": "string",
                    "name": "memo",
                    "type": "string"
                },
                {
                    "internalType": "int64",
                    "name": "maxSupply",
                    "type": "int64"
                },
                {
                    "internalType": "int64",
                    "name": "autoRenewPeriod",
                    "type": "int64"
                }
            ],
            "name": "createNft",
            "outputs": [
                {
                    "internalType": "address",
                    "name": "",
                    "type": "address"
                }
            ],
            "stateMutability": "payable",
            "type": "function"
        },
        {
            "inputs": [
                {
                    "internalType": "address",
                    "name": "token",
                    "type": "address"
                },
                {
                    "internalType": "bytes[]",
                    "name": "metadata",
                    "type": "bytes[]"
                }
            ],
            "name": "mintNft",
            "outputs": [
                {
                    "internalType": "int64",
                    "name": "",
                    "type": "int64"
                }
            ],
            "stateMutability": "nonpayable",
            "type": "function"
        },
        {
            "inputs": [
                {
                    "internalType": "address",
                    "name": "token",
                    "type": "address"
                },
                {
                    "internalType": "bytes",
                    "name": "encodedFunctionSelector",
                    "type": "bytes"
                }
            ],
            "name": "redirectForToken",
            "outputs": [],
            "stateMutability": "nonpayable",
            "type": "function"
        },
        {
            "inputs": [
                {
                    "internalType": "address",
                    "name": "token",
                    "type": "address"
                },
                {
                    "internalType": "address",
                    "name": "from",
                    "type": "address"
                },
                {
                    "internalType": "address",
                    "name": "to",
                    "type": "address"
                },
                {
                    "internalType": "uint256",
                    "name": "amount",
                    "type": "uint256"
                }
            ],
            "name": "transferFrom",
            "outputs": [
                {
                    "internalType": "int64",
                    "name": "responseCode",
                    "type": "int64"
                }
            ],
            "stateMutability": "nonpayable",
            "type": "function"
        },
        {
            "inputs": [
                {
                    "internalType": "address",
                    "name": "token",
                    "type": "address"
                },
                {
                    "internalType": "address",
                    "name": "from",
                    "type": "address"
                },
                {
                    "internalType": "address",
                    "name": "to",
                    "type": "address"
                },
                {
                    "internalType": "uint256",
                    "name": "serialNumber",
                    "type": "uint256"
                }
            ],
            "name": "transferFromNFT",
            "outputs": [
                {
                    "internalType": "int64",
                    "name": "responseCode",
                    "type": "int64"
                }
            ],
            "stateMutability": "nonpayable",
            "type": "function"
        },
        {
            "inputs": [
                {
                    "internalType": "address",
                    "name": "token",
                    "type": "address"
                },
                {
                    "internalType": "address",
                    "name": "receiver",
                    "type": "address"
                },
                {
                    "internalType": "int64",
                    "name": "serial",
                    "type": "int64"
                }
            ],
            "name": "transferNft",
            "outputs": [
                {
                    "internalType": "int256",
                    "name": "",
                    "type": "int256"
                }
            ],
            "stateMutability": "nonpayable",
            "type": "function"
        }
    ],
    "bytecode": "608060405234801561001057600080fd5b5060405161139138038061139183398101604081905261002f9161017b565b50600160208181527fa6eef7e35abe7026729641147f7915573c7e97b47efa546f5f6e3230263bcb499190915560027fcc69885fda6bcc1a4ace058b4a62bf5e179ea78fd58a1ccd71c22cc9b688792f81905560047fd9d16d34ffb15ba3a3d852f0d403e2ce1d691fb54de27ac87cd2f993f3ec330f5560087f7dfe757ecd65cbd7922a9c0161e935dd7fdbcc0e999689c7d31633896b1fc60b5560107fedc95719e9a3b28dd8e80877cb5880a9be7de1a13fc8b05e7999683b6b567643557fe2689cd4a84e23ad2f564004f1c9013e9589d260bde6380aba3ca7e09e4df40c91909155600660005260407f8f331abe73332f95a25873e8b430885974c0409691f89d643119a11623a7924a5580546001600160a01b0319166001600160a01b03929092169190911790556101ae565b80516001600160a01b038116811461017657600080fd5b919050565b6000806040838503121561018e57600080fd5b6101978361015f565b91506101a56020840161015f565b90509250929050565b6111d4806101bd6000396000f3fe6080604052600436106100555760003560e01c80630a284cb61461005a57806315dacbea14610092578063618dc65e146100b257806382b562aa146100d45780639b23d3d914610102578063b6c907a614610122575b600080fd5b34801561006657600080fd5b5061007a610075366004610ace565b61014d565b60405160079190910b81526020015b60405180910390f35b34801561009e57600080fd5b5061007a6100ad366004610b99565b6101eb565b3480156100be57600080fd5b506100d26100cd366004610bea565b6102df565b005b3480156100e057600080fd5b506100f46100ef366004610c49565b6103cd565b604051908152602001610089565b34801561010e57600080fd5b5061007a61011d366004610b99565b610444565b610135610130366004610c94565b610489565b6040516001600160a01b039091168152602001610089565b600080600061015e8560008661063a565b9250509150601660030b82146101c55760405162461bcd60e51b815260206004820152602160248201527f4661696c656420746f206d696e74206e6f6e2d66756e6769626c6520746f6b656044820152603760f91b60648201526084015b60405180910390fd5b806000815181106101d8576101d8610d44565b6020026020010151925050505b92915050565b6040516001600160a01b038581166024830152848116604483015283166064820152608481018290526000908190819061016790630aed65f560e11b9060a4015b60408051601f198184030181529181526020820180516001600160e01b03166001600160e01b031990941693909317909252905161026a9190610d7e565b6000604051808303816000865af19150503d80600081146102a7576040519150601f19603f3d011682016040523d82523d6000602084013e6102ac565b606091505b5091509150816102bd5760156102d1565b808060200190518101906102d19190610db1565b60030b979650505050505050565b6000806101676001600160a01b031663618dc65e60e01b8585604051602401610309929190610dff565b60408051601f198184030181529181526020820180516001600160e01b03166001600160e01b03199094169390931790925290516103479190610d7e565b6000604051808303816000865af19150503d8060008114610384576040519150601f19603f3d011682016040523d82523d6000602084013e610389565b606091505b50915091507f4af4780e06fe8cb9df64b0794fa6f01399af979175bb988e35e0e57e594567bc82826040516103bf929190610e23565b60405180910390a150505050565b6000806103dc85308686610738565b90506016811461043c5760405162461bcd60e51b815260206004820152602560248201527f4661696c656420746f207472616e73666572206e6f6e2d66756e6769626c65206044820152643a37b5b2b760d91b60648201526084016101bc565b949350505050565b6040516001600160a01b038581166024830152848116604483015283166064820152608481018290526000908190819061016790639b23d3d960e01b9060a40161022c565b604080516001808252818301909252600091829190816020015b6104ab610979565b8152602001906001900390816104a35790505090506104cd6004600130610780565b816000815181106104e0576104e0610d44565b602002602001018190525061055160408051610120810182526060808252602080830182905260008385018190528284018390526080840181905260a0840181905260c0840181905260e0840183905284519283018552808352908201819052928101929092529061010082015290565b8781526020810187905260608101869052306040820181905260016080830152600786900b60a083015260e08201839052600060c08301526105ba908560408051606081018252600081526001600160a01b0393909316602084015260079190910b9082015290565b6101008201526000806105cc836107b5565b90925090506016821461062d5760405162461bcd60e51b815260206004820152602360248201527f4661696c656420746f20637265617465206e6f6e2d66756e6769626c6520746f60448201526235b2b760e91b60648201526084016101bc565b9998505050505050505050565b60008060606000806101676001600160a01b031663e0f4059a60e01b89898960405160240161066b93929190610e3e565b60408051601f198184030181529181526020820180516001600160e01b03166001600160e01b03199094169390931790925290516106a99190610d7e565b6000604051808303816000865af19150503d80600081146106e6576040519150601f19603f3d011682016040523d82523d6000602084013e6106eb565b606091505b50915091508161070e576040805160008082526020820190925260159190610722565b808060200190518101906107229190610eba565b60039290920b9a90995090975095505050505050565b6040516001600160a01b038581166024830152848116604483015283166064820152600782900b60848201526000908190819061016790635cfc901160e01b9060a40161022c565b610788610979565b604051806040016040528061079c866108d7565b81526020016107ab8585610916565b9052949350505050565b600080828061010001516000015160070b60001480156107df57506101008101516040015160070b155b156107f5576101008101516276a7006040909101525b6000806101676001600160a01b03163463ea83f29360e01b8860405160240161081e919061103d565b60408051601f198184030181529181526020820180516001600160e01b03166001600160e01b031990941693909317909252905161085c9190610d7e565b60006040518083038185875af1925050503d8060008114610899576040519150601f19603f3d011682016040523d82523d6000602084013e61089e565b606091505b5091509150816108b157601560006108c5565b808060200190518101906108c59190611151565b60039190910b97909650945050505050565b6000600160008360068111156108ef576108ef611188565b600681111561090057610900611188565b8152602001908152602001600020549050919050565b61091e610998565b600183600481111561093257610932611188565b0361094b576001600160a01b03821660208201526101e5565b600483600481111561095f5761095f611188565b036101e5576001600160a01b038216608082015292915050565b604051806040016040528060008152602001610993610998565b905290565b6040518060a0016040528060001515815260200160006001600160a01b03168152602001606081526020016060815260200160006001600160a01b031681525090565b6001600160a01b03811681146109f057600080fd5b50565b634e487b7160e01b600052604160045260246000fd5b604051601f8201601f1916810167ffffffffffffffff81118282101715610a3257610a326109f3565b604052919050565b600067ffffffffffffffff821115610a5457610a546109f3565b5060051b60200190565b600082601f830112610a6f57600080fd5b813567ffffffffffffffff811115610a8957610a896109f3565b610a9c601f8201601f1916602001610a09565b818152846020838601011115610ab157600080fd5b816020850160208301376000918101602001919091529392505050565b60008060408385031215610ae157600080fd5b8235610aec816109db565b915060208381013567ffffffffffffffff80821115610b0a57600080fd5b818601915086601f830112610b1e57600080fd5b8135610b31610b2c82610a3a565b610a09565b81815260059190911b83018401908481019089831115610b5057600080fd5b8585015b83811015610b8857803585811115610b6c5760008081fd5b610b7a8c89838a0101610a5e565b845250918601918601610b54565b508096505050505050509250929050565b60008060008060808587031215610baf57600080fd5b8435610bba816109db565b93506020850135610bca816109db565b92506040850135610bda816109db565b9396929550929360600135925050565b60008060408385031215610bfd57600080fd5b8235610c08816109db565b9150602083013567ffffffffffffffff811115610c2457600080fd5b610c3085828601610a5e565b9150509250929050565b8060070b81146109f057600080fd5b600080600060608486031215610c5e57600080fd5b8335610c69816109db565b92506020840135610c79816109db565b91506040840135610c8981610c3a565b809150509250925092565b600080600080600060a08688031215610cac57600080fd5b853567ffffffffffffffff80821115610cc457600080fd5b610cd089838a01610a5e565b96506020880135915080821115610ce657600080fd5b610cf289838a01610a5e565b95506040880135915080821115610d0857600080fd5b50610d1588828901610a5e565b9350506060860135610d2681610c3a565b91506080860135610d3681610c3a565b809150509295509295909350565b634e487b7160e01b600052603260045260246000fd5b60005b83811015610d75578181015183820152602001610d5d565b50506000910152565b60008251610d90818460208701610d5a565b9190910192915050565b8051600381900b8114610dac57600080fd5b919050565b600060208284031215610dc357600080fd5b610dcc82610d9a565b9392505050565b60008151808452610deb816020860160208601610d5a565b601f01601f19169290920160200192915050565b6001600160a01b038316815260406020820181905260009061043c90830184610dd3565b821515815260406020820152600061043c6040830184610dd3565b60006060820160018060a01b038616835260208560070b818501526060604085015281855180845260808601915060808160051b870101935082870160005b82811015610eab57607f19888703018452610e99868351610dd3565b95509284019290840190600101610e7d565b50939998505050505050505050565b600080600060608486031215610ecf57600080fd5b610ed884610d9a565b9250602080850151610ee981610c3a565b604086015190935067ffffffffffffffff811115610f0657600080fd5b8501601f81018713610f1757600080fd5b8051610f25610b2c82610a3a565b81815260059190911b82018301908381019089831115610f4457600080fd5b928401925b82841015610f6b578351610f5c81610c3a565b82529284019290840190610f49565b80955050505050509250925092565b600081518084526020808501808196508360051b8101915082860160005b8581101561103057828403895281516040815186528682015191508087870152815115158187015286820151606060018060a01b03808316828a015283850151935060a09250608083818b0152610ff260e08b0186610dd3565b928601518a8403603f1901858c015292945061100e8584610dd3565b9501511660c09890980197909752505098850198935090840190600101610f98565b5091979650505050505050565b6020815260008251610160602084015261105b610180840182610dd3565b90506020840151601f19808584030160408601526110798383610dd3565b92506040860151915061109760608601836001600160a01b03169052565b60608601519150808584030160808601526110b28383610dd3565b9250608086015191506110c960a086018315159052565b60a086015191506110df60c086018360070b9052565b60c086015180151560e0870152915060e0860151915061010081868503018187015261110b8484610f7a565b908701518051600790810b61012089015260208201516001600160a01b03166101408901526040820151900b61016088015290935091506111499050565b509392505050565b6000806040838503121561116457600080fd5b61116d83610d9a565b9150602083015161117d816109db565b809150509250929050565b634e487b7160e01b600052602160045260246000fdfea2646970667358221220d1590ae82368f81582e99adb5faf508b307730b9ec92b750aa5fd05b02812e8764736f6c63430008130033",
    "sourcePath": "/home/drleo/Projects/hackathons/hedera/smart-contracts/contracts/NFTCreator.sol",
    "compiler": {
        "name": "solc",
        "version": "0.8.19+commit.7dd6d404"
    },
    "functionHashes": {
        "createNft(string,string,string,int64,int64)": "b6c907a6",
        "mintNft(address,bytes[])": "0a284cb6",
        "redirectForToken(address,bytes)": "618dc65e",
        "transferFrom(address,address,address,uint256)": "15dacbea",
        "transferFromNFT(address,address,address,uint256)": "9b23d3d9",
        "transferNft(address,address,int64)": "82b562aa"
    },
    "gasEstimates": {
        "creation": {
            "codeDepositCost": "912800",
            "executionCost": "infinite",
            "totalCost": "infinite"
        },
        "external": {
            "createNft(string,string,string,int64,int64)": "infinite",
            "mintNft(address,bytes[])": "infinite",
            "redirectForToken(address,bytes)": "infinite",
            "transferFrom(address,address,address,uint256)": "infinite",
            "transferFromNFT(address,address,address,uint256)": "infinite",
            "transferNft(address,address,int64)": "infinite"
        }
    }
}