{
    "contractName": "Surveys",
    "abi": [
        {
            "inputs": [
                {
                    "internalType": "address",
                    "name": "_operatorAccountAddress",
                    "type": "address"
                },
                {
                    "internalType": "address",
                    "name": "_nftContractAddress",
                    "type": "address"
                }
            ],
            "stateMutability": "nonpayable",
            "type": "constructor"
        },
        {
            "anonymous": false,
            "inputs": [
                {
                    "indexed": false,
                    "internalType": "bool",
                    "name": "send",
                    "type": "bool"
                },
                {
                    "indexed": false,
                    "internalType": "bytes",
                    "name": "data",
                    "type": "bytes"
                }
            ],
            "name": "Response",
            "type": "event"
        },
        {
            "inputs": [
                {
                    "internalType": "bytes32",
                    "name": "_a",
                    "type": "bytes32"
                },
                {
                    "internalType": "bytes32",
                    "name": "_b",
                    "type": "bytes32"
                }
            ],
            "name": "createHash",
            "outputs": [
                {
                    "internalType": "bytes32",
                    "name": "",
                    "type": "bytes32"
                }
            ],
            "stateMutability": "pure",
            "type": "function"
        },
        {
            "inputs": [
                {
                    "internalType": "uint256",
                    "name": "i",
                    "type": "uint256"
                }
            ],
            "name": "getAnswer",
            "outputs": [
                {
                    "components": [
                        {
                            "internalType": "bytes32",
                            "name": "surveyHash",
                            "type": "bytes32"
                        },
                        {
                            "internalType": "bytes32",
                            "name": "answerHash",
                            "type": "bytes32"
                        },
                        {
                            "internalType": "address",
                            "name": "userAddress",
                            "type": "address"
                        }
                    ],
                    "internalType": "struct Surveys.Answer",
                    "name": "",
                    "type": "tuple"
                }
            ],
            "stateMutability": "view",
            "type": "function"
        },
        {
            "inputs": [],
            "name": "getAnswers",
            "outputs": [
                {
                    "components": [
                        {
                            "internalType": "bytes32",
                            "name": "surveyHash",
                            "type": "bytes32"
                        },
                        {
                            "internalType": "bytes32",
                            "name": "answerHash",
                            "type": "bytes32"
                        },
                        {
                            "internalType": "address",
                            "name": "userAddress",
                            "type": "address"
                        }
                    ],
                    "internalType": "struct Surveys.Answer[]",
                    "name": "",
                    "type": "tuple[]"
                }
            ],
            "stateMutability": "view",
            "type": "function"
        },
        {
            "inputs": [],
            "name": "getAuthorSurveys",
            "outputs": [
                {
                    "components": [
                        {
                            "internalType": "bytes32",
                            "name": "surveyHash",
                            "type": "bytes32"
                        },
                        {
                            "internalType": "address",
                            "name": "author",
                            "type": "address"
                        }
                    ],
                    "internalType": "struct Surveys.Survey[]",
                    "name": "",
                    "type": "tuple[]"
                }
            ],
            "stateMutability": "view",
            "type": "function"
        },
        {
            "inputs": [
                {
                    "internalType": "uint256",
                    "name": "_i",
                    "type": "uint256"
                }
            ],
            "name": "getSurvey",
            "outputs": [
                {
                    "components": [
                        {
                            "internalType": "bytes32",
                            "name": "surveyHash",
                            "type": "bytes32"
                        },
                        {
                            "internalType": "address",
                            "name": "author",
                            "type": "address"
                        }
                    ],
                    "internalType": "struct Surveys.Survey",
                    "name": "",
                    "type": "tuple"
                }
            ],
            "stateMutability": "view",
            "type": "function"
        },
        {
            "inputs": [],
            "name": "getSurveys",
            "outputs": [
                {
                    "components": [
                        {
                            "internalType": "bytes32",
                            "name": "surveyHash",
                            "type": "bytes32"
                        },
                        {
                            "internalType": "address",
                            "name": "author",
                            "type": "address"
                        }
                    ],
                    "internalType": "struct Surveys.Survey[]",
                    "name": "",
                    "type": "tuple[]"
                }
            ],
            "stateMutability": "view",
            "type": "function"
        },
        {
            "inputs": [],
            "name": "getUserAnswers",
            "outputs": [
                {
                    "components": [
                        {
                            "internalType": "bytes32",
                            "name": "surveyHash",
                            "type": "bytes32"
                        },
                        {
                            "internalType": "bytes32",
                            "name": "answerHash",
                            "type": "bytes32"
                        },
                        {
                            "internalType": "address",
                            "name": "userAddress",
                            "type": "address"
                        }
                    ],
                    "internalType": "struct Surveys.Answer[]",
                    "name": "",
                    "type": "tuple[]"
                }
            ],
            "stateMutability": "view",
            "type": "function"
        },
        {
            "inputs": [
                {
                    "internalType": "bytes32",
                    "name": "_surveyHash",
                    "type": "bytes32"
                },
                {
                    "internalType": "bytes32",
                    "name": "_answerHash",
                    "type": "bytes32"
                }
            ],
            "name": "setAnswer",
            "outputs": [
                {
                    "internalType": "bool",
                    "name": "",
                    "type": "bool"
                }
            ],
            "stateMutability": "payable",
            "type": "function"
        },
        {
            "inputs": [
                {
                    "internalType": "bytes32",
                    "name": "_surveyHash",
                    "type": "bytes32"
                }
            ],
            "name": "setSurvey",
            "outputs": [
                {
                    "internalType": "bool",
                    "name": "",
                    "type": "bool"
                }
            ],
            "stateMutability": "payable",
            "type": "function"
        }
    ],
    "bytecode": "608060405234801561001057600080fd5b5060405161264238038061264283398101604081905261002f9161007c565b600080546001600160a01b039384166001600160a01b031991821617909155600180549290931691161790556100af565b80516001600160a01b038116811461007757600080fd5b919050565b6000806040838503121561008f57600080fd5b61009883610060565b91506100a660208401610060565b90509250929050565b612584806100be6000396000f3fe608060405260043610620000915760003560e01c8063b5ab58dc1162000060578063b5ab58dc1462000150578063c2e298c11462000184578063c793fcf9146200019c578063ce5cb1c614620001b4578063f8661e0f14620001dc57600080fd5b80632b82b9a914620000965780637dec829614620000ce57806389670e1514620000f55780639524d3161462000129575b600080fd5b348015620000a357600080fd5b50620000bb620000b536600462000e7d565b620001f3565b6040519081526020015b60405180910390f35b348015620000db57600080fd5b50620000e662000222565b604051620000c5919062000ea0565b3480156200010257600080fd5b506200011a6200011436600462000f03565b62000299565b604051620000c5919062000f1d565b3480156200013657600080fd5b5062000141620002fc565b604051620000c5919062000f3e565b3480156200015d57600080fd5b50620001756200016f36600462000f03565b6200046b565b604051620000c5919062000fac565b3480156200019157600080fd5b50620000e6620004e7565b348015620001a957600080fd5b5062000141620006b5565b620001cb620001c536600462000f03565b620007ce565b6040519015158152602001620000c5565b620001cb620001ed36600462000e7d565b62000955565b604080516020808201859052818301849052825180830384018152606090920190925280519101205b92915050565b60606002805480602002602001604051908101604052809291908181526020016000905b82821015620002905760008481526020908190206040805180820190915260028502909101805482526001908101546001600160a01b031682840152908352909201910162000246565b50505050905090565b604080518082019091526000808252602082015260028281548110620002c357620002c362000fd7565b60009182526020918290206040805180820190915260029092020180548252600101546001600160a01b03169181019190915292915050565b60035460609060009067ffffffffffffffff81111562000320576200032062000fed565b6040519080825280602002602001820160405280156200036d57816020015b60408051606081018252600080825260208083018290529282015282526000199092019101816200033f5790505b5090506000805b6003548110156200046357336001600160a01b0316600382815481106200039f576200039f62000fd7565b60009182526020909120600260039092020101546001600160a01b0316036200044e5760038181548110620003d857620003d862000fd7565b6000918252602091829020604080516060810182526003909302909101805483526001810154938301939093526002909201546001600160a01b031691810191909152835184908490811062000432576200043262000fd7565b602002602001018190525081806200044a9062001003565b9250505b806200045a8162001003565b91505062000374565b509092915050565b6040805160608101825260008082526020820181905291810191909152600382815481106200049e576200049e62000fd7565b6000918252602091829020604080516060810182526003909302909101805483526001810154938301939093526002909201546001600160a01b03169181019190915292915050565b606060008060005b6002548110156200056257336001600160a01b0316600282815481106200051a576200051a62000fd7565b60009182526020909120600160029092020101546001600160a01b0316036200054d5781620005498162001003565b9250505b80620005598162001003565b915050620004ef565b5060008167ffffffffffffffff81111562000581576200058162000fed565b604051908082528060200260200182016040528015620005c857816020015b6040805180820190915260008082526020820152815260200190600190039081620005a05790505b50905060005b600254811015620006ad57336001600160a01b031660028281548110620005f957620005f962000fd7565b60009182526020909120600160029092020101546001600160a01b03160362000698576002818154811062000632576200063262000fd7565b60009182526020918290206040805180820190915260029092020180548252600101546001600160a01b03169181019190915282518390869081106200067c576200067c62000fd7565b60200260200101819052508380620006949062001003565b9450505b80620006a48162001003565b915050620005ce565b509392505050565b60035460609060009067ffffffffffffffff811115620006d957620006d962000fed565b6040519080825280602002602001820160405280156200072657816020015b6040805160608101825260008082526020808301829052928201528252600019909201910181620006f85790505b50905060005b600354811015620007c857600381815481106200074d576200074d62000fd7565b6000918252602091829020604080516060810182526003909302909101805483526001810154938301939093526002909201546001600160a01b0316918101919091528251839083908110620007a757620007a762000fd7565b60200260200101819052508080620007bf9062001003565b9150506200072c565b50919050565b60008054604051829182916001600160a01b039091169034908381818185875af1925050503d806000811462000821576040519150601f19603f3d011682016040523d82523d6000602084013e62000826565b606091505b5091509150816200087e5760405162461bcd60e51b815260206004820152601960248201527f4661696c656420746f207061792074686520737572766579210000000000000060448201526064015b60405180910390fd5b7f13848c3e38f8886f3f5d2ad9dff80d8092c2bbb8efd5b887a99c2c6cfc09ac2a8282604051620008b192919062001073565b60405180910390a150506040805180820190915291825250336020820190815260028054600181810183556000839052935191027f405787fa12a823e0f2b7631cc41b3ba8828b3321ca811111fa75cd3aa3bb5ace81019190915590517f405787fa12a823e0f2b7631cc41b3ba8828b3321ca811111fa75cd3aa3bb5acf90910180546001600160a01b03929092166001600160a01b031990921691909117905590565b60008054604051829182916001600160a01b039091169034908381818185875af1925050503d8060008114620009a8576040519150601f19603f3d011682016040523d82523d6000602084013e620009ad565b606091505b50915091508162000a015760405162461bcd60e51b815260206004820152601a60248201527f4661696c656420746f207061792074686520616e737765727321000000000000604482015260640162000875565b60408051606081018252868152602081018681523382840190815260038054600181018255600082905293517fc2575a0e9e593c00f959f8c92f12db2869c3395a3b0502d05e2516446f71f85b949091029384015590517fc2575a0e9e593c00f959f8c92f12db2869c3395a3b0502d05e2516446f71f85c830155517fc2575a0e9e593c00f959f8c92f12db2869c3395a3b0502d05e2516446f71f85d90910180546001600160a01b0319166001600160a01b03909216919091179055517f13848c3e38f8886f3f5d2ad9dff80d8092c2bbb8efd5b887a99c2c6cfc09ac2a9062000af0908490849062001073565b60405180910390a1600080546040516001600160a01b039091169062000b169062000e6f565b6001600160a01b039091168152602001604051809103906000f08015801562000b43573d6000803e3d6000fd5b5090506000816001600160a01b031663b6c907a66040518060400160405280600a815260200169486173684368616e676560b01b815250604051806040016040528060048152602001634558523160e01b8152506040518060400160405280600b81526020016a73696d706c65206d656d6f60a81b8152506002626acfc06040518663ffffffff1660e01b815260040162000be395949392919062001098565b6020604051808303816000875af115801562000c03573d6000803e3d6000fd5b505050506040513d601f19601f8201168201806040525081019062000c299190620010f6565b6040805160028082526060820190925291925060009190816020015b606081526020019060019003908162000c4557505060408051602081018b9052919250016040516020818303038152906040528160008151811062000c8e5762000c8e62000fd7565b60200260200101819052508660405160200162000cad91815260200190565b6040516020818303038152906040528160018151811062000cd25762000cd262000fd7565b60200260200101819052506000836001600160a01b0316630a284cb684846040518363ffffffff1660e01b815260040162000d0f92919062001128565b6020604051808303816000875af115801562000d2f573d6000803e3d6000fd5b505050506040513d601f19601f8201168201806040525081019062000d5591906200119e565b60405163415ab15560e11b81526001600160a01b0385811660048301523360248301819052600784900b60448401529293508616906382b562aa906064016020604051808303816000875af115801562000db3573d6000803e3d6000fd5b505050506040513d601f19601f8201168201806040525081019062000dd99190620011c3565b50503360008181526004602081815260408084208054600180820183559186528386200180546001600160a01b0319166001600160a01b039a909a169990991790985593835260058152928220805480880182559083529290912090820401805460039092166008026101000a67ffffffffffffffff818102199093169390921691909102919091179055509695505050505050565b61137180620011de83390190565b6000806040838503121562000e9157600080fd5b50508035926020909101359150565b602080825282518282018190526000919060409081850190868401855b8281101562000ef65762000ee5848351805182526020908101516001600160a01b0316910152565b928401929085019060010162000ebd565b5091979650505050505050565b60006020828403121562000f1657600080fd5b5035919050565b815181526020808301516001600160a01b031690820152604081016200021c565b6020808252825182820181905260009190848201906040850190845b8181101562000fa05762000f8c83855180518252602080820151908301526040908101516001600160a01b0316910152565b928401926060929092019160010162000f5a565b50909695505050505050565b81518152602080830151908201526040808301516001600160a01b031690820152606081016200021c565b634e487b7160e01b600052603260045260246000fd5b634e487b7160e01b600052604160045260246000fd5b6000600182016200102457634e487b7160e01b600052601160045260246000fd5b5060010190565b6000815180845260005b81811015620010535760208185018101518683018201520162001035565b506000602082860101526020601f19601f83011685010191505092915050565b82151581526040602082015260006200109060408301846200102b565b949350505050565b60a081526000620010ad60a08301886200102b565b8281036020840152620010c181886200102b565b90508281036040840152620010d781876200102b565b9150508360070b60608301528260070b60808301529695505050505050565b6000602082840312156200110957600080fd5b81516001600160a01b03811681146200112157600080fd5b9392505050565b60006040820160018060a01b0385168352602060408185015281855180845260608601915060608160051b870101935082870160005b828110156200119057605f198887030184526200117d8683516200102b565b955092840192908401906001016200115e565b509398975050505050505050565b600060208284031215620011b157600080fd5b81518060070b81146200112157600080fd5b600060208284031215620011d657600080fd5b505191905056fe608060405234801561001057600080fd5b5060405161137138038061137183398101604081905261002f9161015e565b600160208181527fa6eef7e35abe7026729641147f7915573c7e97b47efa546f5f6e3230263bcb499190915560027fcc69885fda6bcc1a4ace058b4a62bf5e179ea78fd58a1ccd71c22cc9b688792f81905560047fd9d16d34ffb15ba3a3d852f0d403e2ce1d691fb54de27ac87cd2f993f3ec330f5560087f7dfe757ecd65cbd7922a9c0161e935dd7fdbcc0e999689c7d31633896b1fc60b5560107fedc95719e9a3b28dd8e80877cb5880a9be7de1a13fc8b05e7999683b6b567643557fe2689cd4a84e23ad2f564004f1c9013e9589d260bde6380aba3ca7e09e4df40c91909155600660005260407f8f331abe73332f95a25873e8b430885974c0409691f89d643119a11623a7924a5580546001600160a01b0319166001600160a01b039290921691909117905561018e565b60006020828403121561017057600080fd5b81516001600160a01b038116811461018757600080fd5b9392505050565b6111d48061019d6000396000f3fe6080604052600436106100555760003560e01c80630a284cb61461005a57806315dacbea14610092578063618dc65e146100b257806382b562aa146100d45780639b23d3d914610102578063b6c907a614610122575b600080fd5b34801561006657600080fd5b5061007a610075366004610ace565b61014d565b60405160079190910b81526020015b60405180910390f35b34801561009e57600080fd5b5061007a6100ad366004610b99565b6101eb565b3480156100be57600080fd5b506100d26100cd366004610bea565b6102df565b005b3480156100e057600080fd5b506100f46100ef366004610c49565b6103cd565b604051908152602001610089565b34801561010e57600080fd5b5061007a61011d366004610b99565b610444565b610135610130366004610c94565b610489565b6040516001600160a01b039091168152602001610089565b600080600061015e8560008661063a565b9250509150601660030b82146101c55760405162461bcd60e51b815260206004820152602160248201527f4661696c656420746f206d696e74206e6f6e2d66756e6769626c6520746f6b656044820152603760f91b60648201526084015b60405180910390fd5b806000815181106101d8576101d8610d44565b6020026020010151925050505b92915050565b6040516001600160a01b038581166024830152848116604483015283166064820152608481018290526000908190819061016790630aed65f560e11b9060a4015b60408051601f198184030181529181526020820180516001600160e01b03166001600160e01b031990941693909317909252905161026a9190610d7e565b6000604051808303816000865af19150503d80600081146102a7576040519150601f19603f3d011682016040523d82523d6000602084013e6102ac565b606091505b5091509150816102bd5760156102d1565b808060200190518101906102d19190610db1565b60030b979650505050505050565b6000806101676001600160a01b031663618dc65e60e01b8585604051602401610309929190610dff565b60408051601f198184030181529181526020820180516001600160e01b03166001600160e01b03199094169390931790925290516103479190610d7e565b6000604051808303816000865af19150503d8060008114610384576040519150601f19603f3d011682016040523d82523d6000602084013e610389565b606091505b50915091507f4af4780e06fe8cb9df64b0794fa6f01399af979175bb988e35e0e57e594567bc82826040516103bf929190610e23565b60405180910390a150505050565b6000806103dc85308686610738565b90506016811461043c5760405162461bcd60e51b815260206004820152602560248201527f4661696c656420746f207472616e73666572206e6f6e2d66756e6769626c65206044820152643a37b5b2b760d91b60648201526084016101bc565b949350505050565b6040516001600160a01b038581166024830152848116604483015283166064820152608481018290526000908190819061016790639b23d3d960e01b9060a40161022c565b604080516001808252818301909252600091829190816020015b6104ab610979565b8152602001906001900390816104a35790505090506104cd6004600130610780565b816000815181106104e0576104e0610d44565b602002602001018190525061055160408051610120810182526060808252602080830182905260008385018190528284018390526080840181905260a0840181905260c0840181905260e0840183905284519283018552808352908201819052928101929092529061010082015290565b8781526020810187905260608101869052306040820181905260016080830152600786900b60a083015260e08201839052600060c08301526105ba908560408051606081018252600081526001600160a01b0393909316602084015260079190910b9082015290565b6101008201526000806105cc836107b5565b90925090506016821461062d5760405162461bcd60e51b815260206004820152602360248201527f4661696c656420746f20637265617465206e6f6e2d66756e6769626c6520746f60448201526235b2b760e91b60648201526084016101bc565b9998505050505050505050565b60008060606000806101676001600160a01b031663e0f4059a60e01b89898960405160240161066b93929190610e3e565b60408051601f198184030181529181526020820180516001600160e01b03166001600160e01b03199094169390931790925290516106a99190610d7e565b6000604051808303816000865af19150503d80600081146106e6576040519150601f19603f3d011682016040523d82523d6000602084013e6106eb565b606091505b50915091508161070e576040805160008082526020820190925260159190610722565b808060200190518101906107229190610eba565b60039290920b9a90995090975095505050505050565b6040516001600160a01b038581166024830152848116604483015283166064820152600782900b60848201526000908190819061016790635cfc901160e01b9060a40161022c565b610788610979565b604051806040016040528061079c866108d7565b81526020016107ab8585610916565b9052949350505050565b600080828061010001516000015160070b60001480156107df57506101008101516040015160070b155b156107f5576101008101516276a7006040909101525b6000806101676001600160a01b03163463ea83f29360e01b8860405160240161081e919061103d565b60408051601f198184030181529181526020820180516001600160e01b03166001600160e01b031990941693909317909252905161085c9190610d7e565b60006040518083038185875af1925050503d8060008114610899576040519150601f19603f3d011682016040523d82523d6000602084013e61089e565b606091505b5091509150816108b157601560006108c5565b808060200190518101906108c59190611151565b60039190910b97909650945050505050565b6000600160008360068111156108ef576108ef611188565b600681111561090057610900611188565b8152602001908152602001600020549050919050565b61091e610998565b600183600481111561093257610932611188565b0361094b576001600160a01b03821660208201526101e5565b600483600481111561095f5761095f611188565b036101e5576001600160a01b038216608082015292915050565b604051806040016040528060008152602001610993610998565b905290565b6040518060a0016040528060001515815260200160006001600160a01b03168152602001606081526020016060815260200160006001600160a01b031681525090565b6001600160a01b03811681146109f057600080fd5b50565b634e487b7160e01b600052604160045260246000fd5b604051601f8201601f1916810167ffffffffffffffff81118282101715610a3257610a326109f3565b604052919050565b600067ffffffffffffffff821115610a5457610a546109f3565b5060051b60200190565b600082601f830112610a6f57600080fd5b813567ffffffffffffffff811115610a8957610a896109f3565b610a9c601f8201601f1916602001610a09565b818152846020838601011115610ab157600080fd5b816020850160208301376000918101602001919091529392505050565b60008060408385031215610ae157600080fd5b8235610aec816109db565b915060208381013567ffffffffffffffff80821115610b0a57600080fd5b818601915086601f830112610b1e57600080fd5b8135610b31610b2c82610a3a565b610a09565b81815260059190911b83018401908481019089831115610b5057600080fd5b8585015b83811015610b8857803585811115610b6c5760008081fd5b610b7a8c89838a0101610a5e565b845250918601918601610b54565b508096505050505050509250929050565b60008060008060808587031215610baf57600080fd5b8435610bba816109db565b93506020850135610bca816109db565b92506040850135610bda816109db565b9396929550929360600135925050565b60008060408385031215610bfd57600080fd5b8235610c08816109db565b9150602083013567ffffffffffffffff811115610c2457600080fd5b610c3085828601610a5e565b9150509250929050565b8060070b81146109f057600080fd5b600080600060608486031215610c5e57600080fd5b8335610c69816109db565b92506020840135610c79816109db565b91506040840135610c8981610c3a565b809150509250925092565b600080600080600060a08688031215610cac57600080fd5b853567ffffffffffffffff80821115610cc457600080fd5b610cd089838a01610a5e565b96506020880135915080821115610ce657600080fd5b610cf289838a01610a5e565b95506040880135915080821115610d0857600080fd5b50610d1588828901610a5e565b9350506060860135610d2681610c3a565b91506080860135610d3681610c3a565b809150509295509295909350565b634e487b7160e01b600052603260045260246000fd5b60005b83811015610d75578181015183820152602001610d5d565b50506000910152565b60008251610d90818460208701610d5a565b9190910192915050565b8051600381900b8114610dac57600080fd5b919050565b600060208284031215610dc357600080fd5b610dcc82610d9a565b9392505050565b60008151808452610deb816020860160208601610d5a565b601f01601f19169290920160200192915050565b6001600160a01b038316815260406020820181905260009061043c90830184610dd3565b821515815260406020820152600061043c6040830184610dd3565b60006060820160018060a01b038616835260208560070b818501526060604085015281855180845260808601915060808160051b870101935082870160005b82811015610eab57607f19888703018452610e99868351610dd3565b95509284019290840190600101610e7d565b50939998505050505050505050565b600080600060608486031215610ecf57600080fd5b610ed884610d9a565b9250602080850151610ee981610c3a565b604086015190935067ffffffffffffffff811115610f0657600080fd5b8501601f81018713610f1757600080fd5b8051610f25610b2c82610a3a565b81815260059190911b82018301908381019089831115610f4457600080fd5b928401925b82841015610f6b578351610f5c81610c3a565b82529284019290840190610f49565b80955050505050509250925092565b600081518084526020808501808196508360051b8101915082860160005b8581101561103057828403895281516040815186528682015191508087870152815115158187015286820151606060018060a01b03808316828a015283850151935060a09250608083818b0152610ff260e08b0186610dd3565b928601518a8403603f1901858c015292945061100e8584610dd3565b9501511660c09890980197909752505098850198935090840190600101610f98565b5091979650505050505050565b6020815260008251610160602084015261105b610180840182610dd3565b90506020840151601f19808584030160408601526110798383610dd3565b92506040860151915061109760608601836001600160a01b03169052565b60608601519150808584030160808601526110b28383610dd3565b9250608086015191506110c960a086018315159052565b60a086015191506110df60c086018360070b9052565b60c086015180151560e0870152915060e0860151915061010081868503018187015261110b8484610f7a565b908701518051600790810b61012089015260208201516001600160a01b03166101408901526040820151900b61016088015290935091506111499050565b509392505050565b6000806040838503121561116457600080fd5b61116d83610d9a565b9150602083015161117d816109db565b809150509250929050565b634e487b7160e01b600052602160045260246000fdfea26469706673582212204221a4b0ba570dbcc52992042bf8e971dca0042c93618965b822465243dbea1c64736f6c63430008130033a264697066735822122030c55820cba27e30a97c21c74e69c9bed97f35ff319461ce35ab89803c7223f464736f6c63430008130033",
    "sourcePath": "/home/drleo/Projects/hackathons/hedera/smart-contracts/contracts/Surveys.sol",
    "compiler": {
        "name": "solc",
        "version": "0.8.19+commit.7dd6d404"
    },
    "functionHashes": {
        "createHash(bytes32,bytes32)": "2b82b9a9",
        "getAnswer(uint256)": "b5ab58dc",
        "getAnswers()": "c793fcf9",
        "getAuthorSurveys()": "c2e298c1",
        "getSurvey(uint256)": "89670e15",
        "getSurveys()": "7dec8296",
        "getUserAnswers()": "9524d316",
        "setAnswer(bytes32,bytes32)": "f8661e0f",
        "setSurvey(bytes32)": "ce5cb1c6"
    },
    "gasEstimates": {
        "creation": {
            "codeDepositCost": "1920800",
            "executionCost": "infinite",
            "totalCost": "infinite"
        },
        "external": {
            "createHash(bytes32,bytes32)": "461",
            "getAnswer(uint256)": "9131",
            "getAnswers()": "infinite",
            "getAuthorSurveys()": "infinite",
            "getSurvey(uint256)": "6977",
            "getSurveys()": "infinite",
            "getUserAnswers()": "infinite",
            "setAnswer(bytes32,bytes32)": "infinite",
            "setSurvey(bytes32)": "infinite"
        },
        "internal": {
            "surveyExist(bytes32)": "infinite"
        }
    }
}