{
    "contractName": "Surveys",
    "abi": [
        {
            "anonymous": false,
            "inputs": [
                {
                    "indexed": false,
                    "internalType": "bool",
                    "name": "",
                    "type": "bool"
                },
                {
                    "indexed": false,
                    "internalType": "bytes",
                    "name": "",
                    "type": "bytes"
                }
            ],
            "name": "CallResponseEvent",
            "type": "event"
        },
        {
            "anonymous": false,
            "inputs": [
                {
                    "indexed": false,
                    "internalType": "bool",
                    "name": "send",
                    "type": "bool"
                },
                {
                    "indexed": false,
                    "internalType": "bytes",
                    "name": "data",
                    "type": "bytes"
                }
            ],
            "name": "Response",
            "type": "event"
        },
        {
            "inputs": [
                {
                    "internalType": "address",
                    "name": "_token",
                    "type": "address"
                },
                {
                    "internalType": "uint256",
                    "name": "_serialNumber",
                    "type": "uint256"
                }
            ],
            "name": "approveNft",
            "outputs": [
                {
                    "internalType": "int256",
                    "name": "responseCode",
                    "type": "int256"
                }
            ],
            "stateMutability": "nonpayable",
            "type": "function"
        },
        {
            "inputs": [
                {
                    "internalType": "bytes32",
                    "name": "_a",
                    "type": "bytes32"
                },
                {
                    "internalType": "bytes32",
                    "name": "_b",
                    "type": "bytes32"
                }
            ],
            "name": "createHash",
            "outputs": [
                {
                    "internalType": "bytes32",
                    "name": "",
                    "type": "bytes32"
                }
            ],
            "stateMutability": "pure",
            "type": "function"
        },
        {
            "inputs": [
                {
                    "internalType": "string",
                    "name": "name",
                    "type": "string"
                },
                {
                    "internalType": "string",
                    "name": "symbol",
                    "type": "string"
                },
                {
                    "internalType": "string",
                    "name": "memo",
                    "type": "string"
                },
                {
                    "internalType": "int64",
                    "name": "maxSupply",
                    "type": "int64"
                },
                {
                    "internalType": "int64",
                    "name": "autoRenewPeriod",
                    "type": "int64"
                }
            ],
            "name": "createNft",
            "outputs": [
                {
                    "internalType": "address",
                    "name": "",
                    "type": "address"
                }
            ],
            "stateMutability": "payable",
            "type": "function"
        },
        {
            "inputs": [
                {
                    "internalType": "uint256",
                    "name": "i",
                    "type": "uint256"
                }
            ],
            "name": "getAnswer",
            "outputs": [
                {
                    "components": [
                        {
                            "internalType": "bytes32",
                            "name": "surveyHash",
                            "type": "bytes32"
                        },
                        {
                            "internalType": "bytes32",
                            "name": "answerHash",
                            "type": "bytes32"
                        },
                        {
                            "internalType": "address",
                            "name": "userAddress",
                            "type": "address"
                        }
                    ],
                    "internalType": "struct Surveys.Answer",
                    "name": "",
                    "type": "tuple"
                }
            ],
            "stateMutability": "view",
            "type": "function"
        },
        {
            "inputs": [],
            "name": "getAnswers",
            "outputs": [
                {
                    "components": [
                        {
                            "internalType": "bytes32",
                            "name": "surveyHash",
                            "type": "bytes32"
                        },
                        {
                            "internalType": "bytes32",
                            "name": "answerHash",
                            "type": "bytes32"
                        },
                        {
                            "internalType": "address",
                            "name": "userAddress",
                            "type": "address"
                        }
                    ],
                    "internalType": "struct Surveys.Answer[]",
                    "name": "",
                    "type": "tuple[]"
                }
            ],
            "stateMutability": "view",
            "type": "function"
        },
        {
            "inputs": [],
            "name": "getAuthorSurveys",
            "outputs": [
                {
                    "components": [
                        {
                            "internalType": "bytes32",
                            "name": "surveyHash",
                            "type": "bytes32"
                        },
                        {
                            "internalType": "address",
                            "name": "author",
                            "type": "address"
                        }
                    ],
                    "internalType": "struct Surveys.Survey[]",
                    "name": "",
                    "type": "tuple[]"
                }
            ],
            "stateMutability": "view",
            "type": "function"
        },
        {
            "inputs": [],
            "name": "getBalance",
            "outputs": [
                {
                    "internalType": "uint256",
                    "name": "",
                    "type": "uint256"
                }
            ],
            "stateMutability": "view",
            "type": "function"
        },
        {
            "inputs": [
                {
                    "internalType": "uint256",
                    "name": "_i",
                    "type": "uint256"
                }
            ],
            "name": "getSurvey",
            "outputs": [
                {
                    "components": [
                        {
                            "internalType": "bytes32",
                            "name": "surveyHash",
                            "type": "bytes32"
                        },
                        {
                            "internalType": "address",
                            "name": "author",
                            "type": "address"
                        }
                    ],
                    "internalType": "struct Surveys.Survey",
                    "name": "",
                    "type": "tuple"
                }
            ],
            "stateMutability": "view",
            "type": "function"
        },
        {
            "inputs": [],
            "name": "getSurveys",
            "outputs": [
                {
                    "components": [
                        {
                            "internalType": "bytes32",
                            "name": "surveyHash",
                            "type": "bytes32"
                        },
                        {
                            "internalType": "address",
                            "name": "author",
                            "type": "address"
                        }
                    ],
                    "internalType": "struct Surveys.Survey[]",
                    "name": "",
                    "type": "tuple[]"
                }
            ],
            "stateMutability": "view",
            "type": "function"
        },
        {
            "inputs": [],
            "name": "getUserAnswers",
            "outputs": [
                {
                    "components": [
                        {
                            "internalType": "bytes32",
                            "name": "surveyHash",
                            "type": "bytes32"
                        },
                        {
                            "internalType": "bytes32",
                            "name": "answerHash",
                            "type": "bytes32"
                        },
                        {
                            "internalType": "address",
                            "name": "userAddress",
                            "type": "address"
                        }
                    ],
                    "internalType": "struct Surveys.Answer[]",
                    "name": "",
                    "type": "tuple[]"
                }
            ],
            "stateMutability": "view",
            "type": "function"
        },
        {
            "inputs": [
                {
                    "internalType": "address",
                    "name": "token",
                    "type": "address"
                },
                {
                    "internalType": "bytes[]",
                    "name": "metadata",
                    "type": "bytes[]"
                }
            ],
            "name": "mintNft",
            "outputs": [
                {
                    "internalType": "int64",
                    "name": "",
                    "type": "int64"
                }
            ],
            "stateMutability": "payable",
            "type": "function"
        },
        {
            "inputs": [
                {
                    "internalType": "address",
                    "name": "token",
                    "type": "address"
                },
                {
                    "internalType": "bytes",
                    "name": "encodedFunctionSelector",
                    "type": "bytes"
                }
            ],
            "name": "redirectForToken",
            "outputs": [],
            "stateMutability": "nonpayable",
            "type": "function"
        },
        {
            "inputs": [
                {
                    "internalType": "bytes32",
                    "name": "_surveyHash",
                    "type": "bytes32"
                },
                {
                    "internalType": "bytes32",
                    "name": "_answerHash",
                    "type": "bytes32"
                },
                {
                    "internalType": "bytes[]",
                    "name": "_metadata",
                    "type": "bytes[]"
                }
            ],
            "name": "setAnswer",
            "outputs": [
                {
                    "internalType": "int64",
                    "name": "",
                    "type": "int64"
                }
            ],
            "stateMutability": "payable",
            "type": "function"
        },
        {
            "inputs": [
                {
                    "internalType": "bytes32",
                    "name": "_surveyHash",
                    "type": "bytes32"
                }
            ],
            "name": "setSurvey",
            "outputs": [
                {
                    "internalType": "bool",
                    "name": "",
                    "type": "bool"
                }
            ],
            "stateMutability": "payable",
            "type": "function"
        },
        {
            "inputs": [
                {
                    "internalType": "address",
                    "name": "token",
                    "type": "address"
                },
                {
                    "internalType": "address",
                    "name": "from",
                    "type": "address"
                },
                {
                    "internalType": "address",
                    "name": "to",
                    "type": "address"
                },
                {
                    "internalType": "uint256",
                    "name": "amount",
                    "type": "uint256"
                }
            ],
            "name": "transferFrom",
            "outputs": [
                {
                    "internalType": "int64",
                    "name": "responseCode",
                    "type": "int64"
                }
            ],
            "stateMutability": "nonpayable",
            "type": "function"
        },
        {
            "inputs": [
                {
                    "internalType": "address",
                    "name": "token",
                    "type": "address"
                },
                {
                    "internalType": "address",
                    "name": "from",
                    "type": "address"
                },
                {
                    "internalType": "address",
                    "name": "to",
                    "type": "address"
                },
                {
                    "internalType": "uint256",
                    "name": "serialNumber",
                    "type": "uint256"
                }
            ],
            "name": "transferFromNFT",
            "outputs": [
                {
                    "internalType": "int64",
                    "name": "responseCode",
                    "type": "int64"
                }
            ],
            "stateMutability": "nonpayable",
            "type": "function"
        },
        {
            "inputs": [
                {
                    "internalType": "address",
                    "name": "_token",
                    "type": "address"
                },
                {
                    "internalType": "int64",
                    "name": "_serial",
                    "type": "int64"
                }
            ],
            "name": "transferNft",
            "outputs": [
                {
                    "internalType": "int256",
                    "name": "",
                    "type": "int256"
                }
            ],
            "stateMutability": "payable",
            "type": "function"
        }
    ],
    "bytecode": "608060405234801561001057600080fd5b50600160208181527fa6eef7e35abe7026729641147f7915573c7e97b47efa546f5f6e3230263bcb499190915560027fcc69885fda6bcc1a4ace058b4a62bf5e179ea78fd58a1ccd71c22cc9b688792f5560047fd9d16d34ffb15ba3a3d852f0d403e2ce1d691fb54de27ac87cd2f993f3ec330f5560087f7dfe757ecd65cbd7922a9c0161e935dd7fdbcc0e999689c7d31633896b1fc60b5560107fedc95719e9a3b28dd8e80877cb5880a9be7de1a13fc8b05e7999683b6b567643557fe2689cd4a84e23ad2f564004f1c9013e9589d260bde6380aba3ca7e09e4df40c55600660005260407f8f331abe73332f95a25873e8b430885974c0409691f89d643119a11623a7924a55611f25806101276000396000f3fe6080604052600436106100fe5760003560e01c8063899b789811610095578063b6c907a611610064578063b6c907a6146102c5578063c2e298c1146102f0578063c793fcf914610305578063cd7c253e1461031a578063ce5cb1c61461032d57600080fd5b8063899b7898146102365780639524d316146102565780639b23d3d914610278578063b5ab58dc1461029857600080fd5b806330f5ed82116100d157806330f5ed82146101b2578063618dc65e146101c55780637dec8296146101e757806389670e151461020957600080fd5b80630a284cb61461010357806312065fe01461012e57806315dacbea1461014b5780632b82b9a91461016b575b600080fd5b6101166101113660046116cc565b610350565b60405160079190910b81526020015b60405180910390f35b34801561013a57600080fd5b50475b604051908152602001610125565b34801561015757600080fd5b5061011661016636600461171b565b6103ee565b34801561017757600080fd5b5061013d61018636600461176c565b604080516020808201949094528082019290925280518083038201815260609092019052805191012090565b6101166101c036600461178e565b6104e2565b3480156101d157600080fd5b506101e56101e03660046117dd565b610662565b005b3480156101f357600080fd5b506101fc610750565b6040516101259190611822565b34801561021557600080fd5b50610229610224366004611882565b6107c5565b604051610125919061189b565b34801561024257600080fd5b5061013d6102513660046118bb565b610825565b34801561026257600080fd5b5061026b610892565b60405161012591906118e7565b34801561028457600080fd5b5061011661029336600461171b565b6109eb565b3480156102a457600080fd5b506102b86102b3366004611882565b610a30565b6040516101259190611952565b6102d86102d336600461198b565b610aa9565b6040516001600160a01b039091168152602001610125565b3480156102fc57600080fd5b506101fc610c5a565b34801561031157600080fd5b5061026b610e08565b61013d610328366004611a3a565b610f11565b61034061033b366004611882565b610f87565b6040519015158152602001610125565b6000806000610361856000866110d3565b9250509150601660030b82146103c85760405162461bcd60e51b815260206004820152602160248201527f4661696c656420746f206d696e74206e6f6e2d66756e6769626c6520746f6b656044820152603760f91b60648201526084015b60405180910390fd5b806000815181106103db576103db611a73565b6020026020010151925050505b92915050565b6040516001600160a01b038581166024830152848116604483015283166064820152608481018290526000908190819061016790630aed65f560e11b9060a4015b60408051601f198184030181529181526020820180516001600160e01b03166001600160e01b031990941693909317909252905161046d9190611aad565b6000604051808303816000865af19150503d80600081146104aa576040519150601f19603f3d011682016040523d82523d6000602084013e6104af565b606091505b5091509150816104c05760156104d4565b808060200190518101906104d49190611ae0565b60030b979650505050505050565b33600090815260026020526040812080543491908390610503908490611b11565b909155505060408051606081018252858152602081018581523392820192835260058054600181018255600091825292517f036b6384b5eca791c62761152d0c79bb0604c104a5fb6f4eb0703f3154bb3db060039094029384015590517f036b6384b5eca791c62761152d0c79bb0604c104a5fb6f4eb0703f3154bb3db183015591517f036b6384b5eca791c62761152d0c79bb0604c104a5fb6f4eb0703f3154bb3db290910180546001600160a01b0319166001600160a01b039283161790556004546105d2911684610350565b336000818152600660209081526040808320600480548254600180820185559387528587200180546001600160a01b039092166001600160a01b0319909216919091179055948452600783529083208054918201815583529120918104909101805460039092166008026101000a6001600160401b03818102199093169284160291909117905595945050505050565b6000806101676001600160a01b031663618dc65e60e01b858560405160240161068c929190611b50565b60408051601f198184030181529181526020820180516001600160e01b03166001600160e01b03199094169390931790925290516106ca9190611aad565b6000604051808303816000865af19150503d8060008114610707576040519150601f19603f3d011682016040523d82523d6000602084013e61070c565b606091505b50915091507f4af4780e06fe8cb9df64b0794fa6f01399af979175bb988e35e0e57e594567bc8282604051610742929190611b7c565b60405180910390a150505050565b60606003805480602002602001604051908101604052809291908181526020016000905b828210156107bc5760008481526020908190206040805180820190915260028502909101805482526001908101546001600160a01b0316828401529083529092019101610774565b50505050905090565b6040805180820190915260008082526020820152600382815481106107ec576107ec611a73565b60009182526020918290206040805180820190915260029092020180548252600101546001600160a01b03169181019190915292915050565b60006108328333846111d1565b9050601681146103e85760405162461bcd60e51b815260206004820152602560248201527f4661696c656420746f20617070726f7665206e6f6e2d66756e676962696c65206044820152643a37b5b2b760d91b60648201526084016103bf565b6005546060906000906001600160401b038111156108b2576108b2611565565b6040519080825280602002602001820160405280156108fd57816020015b60408051606081018252600080825260208083018290529282015282526000199092019101816108d05790505b5090506000805b6005548110156109e357336001600160a01b03166005828154811061092b5761092b611a73565b60009182526020909120600260039092020101546001600160a01b0316036109d1576005818154811061096057610960611a73565b6000918252602091829020604080516060810182526003909302909101805483526001810154938301939093526002909201546001600160a01b03169181019190915283518490849081106109b7576109b7611a73565b602002602001018190525081806109cd90611b97565b9250505b806109db81611b97565b915050610904565b509092915050565b6040516001600160a01b038581166024830152848116604483015283166064820152608481018290526000908190819061016790639b23d3d960e01b9060a40161042f565b604080516060810182526000808252602082018190529181019190915260058281548110610a6057610a60611a73565b6000918252602091829020604080516060810182526003909302909101805483526001810154938301939093526002909201546001600160a01b03169181019190915292915050565b604080516001808252818301909252600091829190816020015b610acb6114eb565b815260200190600190039081610ac3579050509050610aed60046001306112aa565b81600081518110610b0057610b00611a73565b6020026020010181905250610b7160408051610120810182526060808252602080830182905260008385018190528284018390526080840181905260a0840181905260c0840181905260e0840183905284519283018552808352908201819052928101929092529061010082015290565b8781526020810187905260608101869052306040820181905260016080830152600786900b60a083015260e08201839052600060c0830152610bda908560408051606081018252600081526001600160a01b0393909316602084015260079190910b9082015290565b610100820152600080610bec836112df565b909250905060168214610c4d5760405162461bcd60e51b815260206004820152602360248201527f4661696c656420746f20637265617465206e6f6e2d66756e6769626c6520746f60448201526235b2b760e91b60648201526084016103bf565b9998505050505050505050565b606060008060005b600354811015610ccb57336001600160a01b031660038281548110610c8957610c89611a73565b60009182526020909120600160029092020101546001600160a01b031603610cb95781610cb581611b97565b9250505b80610cc381611b97565b915050610c62565b506000816001600160401b03811115610ce657610ce6611565565b604051908082528060200260200182016040528015610d2b57816020015b6040805180820190915260008082526020820152815260200190600190039081610d045790505b50905060005b600354811015610e0057336001600160a01b031660038281548110610d5857610d58611a73565b60009182526020909120600160029092020101546001600160a01b031603610dee5760038181548110610d8d57610d8d611a73565b60009182526020918290206040805180820190915260029092020180548252600101546001600160a01b0316918101919091528251839086908110610dd457610dd4611a73565b60200260200101819052508380610dea90611b97565b9450505b80610df881611b97565b915050610d31565b509392505050565b6005546060906000906001600160401b03811115610e2857610e28611565565b604051908082528060200260200182016040528015610e7357816020015b6040805160608101825260008082526020808301829052928201528252600019909201910181610e465790505b50905060005b600554811015610f0b5760058181548110610e9657610e96611a73565b6000918252602091829020604080516060810182526003909302909101805483526001810154938301939093526002909201546001600160a01b0316918101919091528251839083908110610eed57610eed611a73565b60200260200101819052508080610f0390611b97565b915050610e79565b50919050565b600080610f2084303386611401565b905060168114610f805760405162461bcd60e51b815260206004820152602560248201527f4661696c656420746f207472616e73666572206e6f6e2d66756e6769626c65206044820152643a37b5b2b760d91b60648201526084016103bf565b9392505050565b33600090815260026020526040812080543491908390610fa8908490611b11565b90915550506040805180820182528381523360208083019182526003805460018101825560009190915292517fc2575a0e9e593c00f959f8c92f12db2869c3395a3b0502d05e2516446f71f85b60029094029384015590517fc2575a0e9e593c00f959f8c92f12db2869c3395a3b0502d05e2516446f71f85c90920180546001600160a01b0319166001600160a01b039093169290921790915581518083018352600a80825269486173684368616e676560b01b828401528351808501855260048152634558523160e01b818501528451808601909552600c85526b66726f6d207375727665797360a01b938501939093526110ab9391929190626acfc0610aa9565b600480546001600160a01b0319166001600160a01b0392909216919091179055506001919050565b60008060606000806101676001600160a01b031663e0f4059a60e01b89898960405160240161110493929190611bb0565b60408051601f198184030181529181526020820180516001600160e01b03166001600160e01b03199094169390931790925290516111429190611aad565b6000604051808303816000865af19150503d806000811461117f576040519150601f19603f3d011682016040523d82523d6000602084013e611184565b606091505b5091509150816111a75760408051600080825260208201909252601591906111bb565b808060200190518101906111bb9190611c2c565b60039290920b9a90995090975095505050505050565b604080516001600160a01b03858116602483015284166044820152606480820184905282518083039091018152608490910182526020810180516001600160e01b03166307336aaf60e41b179052905160009182918291610167916112369190611aad565b6000604051808303816000865af19150503d8060008114611273576040519150601f19603f3d011682016040523d82523d6000602084013e611278565b606091505b50915091508161128957601561129d565b8080602001905181019061129d9190611ae0565b60030b9695505050505050565b6112b26114eb565b60405180604001604052806112c686611449565b81526020016112d58585611488565b9052949350505050565b600080828061010001516000015160070b600014801561130957506101008101516040015160070b155b1561131f576101008101516276a7006040909101525b6000806101676001600160a01b03163463ea83f29360e01b886040516024016113489190611da1565b60408051601f198184030181529181526020820180516001600160e01b03166001600160e01b03199094169390931790925290516113869190611aad565b60006040518083038185875af1925050503d80600081146113c3576040519150601f19603f3d011682016040523d82523d6000602084013e6113c8565b606091505b5091509150816113db57601560006113ef565b808060200190518101906113ef9190611ead565b60039190910b97909650945050505050565b6040516001600160a01b038581166024830152848116604483015283166064820152600782900b60848201526000908190819061016790635cfc901160e01b9060a40161042f565b60006001600083600681111561146157611461611ed9565b600681111561147257611472611ed9565b8152602001908152602001600020549050919050565b61149061150a565b60018360048111156114a4576114a4611ed9565b036114bd576001600160a01b03821660208201526103e8565b60048360048111156114d1576114d1611ed9565b036103e8576001600160a01b038216608082015292915050565b60405180604001604052806000815260200161150561150a565b905290565b6040518060a0016040528060001515815260200160006001600160a01b03168152602001606081526020016060815260200160006001600160a01b031681525090565b6001600160a01b038116811461156257600080fd5b50565b634e487b7160e01b600052604160045260246000fd5b604051601f8201601f191681016001600160401b03811182821017156115a3576115a3611565565b604052919050565b60006001600160401b038211156115c4576115c4611565565b5060051b60200190565b600082601f8301126115df57600080fd5b81356001600160401b038111156115f8576115f8611565565b61160b601f8201601f191660200161157b565b81815284602083860101111561162057600080fd5b816020850160208301376000918101602001919091529392505050565b600082601f83011261164e57600080fd5b8135602061166361165e836115ab565b61157b565b82815260059290921b8401810191818101908684111561168257600080fd5b8286015b848110156116c15780356001600160401b038111156116a55760008081fd5b6116b38986838b01016115ce565b845250918301918301611686565b509695505050505050565b600080604083850312156116df57600080fd5b82356116ea8161154d565b915060208301356001600160401b0381111561170557600080fd5b6117118582860161163d565b9150509250929050565b6000806000806080858703121561173157600080fd5b843561173c8161154d565b9350602085013561174c8161154d565b9250604085013561175c8161154d565b9396929550929360600135925050565b6000806040838503121561177f57600080fd5b50508035926020909101359150565b6000806000606084860312156117a357600080fd5b833592506020840135915060408401356001600160401b038111156117c757600080fd5b6117d38682870161163d565b9150509250925092565b600080604083850312156117f057600080fd5b82356117fb8161154d565b915060208301356001600160401b0381111561181657600080fd5b611711858286016115ce565b602080825282518282018190526000919060409081850190868401855b8281101561187557611865848351805182526020908101516001600160a01b0316910152565b928401929085019060010161183f565b5091979650505050505050565b60006020828403121561189457600080fd5b5035919050565b815181526020808301516001600160a01b031690820152604081016103e8565b600080604083850312156118ce57600080fd5b82356118d98161154d565b946020939093013593505050565b6020808252825182820181905260009190848201906040850190845b818110156119465761193383855180518252602080820151908301526040908101516001600160a01b0316910152565b9284019260609290920191600101611903565b50909695505050505050565b81518152602080830151908201526040808301516001600160a01b031690820152606081016103e8565b8060070b811461156257600080fd5b600080600080600060a086880312156119a357600080fd5b85356001600160401b03808211156119ba57600080fd5b6119c689838a016115ce565b965060208801359150808211156119dc57600080fd5b6119e889838a016115ce565b955060408801359150808211156119fe57600080fd5b50611a0b888289016115ce565b9350506060860135611a1c8161197c565b91506080860135611a2c8161197c565b809150509295509295909350565b60008060408385031215611a4d57600080fd5b8235611a588161154d565b91506020830135611a688161197c565b809150509250929050565b634e487b7160e01b600052603260045260246000fd5b60005b83811015611aa4578181015183820152602001611a8c565b50506000910152565b60008251611abf818460208701611a89565b9190910192915050565b8051600381900b8114611adb57600080fd5b919050565b600060208284031215611af257600080fd5b610f8082611ac9565b634e487b7160e01b600052601160045260246000fd5b808201808211156103e8576103e8611afb565b60008151808452611b3c816020860160208601611a89565b601f01601f19169290920160200192915050565b6001600160a01b0383168152604060208201819052600090611b7490830184611b24565b949350505050565b8215158152604060208201526000611b746040830184611b24565b600060018201611ba957611ba9611afb565b5060010190565b60006060820160018060a01b038616835260208560070b818501526060604085015281855180845260808601915060808160051b870101935082870160005b82811015611c1d57607f19888703018452611c0b868351611b24565b95509284019290840190600101611bef565b50939998505050505050505050565b600080600060608486031215611c4157600080fd5b611c4a84611ac9565b9250602080850151611c5b8161197c565b60408601519093506001600160401b03811115611c7757600080fd5b8501601f81018713611c8857600080fd5b8051611c9661165e826115ab565b81815260059190911b82018301908381019089831115611cb557600080fd5b928401925b82841015611cdc578351611ccd8161197c565b82529284019290840190611cba565b80955050505050509250925092565b600081518084526020808501808196508360051b8101915082860160005b8581101561187557828403895281516040815186528682015191508087870152815115158187015286820151606060018060a01b03808316828a015283850151935060a09250608083818b0152611d6360e08b0186611b24565b928601518a8403603f1901858c0152929450611d7f8584611b24565b9501511660c09890980197909752505098850198935090840190600101611d09565b60208152600082516101606020840152611dbf610180840182611b24565b90506020840151601f1980858403016040860152611ddd8383611b24565b925060408601519150611dfb60608601836001600160a01b03169052565b6060860151915080858403016080860152611e168383611b24565b925060808601519150611e2d60a086018315159052565b60a08601519150611e4360c086018360070b9052565b60c086015180151560e0870152915060e08601519150610100818685030181870152611e6f8484611ceb565b908701518051600790810b61012089015260208201516001600160a01b03166101408901526040820151900b6101608801529093509150610e009050565b60008060408385031215611ec057600080fd5b611ec983611ac9565b91506020830151611a688161154d565b634e487b7160e01b600052602160045260246000fdfea26469706673582212205ffd9b69b6d8d37a822995e7d50d38ac86037dae972735e4ffa758d6a9fd47ca64736f6c63430008130033",
    "sourcePath": "/home/drleo/Projects/hackathons/hedera/smart-contracts/contracts/Surveys.sol",
    "compiler": {
        "name": "solc",
        "version": "0.8.19+commit.7dd6d404"
    },
    "functionHashes": {
        "approveNft(address,uint256)": "899b7898",
        "createHash(bytes32,bytes32)": "2b82b9a9",
        "createNft(string,string,string,int64,int64)": "b6c907a6",
        "getAnswer(uint256)": "b5ab58dc",
        "getAnswers()": "c793fcf9",
        "getAuthorSurveys()": "c2e298c1",
        "getBalance()": "12065fe0",
        "getSurvey(uint256)": "89670e15",
        "getSurveys()": "7dec8296",
        "getUserAnswers()": "9524d316",
        "mintNft(address,bytes[])": "0a284cb6",
        "redirectForToken(address,bytes)": "618dc65e",
        "setAnswer(bytes32,bytes32,bytes[])": "30f5ed82",
        "setSurvey(bytes32)": "ce5cb1c6",
        "transferFrom(address,address,address,uint256)": "15dacbea",
        "transferFromNFT(address,address,address,uint256)": "9b23d3d9",
        "transferNft(address,int64)": "cd7c253e"
    },
    "gasEstimates": {
        "creation": {
            "codeDepositCost": "1594600",
            "executionCost": "156442",
            "totalCost": "1751042"
        },
        "external": {
            "approveNft(address,uint256)": "infinite",
            "createHash(bytes32,bytes32)": "544",
            "createNft(string,string,string,int64,int64)": "infinite",
            "getAnswer(uint256)": "9220",
            "getAnswers()": "infinite",
            "getAuthorSurveys()": "infinite",
            "getBalance()": "229",
            "getSurvey(uint256)": "7021",
            "getSurveys()": "infinite",
            "getUserAnswers()": "infinite",
            "mintNft(address,bytes[])": "infinite",
            "redirectForToken(address,bytes)": "infinite",
            "setAnswer(bytes32,bytes32,bytes[])": "infinite",
            "setSurvey(bytes32)": "infinite",
            "transferFrom(address,address,address,uint256)": "infinite",
            "transferFromNFT(address,address,address,uint256)": "infinite",
            "transferNft(address,int64)": "infinite"
        },
        "internal": {
            "surveyExist(bytes32)": "infinite"
        }
    }
}