{
    "contractName": "Surveys",
    "abi": [
        {
            "inputs": [
                {
                    "internalType": "address",
                    "name": "_operatorAccountAddresss",
                    "type": "address"
                }
            ],
            "stateMutability": "nonpayable",
            "type": "constructor"
        },
        {
            "anonymous": false,
            "inputs": [
                {
                    "indexed": false,
                    "internalType": "bool",
                    "name": "",
                    "type": "bool"
                },
                {
                    "indexed": false,
                    "internalType": "bytes",
                    "name": "",
                    "type": "bytes"
                }
            ],
            "name": "CallResponseEvent",
            "type": "event"
        },
        {
            "anonymous": false,
            "inputs": [
                {
                    "indexed": false,
                    "internalType": "bool",
                    "name": "send",
                    "type": "bool"
                },
                {
                    "indexed": false,
                    "internalType": "bytes",
                    "name": "data",
                    "type": "bytes"
                }
            ],
            "name": "Response",
            "type": "event"
        },
        {
            "inputs": [
                {
                    "internalType": "bytes32",
                    "name": "_a",
                    "type": "bytes32"
                },
                {
                    "internalType": "bytes32",
                    "name": "_b",
                    "type": "bytes32"
                }
            ],
            "name": "createHash",
            "outputs": [
                {
                    "internalType": "bytes32",
                    "name": "",
                    "type": "bytes32"
                }
            ],
            "stateMutability": "pure",
            "type": "function"
        },
        {
            "inputs": [
                {
                    "internalType": "string",
                    "name": "name",
                    "type": "string"
                },
                {
                    "internalType": "string",
                    "name": "symbol",
                    "type": "string"
                },
                {
                    "internalType": "string",
                    "name": "memo",
                    "type": "string"
                },
                {
                    "internalType": "int64",
                    "name": "maxSupply",
                    "type": "int64"
                },
                {
                    "internalType": "int64",
                    "name": "autoRenewPeriod",
                    "type": "int64"
                }
            ],
            "name": "createNft",
            "outputs": [
                {
                    "internalType": "address",
                    "name": "",
                    "type": "address"
                }
            ],
            "stateMutability": "nonpayable",
            "type": "function"
        },
        {
            "inputs": [
                {
                    "internalType": "uint256",
                    "name": "i",
                    "type": "uint256"
                }
            ],
            "name": "getAnswer",
            "outputs": [
                {
                    "components": [
                        {
                            "internalType": "bytes32",
                            "name": "surveyHash",
                            "type": "bytes32"
                        },
                        {
                            "internalType": "bytes32",
                            "name": "answerHash",
                            "type": "bytes32"
                        },
                        {
                            "internalType": "address",
                            "name": "userAddress",
                            "type": "address"
                        }
                    ],
                    "internalType": "struct Surveys.Answer",
                    "name": "",
                    "type": "tuple"
                }
            ],
            "stateMutability": "view",
            "type": "function"
        },
        {
            "inputs": [],
            "name": "getAnswers",
            "outputs": [
                {
                    "components": [
                        {
                            "internalType": "bytes32",
                            "name": "surveyHash",
                            "type": "bytes32"
                        },
                        {
                            "internalType": "bytes32",
                            "name": "answerHash",
                            "type": "bytes32"
                        },
                        {
                            "internalType": "address",
                            "name": "userAddress",
                            "type": "address"
                        }
                    ],
                    "internalType": "struct Surveys.Answer[]",
                    "name": "",
                    "type": "tuple[]"
                }
            ],
            "stateMutability": "view",
            "type": "function"
        },
        {
            "inputs": [],
            "name": "getAuthorSurveys",
            "outputs": [
                {
                    "components": [
                        {
                            "internalType": "bytes32",
                            "name": "surveyHash",
                            "type": "bytes32"
                        },
                        {
                            "internalType": "address",
                            "name": "author",
                            "type": "address"
                        }
                    ],
                    "internalType": "struct Surveys.Survey[]",
                    "name": "",
                    "type": "tuple[]"
                }
            ],
            "stateMutability": "view",
            "type": "function"
        },
        {
            "inputs": [],
            "name": "getBalance",
            "outputs": [
                {
                    "internalType": "uint256",
                    "name": "",
                    "type": "uint256"
                }
            ],
            "stateMutability": "view",
            "type": "function"
        },
        {
            "inputs": [
                {
                    "internalType": "uint256",
                    "name": "_i",
                    "type": "uint256"
                }
            ],
            "name": "getSurvey",
            "outputs": [
                {
                    "components": [
                        {
                            "internalType": "bytes32",
                            "name": "surveyHash",
                            "type": "bytes32"
                        },
                        {
                            "internalType": "address",
                            "name": "author",
                            "type": "address"
                        }
                    ],
                    "internalType": "struct Surveys.Survey",
                    "name": "",
                    "type": "tuple"
                }
            ],
            "stateMutability": "view",
            "type": "function"
        },
        {
            "inputs": [],
            "name": "getSurveys",
            "outputs": [
                {
                    "components": [
                        {
                            "internalType": "bytes32",
                            "name": "surveyHash",
                            "type": "bytes32"
                        },
                        {
                            "internalType": "address",
                            "name": "author",
                            "type": "address"
                        }
                    ],
                    "internalType": "struct Surveys.Survey[]",
                    "name": "",
                    "type": "tuple[]"
                }
            ],
            "stateMutability": "view",
            "type": "function"
        },
        {
            "inputs": [],
            "name": "getUserAnswers",
            "outputs": [
                {
                    "components": [
                        {
                            "internalType": "bytes32",
                            "name": "surveyHash",
                            "type": "bytes32"
                        },
                        {
                            "internalType": "bytes32",
                            "name": "answerHash",
                            "type": "bytes32"
                        },
                        {
                            "internalType": "address",
                            "name": "userAddress",
                            "type": "address"
                        }
                    ],
                    "internalType": "struct Surveys.Answer[]",
                    "name": "",
                    "type": "tuple[]"
                }
            ],
            "stateMutability": "view",
            "type": "function"
        },
        {
            "inputs": [
                {
                    "internalType": "address",
                    "name": "token",
                    "type": "address"
                },
                {
                    "internalType": "bytes[]",
                    "name": "metadata",
                    "type": "bytes[]"
                }
            ],
            "name": "mintNft",
            "outputs": [
                {
                    "internalType": "int64",
                    "name": "",
                    "type": "int64"
                }
            ],
            "stateMutability": "nonpayable",
            "type": "function"
        },
        {
            "inputs": [
                {
                    "internalType": "address",
                    "name": "token",
                    "type": "address"
                },
                {
                    "internalType": "bytes",
                    "name": "encodedFunctionSelector",
                    "type": "bytes"
                }
            ],
            "name": "redirectForToken",
            "outputs": [],
            "stateMutability": "nonpayable",
            "type": "function"
        },
        {
            "inputs": [
                {
                    "internalType": "bytes32",
                    "name": "_surveyHash",
                    "type": "bytes32"
                },
                {
                    "internalType": "bytes32",
                    "name": "_answerHash",
                    "type": "bytes32"
                },
                {
                    "internalType": "bytes[]",
                    "name": "_metadata",
                    "type": "bytes[]"
                }
            ],
            "name": "setAnswer",
            "outputs": [
                {
                    "internalType": "bool",
                    "name": "",
                    "type": "bool"
                }
            ],
            "stateMutability": "payable",
            "type": "function"
        },
        {
            "inputs": [
                {
                    "internalType": "bytes32",
                    "name": "_surveyHash",
                    "type": "bytes32"
                }
            ],
            "name": "setSurvey",
            "outputs": [
                {
                    "internalType": "bool",
                    "name": "",
                    "type": "bool"
                }
            ],
            "stateMutability": "payable",
            "type": "function"
        },
        {
            "inputs": [
                {
                    "internalType": "address",
                    "name": "token",
                    "type": "address"
                },
                {
                    "internalType": "address",
                    "name": "from",
                    "type": "address"
                },
                {
                    "internalType": "address",
                    "name": "to",
                    "type": "address"
                },
                {
                    "internalType": "uint256",
                    "name": "amount",
                    "type": "uint256"
                }
            ],
            "name": "transferFrom",
            "outputs": [
                {
                    "internalType": "int64",
                    "name": "responseCode",
                    "type": "int64"
                }
            ],
            "stateMutability": "nonpayable",
            "type": "function"
        },
        {
            "inputs": [
                {
                    "internalType": "address",
                    "name": "token",
                    "type": "address"
                },
                {
                    "internalType": "address",
                    "name": "from",
                    "type": "address"
                },
                {
                    "internalType": "address",
                    "name": "to",
                    "type": "address"
                },
                {
                    "internalType": "uint256",
                    "name": "serialNumber",
                    "type": "uint256"
                }
            ],
            "name": "transferFromNFT",
            "outputs": [
                {
                    "internalType": "int64",
                    "name": "responseCode",
                    "type": "int64"
                }
            ],
            "stateMutability": "nonpayable",
            "type": "function"
        },
        {
            "inputs": [
                {
                    "internalType": "address",
                    "name": "token",
                    "type": "address"
                },
                {
                    "internalType": "address",
                    "name": "receiver",
                    "type": "address"
                },
                {
                    "internalType": "int64",
                    "name": "serial",
                    "type": "int64"
                }
            ],
            "name": "transferNft",
            "outputs": [
                {
                    "internalType": "int256",
                    "name": "",
                    "type": "int256"
                }
            ],
            "stateMutability": "nonpayable",
            "type": "function"
        }
    ],
    "bytecode": "608060405234801561001057600080fd5b506040516120a23803806120a283398101604081905261002f9161015e565b600160208181527fa6eef7e35abe7026729641147f7915573c7e97b47efa546f5f6e3230263bcb499190915560027fcc69885fda6bcc1a4ace058b4a62bf5e179ea78fd58a1ccd71c22cc9b688792f81905560047fd9d16d34ffb15ba3a3d852f0d403e2ce1d691fb54de27ac87cd2f993f3ec330f5560087f7dfe757ecd65cbd7922a9c0161e935dd7fdbcc0e999689c7d31633896b1fc60b5560107fedc95719e9a3b28dd8e80877cb5880a9be7de1a13fc8b05e7999683b6b567643557fe2689cd4a84e23ad2f564004f1c9013e9589d260bde6380aba3ca7e09e4df40c91909155600660005260407f8f331abe73332f95a25873e8b430885974c0409691f89d643119a11623a7924a5580546001600160a01b0319166001600160a01b039290921691909117905561018e565b60006020828403121561017057600080fd5b81516001600160a01b038116811461018757600080fd5b9392505050565b611f058061019d6000396000f3fe6080604052600436106100f35760003560e01c806389670e151161008a578063b6c907a611610059578063b6c907a6146102d7578063c2e298c11461030f578063c793fcf914610324578063ce5cb1c61461033957600080fd5b806389670e151461023b5780639524d316146102685780639b23d3d91461028a578063b5ab58dc146102aa57600080fd5b806330f5ed82116100c657806330f5ed82146101b4578063618dc65e146101d75780637dec8296146101f957806382b562aa1461021b57600080fd5b80630a284cb6146100f857806312065fe01461013057806315dacbea1461014d5780632b82b9a91461016d575b600080fd5b34801561010457600080fd5b50610118610113366004611663565b61034c565b60405160079190910b81526020015b60405180910390f35b34801561013c57600080fd5b50475b604051908152602001610127565b34801561015957600080fd5b506101186101683660046116b2565b6103ea565b34801561017957600080fd5b5061013f610188366004611703565b604080516020808201949094528082019290925280518083038201815260609092019052805191012090565b6101c76101c2366004611725565b6104de565b6040519015158152602001610127565b3480156101e357600080fd5b506101f76101f2366004611774565b610742565b005b34801561020557600080fd5b5061020e610830565b60405161012791906117b9565b34801561022757600080fd5b5061013f610236366004611828565b6108a5565b34801561024757600080fd5b5061025b610256366004611873565b61091c565b604051610127919061188c565b34801561027457600080fd5b5061027d61097c565b60405161012791906118ac565b34801561029657600080fd5b506101186102a53660046116b2565b610ad5565b3480156102b657600080fd5b506102ca6102c5366004611873565b610b1a565b6040516101279190611917565b3480156102e357600080fd5b506102f76102f2366004611941565b610b93565b6040516001600160a01b039091168152602001610127565b34801561031b57600080fd5b5061020e610d44565b34801561033057600080fd5b5061027d610ef2565b6101c7610347366004611873565b610ffb565b600080600061035d85600086611143565b9250509150601660030b82146103c45760405162461bcd60e51b815260206004820152602160248201527f4661696c656420746f206d696e74206e6f6e2d66756e6769626c6520746f6b656044820152603760f91b60648201526084015b60405180910390fd5b806000815181106103d7576103d76119f0565b6020026020010151925050505b92915050565b6040516001600160a01b038581166024830152848116604483015283166064820152608481018290526000908190819061016790630aed65f560e11b9060a4015b60408051601f198184030181529181526020820180516001600160e01b03166001600160e01b03199094169390931790925290516104699190611a2a565b6000604051808303816000865af19150503d80600081146104a6576040519150601f19603f3d011682016040523d82523d6000602084013e6104ab565b606091505b5091509150816104bc5760156104d0565b808060200190518101906104d09190611a5d565b60030b979650505050505050565b336000908152600360205260408120805434919083906104ff908490611a95565b909155505060408051606081018252858152602081018581523382840190815260068054600181018255600091825293517ff652222313e28459528d920b65115c16c04f3efc82aaedc97be59f3f377c0d3f60039095029485015591517ff652222313e28459528d920b65115c16c04f3efc82aaedc97be59f3f377c0d40840155517ff652222313e28459528d920b65115c16c04f3efc82aaedc97be59f3f377c0d4190920180546001600160a01b0319166001600160a01b039384161790556005549251630514265b60e11b815290923092630a284cb6926105ea92909116908790600401611b1c565b6020604051808303816000875af1158015610609573d6000803e3d6000fd5b505050506040513d601f19601f8201168201806040525081019061062d9190611b40565b60055460405163415ab15560e11b81526001600160a01b039091166004820152336024820152600782900b604482015290915030906382b562aa906064016020604051808303816000875af115801561068a573d6000803e3d6000fd5b505050506040513d601f19601f820116820180604052508101906106ae9190611b5d565b503360008181526007602090815260408083206005548154600180820184559286528486200180546001600160a01b039092166001600160a01b0319909216919091179055938352600880835290832080548086018255908452919092206004820401805460039092169092026101000a6001600160401b0381810219909216949091160292909217909155949350505050565b6000806101676001600160a01b031663618dc65e60e01b858560405160240161076c929190611b76565b60408051601f198184030181529181526020820180516001600160e01b03166001600160e01b03199094169390931790925290516107aa9190611a2a565b6000604051808303816000865af19150503d80600081146107e7576040519150601f19603f3d011682016040523d82523d6000602084013e6107ec565b606091505b50915091507f4af4780e06fe8cb9df64b0794fa6f01399af979175bb988e35e0e57e594567bc8282604051610822929190611b9a565b60405180910390a150505050565b60606004805480602002602001604051908101604052809291908181526020016000905b8282101561089c5760008481526020908190206040805180820190915260028502909101805482526001908101546001600160a01b0316828401529083529092019101610854565b50505050905090565b6000806108b485308686611241565b9050601681146109145760405162461bcd60e51b815260206004820152602560248201527f4661696c656420746f207472616e73666572206e6f6e2d66756e6769626c65206044820152643a37b5b2b760d91b60648201526084016103bb565b949350505050565b604080518082019091526000808252602082015260048281548110610943576109436119f0565b60009182526020918290206040805180820190915260029092020180548252600101546001600160a01b03169181019190915292915050565b6006546060906000906001600160401b0381111561099c5761099c6114fc565b6040519080825280602002602001820160405280156109e757816020015b60408051606081018252600080825260208083018290529282015282526000199092019101816109ba5790505b5090506000805b600654811015610acd57336001600160a01b031660068281548110610a1557610a156119f0565b60009182526020909120600260039092020101546001600160a01b031603610abb5760068181548110610a4a57610a4a6119f0565b6000918252602091829020604080516060810182526003909302909101805483526001810154938301939093526002909201546001600160a01b0316918101919091528351849084908110610aa157610aa16119f0565b60200260200101819052508180610ab790611bb5565b9250505b80610ac581611bb5565b9150506109ee565b509092915050565b6040516001600160a01b038581166024830152848116604483015283166064820152608481018290526000908190819061016790639b23d3d960e01b9060a40161042b565b604080516060810182526000808252602082018190529181019190915260068281548110610b4a57610b4a6119f0565b6000918252602091829020604080516060810182526003909302909101805483526001810154938301939093526002909201546001600160a01b03169181019190915292915050565b604080516001808252818301909252600091829190816020015b610bb5611482565b815260200190600190039081610bad579050509050610bd76004600130611289565b81600081518110610bea57610bea6119f0565b6020026020010181905250610c5b60408051610120810182526060808252602080830182905260008385018190528284018390526080840181905260a0840181905260c0840181905260e0840183905284519283018552808352908201819052928101929092529061010082015290565b8781526020810187905260608101869052306040820181905260016080830152600786900b60a083015260e08201839052600060c0830152610cc4908560408051606081018252600081526001600160a01b0393909316602084015260079190910b9082015290565b610100820152600080610cd6836112be565b909250905060168214610d375760405162461bcd60e51b815260206004820152602360248201527f4661696c656420746f20637265617465206e6f6e2d66756e6769626c6520746f60448201526235b2b760e91b60648201526084016103bb565b9998505050505050505050565b606060008060005b600454811015610db557336001600160a01b031660048281548110610d7357610d736119f0565b60009182526020909120600160029092020101546001600160a01b031603610da35781610d9f81611bb5565b9250505b80610dad81611bb5565b915050610d4c565b506000816001600160401b03811115610dd057610dd06114fc565b604051908082528060200260200182016040528015610e1557816020015b6040805180820190915260008082526020820152815260200190600190039081610dee5790505b50905060005b600454811015610eea57336001600160a01b031660048281548110610e4257610e426119f0565b60009182526020909120600160029092020101546001600160a01b031603610ed85760048181548110610e7757610e776119f0565b60009182526020918290206040805180820190915260029092020180548252600101546001600160a01b0316918101919091528251839086908110610ebe57610ebe6119f0565b60200260200101819052508380610ed490611bb5565b9450505b80610ee281611bb5565b915050610e1b565b509392505050565b6006546060906000906001600160401b03811115610f1257610f126114fc565b604051908082528060200260200182016040528015610f5d57816020015b6040805160608101825260008082526020808301829052928201528252600019909201910181610f305790505b50905060005b600654811015610ff55760068181548110610f8057610f806119f0565b6000918252602091829020604080516060810182526003909302909101805483526001810154938301939093526002909201546001600160a01b0316918101919091528251839083908110610fd757610fd76119f0565b60200260200101819052508080610fed90611bb5565b915050610f63565b50919050565b3360009081526003602052604081208054349190839061101c908490611a95565b909155505060408051808201825283815233602080830191825260048054600181018255600082905293517f8a35acfbc15ff81a39ae7d344fd709f28e8600b4aa8c65c6b64bfe7fe36bd19b60029095029485015591517f8a35acfbc15ff81a39ae7d344fd709f28e8600b4aa8c65c6b64bfe7fe36bd19c90930180546001600160a01b0319166001600160a01b039094169390931790925582518084018452600a80825269486173684368616e676560b01b8285015284518086018652928352634558523160e01b838501528451808601909552600c85526b66726f6d207375727665797360a01b9385019390935261111b939092626acfc0610b93565b600580546001600160a01b0319166001600160a01b0392909216919091179055506001919050565b60008060606000806101676001600160a01b031663e0f4059a60e01b89898960405160240161117493929190611bce565b60408051601f198184030181529181526020820180516001600160e01b03166001600160e01b03199094169390931790925290516111b29190611a2a565b6000604051808303816000865af19150503d80600081146111ef576040519150601f19603f3d011682016040523d82523d6000602084013e6111f4565b606091505b50915091508161121757604080516000808252602082019092526015919061122b565b8080602001905181019061122b9190611c01565b60039290920b9a90995090975095505050505050565b6040516001600160a01b038581166024830152848116604483015283166064820152600782900b60848201526000908190819061016790635cfc901160e01b9060a40161042b565b611291611482565b60405180604001604052806112a5866113e0565b81526020016112b4858561141f565b9052949350505050565b600080828061010001516000015160070b60001480156112e857506101008101516040015160070b155b156112fe576101008101516276a7006040909101525b6000806101676001600160a01b03163463ea83f29360e01b886040516024016113279190611d76565b60408051601f198184030181529181526020820180516001600160e01b03166001600160e01b03199094169390931790925290516113659190611a2a565b60006040518083038185875af1925050503d80600081146113a2576040519150601f19603f3d011682016040523d82523d6000602084013e6113a7565b606091505b5091509150816113ba57601560006113ce565b808060200190518101906113ce9190611e82565b60039190910b97909650945050505050565b6000600160008360068111156113f8576113f8611eb9565b600681111561140957611409611eb9565b8152602001908152602001600020549050919050565b6114276114a1565b600183600481111561143b5761143b611eb9565b03611454576001600160a01b03821660208201526103e4565b600483600481111561146857611468611eb9565b036103e4576001600160a01b038216608082015292915050565b60405180604001604052806000815260200161149c6114a1565b905290565b6040518060a0016040528060001515815260200160006001600160a01b03168152602001606081526020016060815260200160006001600160a01b031681525090565b6001600160a01b03811681146114f957600080fd5b50565b634e487b7160e01b600052604160045260246000fd5b604051601f8201601f191681016001600160401b038111828210171561153a5761153a6114fc565b604052919050565b60006001600160401b0382111561155b5761155b6114fc565b5060051b60200190565b600082601f83011261157657600080fd5b81356001600160401b0381111561158f5761158f6114fc565b6115a2601f8201601f1916602001611512565b8181528460208386010111156115b757600080fd5b816020850160208301376000918101602001919091529392505050565b600082601f8301126115e557600080fd5b813560206115fa6115f583611542565b611512565b82815260059290921b8401810191818101908684111561161957600080fd5b8286015b848110156116585780356001600160401b0381111561163c5760008081fd5b61164a8986838b0101611565565b84525091830191830161161d565b509695505050505050565b6000806040838503121561167657600080fd5b8235611681816114e4565b915060208301356001600160401b0381111561169c57600080fd5b6116a8858286016115d4565b9150509250929050565b600080600080608085870312156116c857600080fd5b84356116d3816114e4565b935060208501356116e3816114e4565b925060408501356116f3816114e4565b9396929550929360600135925050565b6000806040838503121561171657600080fd5b50508035926020909101359150565b60008060006060848603121561173a57600080fd5b833592506020840135915060408401356001600160401b0381111561175e57600080fd5b61176a868287016115d4565b9150509250925092565b6000806040838503121561178757600080fd5b8235611792816114e4565b915060208301356001600160401b038111156117ad57600080fd5b6116a885828601611565565b602080825282518282018190526000919060409081850190868401855b8281101561180c576117fc848351805182526020908101516001600160a01b0316910152565b92840192908501906001016117d6565b5091979650505050505050565b8060070b81146114f957600080fd5b60008060006060848603121561183d57600080fd5b8335611848816114e4565b92506020840135611858816114e4565b9150604084013561186881611819565b809150509250925092565b60006020828403121561188557600080fd5b5035919050565b815181526020808301516001600160a01b031690820152604081016103e4565b6020808252825182820181905260009190848201906040850190845b8181101561190b576118f883855180518252602080820151908301526040908101516001600160a01b0316910152565b92840192606092909201916001016118c8565b50909695505050505050565b81518152602080830151908201526040808301516001600160a01b031690820152606081016103e4565b600080600080600060a0868803121561195957600080fd5b85356001600160401b038082111561197057600080fd5b61197c89838a01611565565b9650602088013591508082111561199257600080fd5b61199e89838a01611565565b955060408801359150808211156119b457600080fd5b506119c188828901611565565b93505060608601356119d281611819565b915060808601356119e281611819565b809150509295509295909350565b634e487b7160e01b600052603260045260246000fd5b60005b83811015611a21578181015183820152602001611a09565b50506000910152565b60008251611a3c818460208701611a06565b9190910192915050565b8051600381900b8114611a5857600080fd5b919050565b600060208284031215611a6f57600080fd5b611a7882611a46565b9392505050565b634e487b7160e01b600052601160045260246000fd5b808201808211156103e4576103e4611a7f565b60008151808452611ac0816020860160208601611a06565b601f01601f19169290920160200192915050565b600081518084526020808501808196508360051b8101915082860160005b8581101561180c578284038952611b0a848351611aa8565b98850198935090840190600101611af2565b6001600160a01b038316815260406020820181905260009061091490830184611ad4565b600060208284031215611b5257600080fd5b8151611a7881611819565b600060208284031215611b6f57600080fd5b5051919050565b6001600160a01b038316815260406020820181905260009061091490830184611aa8565b82151581526040602082015260006109146040830184611aa8565b600060018201611bc757611bc7611a7f565b5060010190565b60018060a01b03841681528260070b6020820152606060408201526000611bf86060830184611ad4565b95945050505050565b600080600060608486031215611c1657600080fd5b611c1f84611a46565b9250602080850151611c3081611819565b60408601519093506001600160401b03811115611c4c57600080fd5b8501601f81018713611c5d57600080fd5b8051611c6b6115f582611542565b81815260059190911b82018301908381019089831115611c8a57600080fd5b928401925b82841015611cb1578351611ca281611819565b82529284019290840190611c8f565b80955050505050509250925092565b600081518084526020808501808196508360051b8101915082860160005b8581101561180c57828403895281516040815186528682015191508087870152815115158187015286820151606060018060a01b03808316828a015283850151935060a09250608083818b0152611d3860e08b0186611aa8565b928601518a8403603f1901858c0152929450611d548584611aa8565b9501511660c09890980197909752505098850198935090840190600101611cde565b60208152600082516101606020840152611d94610180840182611aa8565b90506020840151601f1980858403016040860152611db28383611aa8565b925060408601519150611dd060608601836001600160a01b03169052565b6060860151915080858403016080860152611deb8383611aa8565b925060808601519150611e0260a086018315159052565b60a08601519150611e1860c086018360070b9052565b60c086015180151560e0870152915060e08601519150610100818685030181870152611e448484611cc0565b908701518051600790810b61012089015260208201516001600160a01b03166101408901526040820151900b6101608801529093509150610eea9050565b60008060408385031215611e9557600080fd5b611e9e83611a46565b91506020830151611eae816114e4565b809150509250929050565b634e487b7160e01b600052602160045260246000fdfea2646970667358221220ab1666289e02c85bf02df56d83326c4166d50e997842ea326fd80b5d192a0f8264736f6c63430008130033",
    "sourcePath": "/home/drleo/Projects/hackathons/hedera/smart-contracts/contracts/Surveys.sol",
    "compiler": {
        "name": "solc",
        "version": "0.8.19+commit.7dd6d404"
    },
    "functionHashes": {
        "createHash(bytes32,bytes32)": "2b82b9a9",
        "createNft(string,string,string,int64,int64)": "b6c907a6",
        "getAnswer(uint256)": "b5ab58dc",
        "getAnswers()": "c793fcf9",
        "getAuthorSurveys()": "c2e298c1",
        "getBalance()": "12065fe0",
        "getSurvey(uint256)": "89670e15",
        "getSurveys()": "7dec8296",
        "getUserAnswers()": "9524d316",
        "mintNft(address,bytes[])": "0a284cb6",
        "redirectForToken(address,bytes)": "618dc65e",
        "setAnswer(bytes32,bytes32,bytes[])": "30f5ed82",
        "setSurvey(bytes32)": "ce5cb1c6",
        "transferFrom(address,address,address,uint256)": "15dacbea",
        "transferFromNFT(address,address,address,uint256)": "9b23d3d9",
        "transferNft(address,address,int64)": "82b562aa"
    },
    "gasEstimates": {
        "creation": {
            "codeDepositCost": "1588200",
            "executionCost": "infinite",
            "totalCost": "infinite"
        },
        "external": {
            "createHash(bytes32,bytes32)": "544",
            "createNft(string,string,string,int64,int64)": "infinite",
            "getAnswer(uint256)": "9220",
            "getAnswers()": "infinite",
            "getAuthorSurveys()": "infinite",
            "getBalance()": "229",
            "getSurvey(uint256)": "6955",
            "getSurveys()": "infinite",
            "getUserAnswers()": "infinite",
            "mintNft(address,bytes[])": "infinite",
            "redirectForToken(address,bytes)": "infinite",
            "setAnswer(bytes32,bytes32,bytes[])": "infinite",
            "setSurvey(bytes32)": "infinite",
            "transferFrom(address,address,address,uint256)": "infinite",
            "transferFromNFT(address,address,address,uint256)": "infinite",
            "transferNft(address,address,int64)": "infinite"
        },
        "internal": {
            "surveyExist(bytes32)": "infinite"
        }
    }
}