{
    "contractName": "Surveys",
    "abi": [
        {
            "inputs": [
                {
                    "internalType": "address",
                    "name": "_operatorAccountAddresss",
                    "type": "address"
                }
            ],
            "stateMutability": "nonpayable",
            "type": "constructor"
        },
        {
            "anonymous": false,
            "inputs": [
                {
                    "indexed": false,
                    "internalType": "bool",
                    "name": "",
                    "type": "bool"
                },
                {
                    "indexed": false,
                    "internalType": "bytes",
                    "name": "",
                    "type": "bytes"
                }
            ],
            "name": "CallResponseEvent",
            "type": "event"
        },
        {
            "anonymous": false,
            "inputs": [
                {
                    "indexed": false,
                    "internalType": "bool",
                    "name": "send",
                    "type": "bool"
                },
                {
                    "indexed": false,
                    "internalType": "bytes",
                    "name": "data",
                    "type": "bytes"
                }
            ],
            "name": "Response",
            "type": "event"
        },
        {
            "inputs": [
                {
                    "internalType": "address",
                    "name": "_token",
                    "type": "address"
                },
                {
                    "internalType": "uint256",
                    "name": "_serialNumber",
                    "type": "uint256"
                }
            ],
            "name": "approveNft",
            "outputs": [
                {
                    "internalType": "int256",
                    "name": "responseCode",
                    "type": "int256"
                }
            ],
            "stateMutability": "nonpayable",
            "type": "function"
        },
        {
            "inputs": [
                {
                    "internalType": "bytes32",
                    "name": "_a",
                    "type": "bytes32"
                },
                {
                    "internalType": "bytes32",
                    "name": "_b",
                    "type": "bytes32"
                }
            ],
            "name": "createHash",
            "outputs": [
                {
                    "internalType": "bytes32",
                    "name": "",
                    "type": "bytes32"
                }
            ],
            "stateMutability": "pure",
            "type": "function"
        },
        {
            "inputs": [
                {
                    "internalType": "string",
                    "name": "name",
                    "type": "string"
                },
                {
                    "internalType": "string",
                    "name": "symbol",
                    "type": "string"
                },
                {
                    "internalType": "string",
                    "name": "memo",
                    "type": "string"
                },
                {
                    "internalType": "int64",
                    "name": "maxSupply",
                    "type": "int64"
                },
                {
                    "internalType": "int64",
                    "name": "autoRenewPeriod",
                    "type": "int64"
                }
            ],
            "name": "createNft",
            "outputs": [
                {
                    "internalType": "address",
                    "name": "",
                    "type": "address"
                }
            ],
            "stateMutability": "payable",
            "type": "function"
        },
        {
            "inputs": [
                {
                    "internalType": "bytes32",
                    "name": "surveyHash",
                    "type": "bytes32"
                }
            ],
            "name": "getAnswerForSurvey",
            "outputs": [
                {
                    "components": [
                        {
                            "internalType": "bytes32",
                            "name": "surveyHash",
                            "type": "bytes32"
                        },
                        {
                            "internalType": "bytes32",
                            "name": "answerHash",
                            "type": "bytes32"
                        },
                        {
                            "internalType": "address",
                            "name": "userAddress",
                            "type": "address"
                        },
                        {
                            "internalType": "int64",
                            "name": "nftSerial",
                            "type": "int64"
                        }
                    ],
                    "internalType": "struct Surveys.Answer",
                    "name": "",
                    "type": "tuple"
                }
            ],
            "stateMutability": "view",
            "type": "function"
        },
        {
            "inputs": [],
            "name": "getAnswers",
            "outputs": [
                {
                    "components": [
                        {
                            "internalType": "bytes32",
                            "name": "surveyHash",
                            "type": "bytes32"
                        },
                        {
                            "internalType": "bytes32",
                            "name": "answerHash",
                            "type": "bytes32"
                        },
                        {
                            "internalType": "address",
                            "name": "userAddress",
                            "type": "address"
                        },
                        {
                            "internalType": "int64",
                            "name": "nftSerial",
                            "type": "int64"
                        }
                    ],
                    "internalType": "struct Surveys.Answer[]",
                    "name": "",
                    "type": "tuple[]"
                }
            ],
            "stateMutability": "view",
            "type": "function"
        },
        {
            "inputs": [
                {
                    "internalType": "address",
                    "name": "token",
                    "type": "address"
                },
                {
                    "internalType": "uint256",
                    "name": "tokenId",
                    "type": "uint256"
                }
            ],
            "name": "getApprovedNft",
            "outputs": [
                {
                    "internalType": "address",
                    "name": "",
                    "type": "address"
                }
            ],
            "stateMutability": "view",
            "type": "function"
        },
        {
            "inputs": [],
            "name": "getAuthorSurveys",
            "outputs": [
                {
                    "components": [
                        {
                            "internalType": "bytes32",
                            "name": "surveyHash",
                            "type": "bytes32"
                        },
                        {
                            "internalType": "address",
                            "name": "author",
                            "type": "address"
                        },
                        {
                            "internalType": "address",
                            "name": "nftAddress",
                            "type": "address"
                        }
                    ],
                    "internalType": "struct Surveys.Survey[]",
                    "name": "",
                    "type": "tuple[]"
                }
            ],
            "stateMutability": "view",
            "type": "function"
        },
        {
            "inputs": [],
            "name": "getBalance",
            "outputs": [
                {
                    "internalType": "uint256",
                    "name": "",
                    "type": "uint256"
                }
            ],
            "stateMutability": "view",
            "type": "function"
        },
        {
            "inputs": [
                {
                    "internalType": "bytes32",
                    "name": "surveyHash",
                    "type": "bytes32"
                }
            ],
            "name": "getNftAddressForSurveyHash",
            "outputs": [
                {
                    "internalType": "address",
                    "name": "",
                    "type": "address"
                }
            ],
            "stateMutability": "view",
            "type": "function"
        },
        {
            "inputs": [
                {
                    "internalType": "uint256",
                    "name": "_i",
                    "type": "uint256"
                }
            ],
            "name": "getSurvey",
            "outputs": [
                {
                    "components": [
                        {
                            "internalType": "bytes32",
                            "name": "surveyHash",
                            "type": "bytes32"
                        },
                        {
                            "internalType": "address",
                            "name": "author",
                            "type": "address"
                        },
                        {
                            "internalType": "address",
                            "name": "nftAddress",
                            "type": "address"
                        }
                    ],
                    "internalType": "struct Surveys.Survey",
                    "name": "",
                    "type": "tuple"
                }
            ],
            "stateMutability": "view",
            "type": "function"
        },
        {
            "inputs": [],
            "name": "getSurveys",
            "outputs": [
                {
                    "components": [
                        {
                            "internalType": "bytes32",
                            "name": "surveyHash",
                            "type": "bytes32"
                        },
                        {
                            "internalType": "address",
                            "name": "author",
                            "type": "address"
                        },
                        {
                            "internalType": "address",
                            "name": "nftAddress",
                            "type": "address"
                        }
                    ],
                    "internalType": "struct Surveys.Survey[]",
                    "name": "",
                    "type": "tuple[]"
                }
            ],
            "stateMutability": "view",
            "type": "function"
        },
        {
            "inputs": [],
            "name": "getUserAnswers",
            "outputs": [
                {
                    "components": [
                        {
                            "internalType": "bytes32",
                            "name": "surveyHash",
                            "type": "bytes32"
                        },
                        {
                            "internalType": "bytes32",
                            "name": "answerHash",
                            "type": "bytes32"
                        },
                        {
                            "internalType": "address",
                            "name": "userAddress",
                            "type": "address"
                        },
                        {
                            "internalType": "int64",
                            "name": "nftSerial",
                            "type": "int64"
                        }
                    ],
                    "internalType": "struct Surveys.Answer[]",
                    "name": "",
                    "type": "tuple[]"
                }
            ],
            "stateMutability": "view",
            "type": "function"
        },
        {
            "inputs": [
                {
                    "internalType": "address",
                    "name": "token",
                    "type": "address"
                },
                {
                    "internalType": "bytes[]",
                    "name": "metadata",
                    "type": "bytes[]"
                }
            ],
            "name": "mintNft",
            "outputs": [
                {
                    "internalType": "int64",
                    "name": "",
                    "type": "int64"
                }
            ],
            "stateMutability": "payable",
            "type": "function"
        },
        {
            "inputs": [
                {
                    "internalType": "address",
                    "name": "token",
                    "type": "address"
                }
            ],
            "name": "nameOfNft",
            "outputs": [
                {
                    "internalType": "string",
                    "name": "",
                    "type": "string"
                }
            ],
            "stateMutability": "view",
            "type": "function"
        },
        {
            "inputs": [
                {
                    "internalType": "address",
                    "name": "token",
                    "type": "address"
                },
                {
                    "internalType": "uint256",
                    "name": "tokenId",
                    "type": "uint256"
                }
            ],
            "name": "ownerOfNft",
            "outputs": [
                {
                    "internalType": "address",
                    "name": "",
                    "type": "address"
                }
            ],
            "stateMutability": "view",
            "type": "function"
        },
        {
            "inputs": [
                {
                    "internalType": "address",
                    "name": "token",
                    "type": "address"
                },
                {
                    "internalType": "bytes",
                    "name": "encodedFunctionSelector",
                    "type": "bytes"
                }
            ],
            "name": "redirectForToken",
            "outputs": [],
            "stateMutability": "nonpayable",
            "type": "function"
        },
        {
            "inputs": [
                {
                    "internalType": "bytes32",
                    "name": "surveyHash",
                    "type": "bytes32"
                },
                {
                    "internalType": "bytes32",
                    "name": "answerHash",
                    "type": "bytes32"
                },
                {
                    "internalType": "bytes[]",
                    "name": "metadata",
                    "type": "bytes[]"
                }
            ],
            "name": "setAnswer",
            "outputs": [
                {
                    "internalType": "bool",
                    "name": "",
                    "type": "bool"
                }
            ],
            "stateMutability": "payable",
            "type": "function"
        },
        {
            "inputs": [
                {
                    "internalType": "bytes32",
                    "name": "_surveyHash",
                    "type": "bytes32"
                }
            ],
            "name": "setSurvey",
            "outputs": [
                {
                    "internalType": "bool",
                    "name": "",
                    "type": "bool"
                }
            ],
            "stateMutability": "payable",
            "type": "function"
        },
        {
            "inputs": [
                {
                    "internalType": "address",
                    "name": "token",
                    "type": "address"
                }
            ],
            "name": "symbolOfNft",
            "outputs": [
                {
                    "internalType": "string",
                    "name": "",
                    "type": "string"
                }
            ],
            "stateMutability": "view",
            "type": "function"
        },
        {
            "inputs": [
                {
                    "internalType": "address",
                    "name": "token",
                    "type": "address"
                },
                {
                    "internalType": "uint256",
                    "name": "tokenId",
                    "type": "uint256"
                }
            ],
            "name": "tokenURIOfNft",
            "outputs": [
                {
                    "internalType": "string",
                    "name": "",
                    "type": "string"
                }
            ],
            "stateMutability": "view",
            "type": "function"
        },
        {
            "inputs": [
                {
                    "internalType": "address",
                    "name": "token",
                    "type": "address"
                },
                {
                    "internalType": "address",
                    "name": "from",
                    "type": "address"
                },
                {
                    "internalType": "address",
                    "name": "to",
                    "type": "address"
                },
                {
                    "internalType": "uint256",
                    "name": "amount",
                    "type": "uint256"
                }
            ],
            "name": "transferFrom",
            "outputs": [
                {
                    "internalType": "int64",
                    "name": "responseCode",
                    "type": "int64"
                }
            ],
            "stateMutability": "nonpayable",
            "type": "function"
        },
        {
            "inputs": [
                {
                    "internalType": "address",
                    "name": "token",
                    "type": "address"
                },
                {
                    "internalType": "address",
                    "name": "from",
                    "type": "address"
                },
                {
                    "internalType": "address",
                    "name": "to",
                    "type": "address"
                },
                {
                    "internalType": "uint256",
                    "name": "serialNumber",
                    "type": "uint256"
                }
            ],
            "name": "transferFromNFT",
            "outputs": [
                {
                    "internalType": "int64",
                    "name": "responseCode",
                    "type": "int64"
                }
            ],
            "stateMutability": "nonpayable",
            "type": "function"
        },
        {
            "inputs": [
                {
                    "internalType": "address",
                    "name": "_token",
                    "type": "address"
                },
                {
                    "internalType": "int64",
                    "name": "_serial",
                    "type": "int64"
                }
            ],
            "name": "transferNft",
            "outputs": [
                {
                    "internalType": "int256",
                    "name": "",
                    "type": "int256"
                }
            ],
            "stateMutability": "payable",
            "type": "function"
        }
    ],
    "bytecode": "60806040523480156200001157600080fd5b506040516200278d3803806200278d833981016040819052620000349162000164565b600160208181527fa6eef7e35abe7026729641147f7915573c7e97b47efa546f5f6e3230263bcb499190915560027fcc69885fda6bcc1a4ace058b4a62bf5e179ea78fd58a1ccd71c22cc9b688792f81905560047fd9d16d34ffb15ba3a3d852f0d403e2ce1d691fb54de27ac87cd2f993f3ec330f5560087f7dfe757ecd65cbd7922a9c0161e935dd7fdbcc0e999689c7d31633896b1fc60b5560107fedc95719e9a3b28dd8e80877cb5880a9be7de1a13fc8b05e7999683b6b567643557fe2689cd4a84e23ad2f564004f1c9013e9589d260bde6380aba3ca7e09e4df40c91909155600660005260407f8f331abe73332f95a25873e8b430885974c0409691f89d643119a11623a7924a5580546001600160a01b0319166001600160a01b039290921691909117905562000196565b6000602082840312156200017757600080fd5b81516001600160a01b03811681146200018f57600080fd5b9392505050565b6125e780620001a66000396000f3fe6080604052600436106101405760003560e01c80639524d316116100b6578063c793fcf91161006f578063c793fcf9146103b7578063cb417cc2146103cc578063cd7c253e146103ec578063ce25e972146103ff578063ce5cb1c61461041f578063ea03b4d71461043257600080fd5b80639524d316146103005780639b23d3d914610322578063a6cdbdcd14610342578063b6c907a61461036f578063c2e298c114610382578063c4b5fc271461039757600080fd5b8063618dc65e11610108578063618dc65e146102175780637dec82961461023957806389670e151461025b578063899b7898146102885780638bf3a32e146102a857806394496cba146102e057600080fd5b80630a284cb61461014557806312065fe01461017057806315dacbea1461018d5780632b82b9a9146101ad57806330f5ed82146101f4575b600080fd5b610158610153366004611c8e565b61045f565b60405160079190910b81526020015b60405180910390f35b34801561017c57600080fd5b50475b604051908152602001610167565b34801561019957600080fd5b506101586101a8366004611cdd565b6104fd565b3480156101b957600080fd5b5061017f6101c8366004611d2e565b604080516020808201949094528082019290925280518083038201815260609092019052805191012090565b610207610202366004611d50565b6105f1565b6040519015158152602001610167565b34801561022357600080fd5b50610237610232366004611d9f565b610724565b005b34801561024557600080fd5b5061024e610812565b6040516101679190611de4565b34801561026757600080fd5b5061027b610276366004611e55565b610899565b6040516101679190611e6e565b34801561029457600080fd5b5061017f6102a3366004611e9f565b610915565b3480156102b457600080fd5b506102c86102c3366004611e9f565b610982565b6040516001600160a01b039091168152602001610167565b3480156102ec57600080fd5b506102c86102fb366004611e55565b6109f6565b34801561030c57600080fd5b50610315610a7d565b6040516101679190611ecb565b34801561032e57600080fd5b5061015861033d366004611cdd565b610bee565b34801561034e57600080fd5b5061036261035d366004611f37565b610c33565b6040516101679190611fa4565b6102c861037d366004611fc6565b610c9b565b34801561038e57600080fd5b5061024e610f4f565b3480156103a357600080fd5b506103626103b2366004611f37565b611116565b3480156103c357600080fd5b50610315611156565b3480156103d857600080fd5b506103626103e7366004611e9f565b6111e0565b61017f6103fa366004612075565b611250565b34801561040b57600080fd5b506102c861041a366004611e9f565b6112cb565b61020761042d366004611e55565b6112fb565b34801561043e57600080fd5b5061045261044d366004611e55565b61141e565b60405161016791906120ae565b6000806000610470856000866115b8565b9250509150601660030b82146104d75760405162461bcd60e51b815260206004820152602160248201527f4661696c656420746f206d696e74206e6f6e2d66756e6769626c6520746f6b656044820152603760f91b60648201526084015b60405180910390fd5b806000815181106104ea576104ea6120e5565b6020026020010151925050505b92915050565b6040516001600160a01b038581166024830152848116604483015283166064820152608481018290526000908190819061016790630aed65f560e11b9060a4015b60408051601f198184030181529181526020820180516001600160e01b03166001600160e01b031990941693909317909252905161057c91906120fb565b6000604051808303816000865af19150503d80600081146105b9576040519150601f19603f3d011682016040523d82523d6000602084013e6105be565b606091505b5091509150816105cf5760156105e3565b808060200190518101906105e3919061212e565b60030b979650505050505050565b3360009081526003602052604081208054349190839061061290849061215f565b9091555060009050610623856109f6565b90506000610631828561045f565b60408051608081018252888152602081018881523392820192835260079390930b606082019081526005805460018181018355600092909252925160039093027f036b6384b5eca791c62761152d0c79bb0604c104a5fb6f4eb0703f3154bb3db081019390935593517f036b6384b5eca791c62761152d0c79bb0604c104a5fb6f4eb0703f3154bb3db183015591517f036b6384b5eca791c62761152d0c79bb0604c104a5fb6f4eb0703f3154bb3db2909101805492516001600160401b0316600160a01b026001600160e01b03199093166001600160a01b039290921691909117919091179055925050509392505050565b6000806101676001600160a01b031663618dc65e60e01b858560405160240161074e929190612172565b60408051601f198184030181529181526020820180516001600160e01b03166001600160e01b031990941693909317909252905161078c91906120fb565b6000604051808303816000865af19150503d80600081146107c9576040519150601f19603f3d011682016040523d82523d6000602084013e6107ce565b606091505b50915091507f4af4780e06fe8cb9df64b0794fa6f01399af979175bb988e35e0e57e594567bc828260405161080492919061219e565b60405180910390a150505050565b60606004805480602002602001604051908101604052809291908181526020016000905b828210156108905760008481526020908190206040805160608101825260038602909201805483526001808201546001600160a01b0390811685870152600290920154909116918301919091529083529092019101610836565b50505050905090565b6040805160608101825260008082526020820181905291810191909152600482815481106108c9576108c96120e5565b60009182526020918290206040805160608101825260039093029091018054835260018101546001600160a01b0390811694840194909452600201549092169181019190915292915050565b60006109228333846116b6565b9050601681146104f75760405162461bcd60e51b815260206004820152602560248201527f4661696c656420746f20617070726f7665206e6f6e2d66756e676962696c65206044820152643a37b5b2b760d91b60648201526084016104ce565b60405163020604bf60e21b8152600481018290526000906001600160a01b0384169063081812fc906024015b602060405180830381865afa1580156109cb573d6000803e3d6000fd5b505050506040513d601f19601f820116820180604052508101906109ef91906121b9565b9392505050565b60008060005b600454811015610a76578360048281548110610a1a57610a1a6120e5565b90600052602060002090600302016000015403610a645760048181548110610a4457610a446120e5565b60009182526020909120600260039092020101546001600160a01b031691505b80610a6e816121d6565b9150506109fc565b5092915050565b6005546060906000906001600160401b03811115610a9d57610a9d611b1e565b604051908082528060200260200182016040528015610aef57816020015b604080516080810182526000808252602080830182905292820181905260608201528252600019909201910181610abb5790505b5090506000805b600554811015610be657336001600160a01b031660058281548110610b1d57610b1d6120e5565b60009182526020909120600260039092020101546001600160a01b031603610bd45760058181548110610b5257610b526120e5565b6000918252602091829020604080516080810182526003909302909101805483526001810154938301939093526002909201546001600160a01b03811692820192909252600160a01b90910460070b60608201528351849084908110610bba57610bba6120e5565b60200260200101819052508180610bd0906121d6565b9250505b80610bde816121d6565b915050610af6565b509092915050565b6040516001600160a01b038581166024830152848116604483015283166064820152608481018290526000908190819061016790639b23d3d960e01b9060a40161053e565b6060816001600160a01b03166306fdde036040518163ffffffff1660e01b8152600401600060405180830381865afa158015610c73573d6000803e3d6000fd5b505050506040513d6000823e601f3d908101601f191682016040526104f791908101906121ef565b6040805160078082526101008201909252600091829190816020015b610cbf611aa4565b815260200190600190039081610cb7579050509050610ce1600060013061178f565b81600081518110610cf457610cf46120e5565b6020026020010181905250610d0c600460013061178f565b81600181518110610d1f57610d1f6120e5565b6020026020010181905250610d37600260013061178f565b81600281518110610d4a57610d4a6120e5565b6020026020010181905250610d62600560013061178f565b81600381518110610d7557610d756120e5565b6020026020010181905250610d8c6001803061178f565b81600481518110610d9f57610d9f6120e5565b6020026020010181905250610db7600660013061178f565b81600581518110610dca57610dca6120e5565b6020026020010181905250610de2600360013061178f565b81600681518110610df557610df56120e5565b6020026020010181905250610e6660408051610120810182526060808252602080830182905260008385018190528284018390526080840181905260a0840181905260c0840181905260e0840183905284519283018552808352908201819052928101929092529061010082015290565b8781526020810187905260608101869052306040820181905260016080830152600786900b60a083015260e08201839052600060c0830152610ecf908560408051606081018252600081526001600160a01b0393909316602084015260079190910b9082015290565b610100820152600080610ee1836117c4565b909250905060168214610f425760405162461bcd60e51b815260206004820152602360248201527f4661696c656420746f20637265617465206e6f6e2d66756e6769626c6520746f60448201526235b2b760e91b60648201526084016104ce565b9998505050505050505050565b606060008060005b600454811015610fc057336001600160a01b031660048281548110610f7e57610f7e6120e5565b60009182526020909120600160039092020101546001600160a01b031603610fae5781610faa816121d6565b9250505b80610fb8816121d6565b915050610f57565b506000816001600160401b03811115610fdb57610fdb611b1e565b60405190808252806020026020018201604052801561102657816020015b6040805160608101825260008082526020808301829052928201528252600019909201910181610ff95790505b50905060005b60045481101561110e57336001600160a01b031660048281548110611053576110536120e5565b60009182526020909120600160039092020101546001600160a01b0316036110fc5760048181548110611088576110886120e5565b60009182526020918290206040805160608101825260039093029091018054835260018101546001600160a01b0390811694840194909452600201549092169181019190915282518390869081106110e2576110e26120e5565b602002602001018190525083806110f8906121d6565b9450505b80611106816121d6565b91505061102c565b509392505050565b6060816001600160a01b03166395d89b416040518163ffffffff1660e01b8152600401600060405180830381865afa158015610c73573d6000803e3d6000fd5b60606005805480602002602001604051908101604052809291908181526020016000905b82821015610890576000848152602090819020604080516080810182526003860290920180548352600180820154848601526002909101546001600160a01b03811692840192909252600160a01b90910460070b6060830152908352909201910161117a565b60405163c87b56dd60e01b8152600481018290526060906001600160a01b0384169063c87b56dd90602401600060405180830381865afa158015611228573d6000803e3d6000fd5b505050506040513d6000823e601f3d908101601f191682016040526109ef91908101906121ef565b600061125c33846118e6565b50600061126b843033866119ba565b9050601681146109ef5760405162461bcd60e51b815260206004820152602560248201527f4661696c656420746f207472616e73666572206e6f6e2d66756e6769626c65206044820152643a37b5b2b760d91b60648201526084016104ce565b6040516331a9108f60e11b8152600481018290526000906001600160a01b03841690636352211e906024016109ae565b3360009081526003602052604081208054349190839061131c90849061215f565b9250508190555060046040518060600160405280848152602001336001600160a01b031681526020016113b86040518060400160405280600a815260200169486173684368616e676560b01b815250604051806040016040528060048152602001634558523160e01b8152506040518060400160405280600c81526020016b66726f6d207375727665797360a01b815250600a626acfc0610c9b565b6001600160a01b03908116909152825460018082018555600094855260209485902084516003909302019182559383015181850180546001600160a01b031990811692851692909217905560409093015160029091018054909316911617905592915050565b6040805160808101825260008082526020820181905291810182905260608101919091526005546000906001600160401b0381111561145f5761145f611b1e565b6040519080825280602002602001820160405280156114b157816020015b60408051608081018252600080825260208083018290529282018190526060820152825260001990920191018161147d5790505b50905060005b6005548110156115b157336001600160a01b0316600582815481106114de576114de6120e5565b60009182526020909120600260039092020101546001600160a01b031614801561152b57508360058281548110611517576115176120e5565b906000526020600020906003020160000154145b1561159f5760058181548110611543576115436120e5565b6000918252602091829020604080516080810182526003909302909101805483526001810154938301939093526002909201546001600160a01b03811692820192909252600160a01b90910460070b6060820152949350505050565b806115a9816121d6565b9150506114b7565b5050919050565b60008060606000806101676001600160a01b031663e0f4059a60e01b8989896040516024016115e993929190612265565b60408051601f198184030181529181526020820180516001600160e01b03166001600160e01b031990941693909317909252905161162791906120fb565b6000604051808303816000865af19150503d8060008114611664576040519150601f19603f3d011682016040523d82523d6000602084013e611669565b606091505b50915091508161168c5760408051600080825260208201909252601591906116a0565b808060200190518101906116a091906122e1565b60039290920b9a90995090975095505050505050565b604080516001600160a01b03858116602483015284166044820152606480820184905282518083039091018152608490910182526020810180516001600160e01b03166307336aaf60e41b1790529051600091829182916101679161171b91906120fb565b6000604051808303816000865af19150503d8060008114611758576040519150601f19603f3d011682016040523d82523d6000602084013e61175d565b606091505b50915091508161176e576015611782565b80806020019051810190611782919061212e565b60030b9695505050505050565b611797611aa4565b60405180604001604052806117ab86611a02565b81526020016117ba8585611a41565b9052949350505050565b600080828061010001516000015160070b60001480156117ee57506101008101516040015160070b155b15611804576101008101516276a7006040909101525b6000806101676001600160a01b03163463ea83f29360e01b8860405160240161182d9190612463565b60408051601f198184030181529181526020820180516001600160e01b03166001600160e01b031990941693909317909252905161186b91906120fb565b60006040518083038185875af1925050503d80600081146118a8576040519150601f19603f3d011682016040523d82523d6000602084013e6118ad565b606091505b5091509150816118c057601560006118d4565b808060200190518101906118d4919061256f565b60039190910b97909650945050505050565b604080516001600160a01b038481166024830152831660448083019190915282518083039091018152606490910182526020810180516001600160e01b031663248a35ef60e11b1790529051600091829182916101679161194791906120fb565b6000604051808303816000865af19150503d8060008114611984576040519150601f19603f3d011682016040523d82523d6000602084013e611989565b606091505b50915091508161199a5760156119ae565b808060200190518101906119ae919061212e565b60030b95945050505050565b6040516001600160a01b038581166024830152848116604483015283166064820152600782900b60848201526000908190819061016790635cfc901160e01b9060a40161053e565b600060016000836006811115611a1a57611a1a61259b565b6006811115611a2b57611a2b61259b565b8152602001908152602001600020549050919050565b611a49611ac3565b6001836004811115611a5d57611a5d61259b565b03611a76576001600160a01b03821660208201526104f7565b6004836004811115611a8a57611a8a61259b565b036104f7576001600160a01b038216608082015292915050565b604051806040016040528060008152602001611abe611ac3565b905290565b6040518060a0016040528060001515815260200160006001600160a01b03168152602001606081526020016060815260200160006001600160a01b031681525090565b6001600160a01b0381168114611b1b57600080fd5b50565b634e487b7160e01b600052604160045260246000fd5b604051601f8201601f191681016001600160401b0381118282101715611b5c57611b5c611b1e565b604052919050565b60006001600160401b03821115611b7d57611b7d611b1e565b5060051b60200190565b60006001600160401b03821115611ba057611ba0611b1e565b50601f01601f191660200190565b600082601f830112611bbf57600080fd5b8135611bd2611bcd82611b87565b611b34565b818152846020838601011115611be757600080fd5b816020850160208301376000918101602001919091529392505050565b600082601f830112611c1557600080fd5b81356020611c25611bcd83611b64565b82815260059290921b84018101918181019086841115611c4457600080fd5b8286015b84811015611c835780356001600160401b03811115611c675760008081fd5b611c758986838b0101611bae565b845250918301918301611c48565b509695505050505050565b60008060408385031215611ca157600080fd5b8235611cac81611b06565b915060208301356001600160401b03811115611cc757600080fd5b611cd385828601611c04565b9150509250929050565b60008060008060808587031215611cf357600080fd5b8435611cfe81611b06565b93506020850135611d0e81611b06565b92506040850135611d1e81611b06565b9396929550929360600135925050565b60008060408385031215611d4157600080fd5b50508035926020909101359150565b600080600060608486031215611d6557600080fd5b833592506020840135915060408401356001600160401b03811115611d8957600080fd5b611d9586828701611c04565b9150509250925092565b60008060408385031215611db257600080fd5b8235611dbd81611b06565b915060208301356001600160401b03811115611dd857600080fd5b611cd385828601611bae565b6020808252825182820181905260009190848201906040850190845b81811015611e4957611e36838551805182526020808201516001600160a01b039081169184019190915260409182015116910152565b9284019260609290920191600101611e00565b50909695505050505050565b600060208284031215611e6757600080fd5b5035919050565b606081016104f78284805182526020808201516001600160a01b039081169184019190915260409182015116910152565b60008060408385031215611eb257600080fd5b8235611ebd81611b06565b946020939093013593505050565b6020808252825182820181905260009190848201906040850190845b81811015611e4957611f2483855180518252602080820151908301526040808201516001600160a01b03169083015260609081015160070b910152565b9284019260809290920191600101611ee7565b600060208284031215611f4957600080fd5b81356109ef81611b06565b60005b83811015611f6f578181015183820152602001611f57565b50506000910152565b60008151808452611f90816020860160208601611f54565b601f01601f19169290920160200192915050565b6020815260006109ef6020830184611f78565b8060070b8114611b1b57600080fd5b600080600080600060a08688031215611fde57600080fd5b85356001600160401b0380821115611ff557600080fd5b61200189838a01611bae565b9650602088013591508082111561201757600080fd5b61202389838a01611bae565b9550604088013591508082111561203957600080fd5b5061204688828901611bae565b935050606086013561205781611fb7565b9150608086013561206781611fb7565b809150509295509295909350565b6000806040838503121561208857600080fd5b823561209381611b06565b915060208301356120a381611fb7565b809150509250929050565b81518152602080830151908201526040808301516001600160a01b03169082015260608083015160070b90820152608081016104f7565b634e487b7160e01b600052603260045260246000fd5b6000825161210d818460208701611f54565b9190910192915050565b8051600381900b811461212957600080fd5b919050565b60006020828403121561214057600080fd5b6109ef82612117565b634e487b7160e01b600052601160045260246000fd5b808201808211156104f7576104f7612149565b6001600160a01b038316815260406020820181905260009061219690830184611f78565b949350505050565b82151581526040602082015260006121966040830184611f78565b6000602082840312156121cb57600080fd5b81516109ef81611b06565b6000600182016121e8576121e8612149565b5060010190565b60006020828403121561220157600080fd5b81516001600160401b0381111561221757600080fd5b8201601f8101841361222857600080fd5b8051612236611bcd82611b87565b81815285602083850101111561224b57600080fd5b61225c826020830160208601611f54565b95945050505050565b60006060820160018060a01b038616835260208560070b818501526060604085015281855180845260808601915060808160051b870101935082870160005b828110156122d257607f198887030184526122c0868351611f78565b955092840192908401906001016122a4565b50939998505050505050505050565b6000806000606084860312156122f657600080fd5b6122ff84612117565b925060208085015161231081611fb7565b60408601519093506001600160401b0381111561232c57600080fd5b8501601f8101871361233d57600080fd5b805161234b611bcd82611b64565b81815260059190911b8201830190838101908983111561236a57600080fd5b928401925b8284101561239157835161238281611fb7565b8252928401929084019061236f565b80955050505050509250925092565b600081518084526020808501808196508360051b8101915082860160005b8581101561245657828403895281516040815186528682015191508087870152815115158187015286820151606060018060a01b03808316828a015283850151935060a09250608083818b015261241860e08b0186611f78565b928601518a8403603f1901858c01529294506124348584611f78565b9501511660c098909801979097525050988501989350908401906001016123be565b5091979650505050505050565b60208152600082516101606020840152612481610180840182611f78565b90506020840151601f198085840301604086015261249f8383611f78565b9250604086015191506124bd60608601836001600160a01b03169052565b60608601519150808584030160808601526124d88383611f78565b9250608086015191506124ef60a086018315159052565b60a0860151915061250560c086018360070b9052565b60c086015180151560e0870152915060e0860151915061010081868503018187015261253184846123a0565b908701518051600790810b61012089015260208201516001600160a01b03166101408901526040820151900b610160880152909350915061110e9050565b6000806040838503121561258257600080fd5b61258b83612117565b915060208301516120a381611b06565b634e487b7160e01b600052602160045260246000fdfea26469706673582212200dc8aedfd82946148981ab8f248d746de749c549a8f2e92df5931f1133fe0ab864736f6c63430008130033",
    "sourcePath": "/home/drleo/Projects/hackathons/hedera/smart-contracts/contracts/Surveys.sol",
    "compiler": {
        "name": "solc",
        "version": "0.8.19+commit.7dd6d404"
    },
    "functionHashes": {
        "approveNft(address,uint256)": "899b7898",
        "createHash(bytes32,bytes32)": "2b82b9a9",
        "createNft(string,string,string,int64,int64)": "b6c907a6",
        "getAnswerForSurvey(bytes32)": "ea03b4d7",
        "getAnswers()": "c793fcf9",
        "getApprovedNft(address,uint256)": "8bf3a32e",
        "getAuthorSurveys()": "c2e298c1",
        "getBalance()": "12065fe0",
        "getNftAddressForSurveyHash(bytes32)": "94496cba",
        "getSurvey(uint256)": "89670e15",
        "getSurveys()": "7dec8296",
        "getUserAnswers()": "9524d316",
        "mintNft(address,bytes[])": "0a284cb6",
        "nameOfNft(address)": "a6cdbdcd",
        "ownerOfNft(address,uint256)": "ce25e972",
        "redirectForToken(address,bytes)": "618dc65e",
        "setAnswer(bytes32,bytes32,bytes[])": "30f5ed82",
        "setSurvey(bytes32)": "ce5cb1c6",
        "symbolOfNft(address)": "c4b5fc27",
        "tokenURIOfNft(address,uint256)": "cb417cc2",
        "transferFrom(address,address,address,uint256)": "15dacbea",
        "transferFromNFT(address,address,address,uint256)": "9b23d3d9",
        "transferNft(address,int64)": "cd7c253e"
    },
    "gasEstimates": {
        "creation": {
            "codeDepositCost": "1940600",
            "executionCost": "infinite",
            "totalCost": "infinite"
        },
        "external": {
            "approveNft(address,uint256)": "infinite",
            "createHash(bytes32,bytes32)": "544",
            "createNft(string,string,string,int64,int64)": "infinite",
            "getAnswerForSurvey(bytes32)": "infinite",
            "getAnswers()": "infinite",
            "getApprovedNft(address,uint256)": "infinite",
            "getAuthorSurveys()": "infinite",
            "getBalance()": "229",
            "getNftAddressForSurveyHash(bytes32)": "infinite",
            "getSurvey(uint256)": "9228",
            "getSurveys()": "infinite",
            "getUserAnswers()": "infinite",
            "mintNft(address,bytes[])": "infinite",
            "nameOfNft(address)": "infinite",
            "ownerOfNft(address,uint256)": "infinite",
            "redirectForToken(address,bytes)": "infinite",
            "setAnswer(bytes32,bytes32,bytes[])": "infinite",
            "setSurvey(bytes32)": "infinite",
            "symbolOfNft(address)": "infinite",
            "tokenURIOfNft(address,uint256)": "infinite",
            "transferFrom(address,address,address,uint256)": "infinite",
            "transferFromNFT(address,address,address,uint256)": "infinite",
            "transferNft(address,int64)": "infinite"
        },
        "internal": {
            "surveyExist(bytes32)": "infinite"
        }
    }
}