{
    "contractName": "Surveys",
    "abi": [
        {
            "inputs": [
                {
                    "internalType": "address",
                    "name": "_operatorAccountAddresss",
                    "type": "address"
                }
            ],
            "stateMutability": "nonpayable",
            "type": "constructor"
        },
        {
            "anonymous": false,
            "inputs": [
                {
                    "indexed": false,
                    "internalType": "bool",
                    "name": "",
                    "type": "bool"
                },
                {
                    "indexed": false,
                    "internalType": "bytes",
                    "name": "",
                    "type": "bytes"
                }
            ],
            "name": "CallResponseEvent",
            "type": "event"
        },
        {
            "anonymous": false,
            "inputs": [
                {
                    "indexed": false,
                    "internalType": "bool",
                    "name": "send",
                    "type": "bool"
                },
                {
                    "indexed": false,
                    "internalType": "bytes",
                    "name": "data",
                    "type": "bytes"
                }
            ],
            "name": "Response",
            "type": "event"
        },
        {
            "inputs": [
                {
                    "internalType": "address",
                    "name": "_token",
                    "type": "address"
                },
                {
                    "internalType": "uint256",
                    "name": "_serialNumber",
                    "type": "uint256"
                }
            ],
            "name": "approveNft",
            "outputs": [
                {
                    "internalType": "int256",
                    "name": "responseCode",
                    "type": "int256"
                }
            ],
            "stateMutability": "nonpayable",
            "type": "function"
        },
        {
            "inputs": [
                {
                    "internalType": "address",
                    "name": "token",
                    "type": "address"
                }
            ],
            "name": "associate",
            "outputs": [
                {
                    "internalType": "int256",
                    "name": "responseCode",
                    "type": "int256"
                }
            ],
            "stateMutability": "payable",
            "type": "function"
        },
        {
            "inputs": [
                {
                    "internalType": "bytes32",
                    "name": "_a",
                    "type": "bytes32"
                },
                {
                    "internalType": "bytes32",
                    "name": "_b",
                    "type": "bytes32"
                }
            ],
            "name": "createHash",
            "outputs": [
                {
                    "internalType": "bytes32",
                    "name": "",
                    "type": "bytes32"
                }
            ],
            "stateMutability": "pure",
            "type": "function"
        },
        {
            "inputs": [
                {
                    "internalType": "string",
                    "name": "name",
                    "type": "string"
                },
                {
                    "internalType": "string",
                    "name": "symbol",
                    "type": "string"
                },
                {
                    "internalType": "string",
                    "name": "memo",
                    "type": "string"
                },
                {
                    "internalType": "int64",
                    "name": "maxSupply",
                    "type": "int64"
                },
                {
                    "internalType": "int64",
                    "name": "autoRenewPeriod",
                    "type": "int64"
                }
            ],
            "name": "createNft",
            "outputs": [
                {
                    "internalType": "address",
                    "name": "",
                    "type": "address"
                }
            ],
            "stateMutability": "payable",
            "type": "function"
        },
        {
            "inputs": [
                {
                    "internalType": "bytes32",
                    "name": "surveyHash",
                    "type": "bytes32"
                }
            ],
            "name": "getAnswerForSurvey",
            "outputs": [
                {
                    "components": [
                        {
                            "internalType": "bytes32",
                            "name": "surveyHash",
                            "type": "bytes32"
                        },
                        {
                            "internalType": "bytes32",
                            "name": "answerHash",
                            "type": "bytes32"
                        },
                        {
                            "internalType": "address",
                            "name": "userAddress",
                            "type": "address"
                        },
                        {
                            "internalType": "int64",
                            "name": "nftSerial",
                            "type": "int64"
                        }
                    ],
                    "internalType": "struct Surveys.Answer[]",
                    "name": "",
                    "type": "tuple[]"
                }
            ],
            "stateMutability": "view",
            "type": "function"
        },
        {
            "inputs": [],
            "name": "getAnswers",
            "outputs": [
                {
                    "components": [
                        {
                            "internalType": "bytes32",
                            "name": "surveyHash",
                            "type": "bytes32"
                        },
                        {
                            "internalType": "bytes32",
                            "name": "answerHash",
                            "type": "bytes32"
                        },
                        {
                            "internalType": "address",
                            "name": "userAddress",
                            "type": "address"
                        },
                        {
                            "internalType": "int64",
                            "name": "nftSerial",
                            "type": "int64"
                        }
                    ],
                    "internalType": "struct Surveys.Answer[]",
                    "name": "",
                    "type": "tuple[]"
                }
            ],
            "stateMutability": "view",
            "type": "function"
        },
        {
            "inputs": [
                {
                    "internalType": "address",
                    "name": "token",
                    "type": "address"
                },
                {
                    "internalType": "uint256",
                    "name": "tokenId",
                    "type": "uint256"
                }
            ],
            "name": "getApprovedNft",
            "outputs": [
                {
                    "internalType": "address",
                    "name": "",
                    "type": "address"
                }
            ],
            "stateMutability": "view",
            "type": "function"
        },
        {
            "inputs": [],
            "name": "getAuthorSurveys",
            "outputs": [
                {
                    "components": [
                        {
                            "internalType": "bytes32",
                            "name": "surveyHash",
                            "type": "bytes32"
                        },
                        {
                            "internalType": "address",
                            "name": "author",
                            "type": "address"
                        },
                        {
                            "internalType": "address",
                            "name": "nftAddress",
                            "type": "address"
                        }
                    ],
                    "internalType": "struct Surveys.Survey[]",
                    "name": "",
                    "type": "tuple[]"
                }
            ],
            "stateMutability": "view",
            "type": "function"
        },
        {
            "inputs": [],
            "name": "getBalance",
            "outputs": [
                {
                    "internalType": "uint256",
                    "name": "",
                    "type": "uint256"
                }
            ],
            "stateMutability": "view",
            "type": "function"
        },
        {
            "inputs": [
                {
                    "internalType": "bytes32",
                    "name": "surveyHash",
                    "type": "bytes32"
                }
            ],
            "name": "getNftAddressForSurveyHash",
            "outputs": [
                {
                    "internalType": "address",
                    "name": "",
                    "type": "address"
                }
            ],
            "stateMutability": "view",
            "type": "function"
        },
        {
            "inputs": [
                {
                    "internalType": "uint256",
                    "name": "_i",
                    "type": "uint256"
                }
            ],
            "name": "getSurvey",
            "outputs": [
                {
                    "components": [
                        {
                            "internalType": "bytes32",
                            "name": "surveyHash",
                            "type": "bytes32"
                        },
                        {
                            "internalType": "address",
                            "name": "author",
                            "type": "address"
                        },
                        {
                            "internalType": "address",
                            "name": "nftAddress",
                            "type": "address"
                        }
                    ],
                    "internalType": "struct Surveys.Survey",
                    "name": "",
                    "type": "tuple"
                }
            ],
            "stateMutability": "view",
            "type": "function"
        },
        {
            "inputs": [],
            "name": "getSurveys",
            "outputs": [
                {
                    "components": [
                        {
                            "internalType": "bytes32",
                            "name": "surveyHash",
                            "type": "bytes32"
                        },
                        {
                            "internalType": "address",
                            "name": "author",
                            "type": "address"
                        },
                        {
                            "internalType": "address",
                            "name": "nftAddress",
                            "type": "address"
                        }
                    ],
                    "internalType": "struct Surveys.Survey[]",
                    "name": "",
                    "type": "tuple[]"
                }
            ],
            "stateMutability": "view",
            "type": "function"
        },
        {
            "inputs": [],
            "name": "getUserAnswers",
            "outputs": [
                {
                    "components": [
                        {
                            "internalType": "bytes32",
                            "name": "surveyHash",
                            "type": "bytes32"
                        },
                        {
                            "internalType": "bytes32",
                            "name": "answerHash",
                            "type": "bytes32"
                        },
                        {
                            "internalType": "address",
                            "name": "userAddress",
                            "type": "address"
                        },
                        {
                            "internalType": "int64",
                            "name": "nftSerial",
                            "type": "int64"
                        }
                    ],
                    "internalType": "struct Surveys.Answer[]",
                    "name": "",
                    "type": "tuple[]"
                }
            ],
            "stateMutability": "view",
            "type": "function"
        },
        {
            "inputs": [
                {
                    "internalType": "address",
                    "name": "token",
                    "type": "address"
                },
                {
                    "internalType": "bytes[]",
                    "name": "metadata",
                    "type": "bytes[]"
                }
            ],
            "name": "mintNft",
            "outputs": [
                {
                    "internalType": "int64",
                    "name": "",
                    "type": "int64"
                }
            ],
            "stateMutability": "payable",
            "type": "function"
        },
        {
            "inputs": [
                {
                    "internalType": "address",
                    "name": "token",
                    "type": "address"
                }
            ],
            "name": "nameOfNft",
            "outputs": [
                {
                    "internalType": "string",
                    "name": "",
                    "type": "string"
                }
            ],
            "stateMutability": "view",
            "type": "function"
        },
        {
            "inputs": [
                {
                    "internalType": "address",
                    "name": "token",
                    "type": "address"
                },
                {
                    "internalType": "uint256",
                    "name": "tokenId",
                    "type": "uint256"
                }
            ],
            "name": "ownerOfNft",
            "outputs": [
                {
                    "internalType": "address",
                    "name": "",
                    "type": "address"
                }
            ],
            "stateMutability": "view",
            "type": "function"
        },
        {
            "inputs": [
                {
                    "internalType": "address",
                    "name": "token",
                    "type": "address"
                },
                {
                    "internalType": "bytes",
                    "name": "encodedFunctionSelector",
                    "type": "bytes"
                }
            ],
            "name": "redirectForToken",
            "outputs": [],
            "stateMutability": "nonpayable",
            "type": "function"
        },
        {
            "inputs": [
                {
                    "internalType": "bytes32",
                    "name": "surveyHash",
                    "type": "bytes32"
                },
                {
                    "internalType": "bytes32",
                    "name": "answerHash",
                    "type": "bytes32"
                },
                {
                    "internalType": "bytes[]",
                    "name": "metadata",
                    "type": "bytes[]"
                }
            ],
            "name": "setAnswer",
            "outputs": [
                {
                    "internalType": "bool",
                    "name": "",
                    "type": "bool"
                }
            ],
            "stateMutability": "payable",
            "type": "function"
        },
        {
            "inputs": [
                {
                    "internalType": "bytes32",
                    "name": "surveyHash",
                    "type": "bytes32"
                },
                {
                    "internalType": "int64",
                    "name": "nrOfTokens",
                    "type": "int64"
                }
            ],
            "name": "setSurvey",
            "outputs": [
                {
                    "internalType": "bool",
                    "name": "",
                    "type": "bool"
                }
            ],
            "stateMutability": "payable",
            "type": "function"
        },
        {
            "inputs": [
                {
                    "internalType": "address",
                    "name": "token",
                    "type": "address"
                }
            ],
            "name": "symbolOfNft",
            "outputs": [
                {
                    "internalType": "string",
                    "name": "",
                    "type": "string"
                }
            ],
            "stateMutability": "view",
            "type": "function"
        },
        {
            "inputs": [
                {
                    "internalType": "address",
                    "name": "token",
                    "type": "address"
                },
                {
                    "internalType": "uint256",
                    "name": "tokenId",
                    "type": "uint256"
                }
            ],
            "name": "tokenURIOfNft",
            "outputs": [
                {
                    "internalType": "string",
                    "name": "",
                    "type": "string"
                }
            ],
            "stateMutability": "view",
            "type": "function"
        },
        {
            "inputs": [
                {
                    "internalType": "address",
                    "name": "token",
                    "type": "address"
                },
                {
                    "internalType": "address",
                    "name": "from",
                    "type": "address"
                },
                {
                    "internalType": "address",
                    "name": "to",
                    "type": "address"
                },
                {
                    "internalType": "uint256",
                    "name": "amount",
                    "type": "uint256"
                }
            ],
            "name": "transferFrom",
            "outputs": [
                {
                    "internalType": "int64",
                    "name": "responseCode",
                    "type": "int64"
                }
            ],
            "stateMutability": "nonpayable",
            "type": "function"
        },
        {
            "inputs": [
                {
                    "internalType": "address",
                    "name": "token",
                    "type": "address"
                },
                {
                    "internalType": "address",
                    "name": "from",
                    "type": "address"
                },
                {
                    "internalType": "address",
                    "name": "to",
                    "type": "address"
                },
                {
                    "internalType": "uint256",
                    "name": "serialNumber",
                    "type": "uint256"
                }
            ],
            "name": "transferFromNFT",
            "outputs": [
                {
                    "internalType": "int64",
                    "name": "responseCode",
                    "type": "int64"
                }
            ],
            "stateMutability": "nonpayable",
            "type": "function"
        },
        {
            "inputs": [
                {
                    "internalType": "address",
                    "name": "_token",
                    "type": "address"
                },
                {
                    "internalType": "int64",
                    "name": "_serial",
                    "type": "int64"
                }
            ],
            "name": "transferNft",
            "outputs": [
                {
                    "internalType": "int256",
                    "name": "",
                    "type": "int256"
                }
            ],
            "stateMutability": "payable",
            "type": "function"
        }
    ],
    "bytecode": "60806040523480156200001157600080fd5b506040516200276138038062002761833981016040819052620000349162000164565b600160208181527fa6eef7e35abe7026729641147f7915573c7e97b47efa546f5f6e3230263bcb499190915560027fcc69885fda6bcc1a4ace058b4a62bf5e179ea78fd58a1ccd71c22cc9b688792f81905560047fd9d16d34ffb15ba3a3d852f0d403e2ce1d691fb54de27ac87cd2f993f3ec330f5560087f7dfe757ecd65cbd7922a9c0161e935dd7fdbcc0e999689c7d31633896b1fc60b5560107fedc95719e9a3b28dd8e80877cb5880a9be7de1a13fc8b05e7999683b6b567643557fe2689cd4a84e23ad2f564004f1c9013e9589d260bde6380aba3ca7e09e4df40c91909155600660005260407f8f331abe73332f95a25873e8b430885974c0409691f89d643119a11623a7924a5580546001600160a01b0319166001600160a01b039290921691909117905562000196565b6000602082840312156200017757600080fd5b81516001600160a01b03811681146200018f57600080fd5b9392505050565b6125bb80620001a66000396000f3fe60806040526004361061014b5760003560e01c80639b23d3d9116100b6578063c793fcf91161006f578063c793fcf9146103d5578063cb417cc2146103ea578063cd7c253e1461040a578063ce25e9721461041d578063d89f31231461043d578063ea03b4d71461045057600080fd5b80639b23d3d91461032d578063a34336d91461034d578063a6cdbdcd14610360578063b6c907a61461038d578063c2e298c1146103a0578063c4b5fc27146103b557600080fd5b80637dec8296116101085780637dec82961461024457806389670e1514610266578063899b7898146102935780638bf3a32e146102b357806394496cba146102eb5780639524d3161461030b57600080fd5b80630a284cb61461015057806312065fe01461017b57806315dacbea146101985780632b82b9a9146101b857806330f5ed82146101ff578063618dc65e14610222575b600080fd5b61016361015e366004611c7d565b610470565b60405160079190910b81526020015b60405180910390f35b34801561018757600080fd5b50475b604051908152602001610172565b3480156101a457600080fd5b506101636101b3366004611ccc565b61050e565b3480156101c457600080fd5b5061018a6101d3366004611d1d565b604080516020808201949094528082019290925280518083038201815260609092019052805191012090565b61021261020d366004611d3f565b610602565b6040519015158152602001610172565b34801561022e57600080fd5b5061024261023d366004611d8e565b610735565b005b34801561025057600080fd5b50610259610823565b6040516101729190611dd3565b34801561027257600080fd5b50610286610281366004611e44565b6108aa565b6040516101729190611e5d565b34801561029f57600080fd5b5061018a6102ae366004611e8e565b610926565b3480156102bf57600080fd5b506102d36102ce366004611e8e565b610993565b6040516001600160a01b039091168152602001610172565b3480156102f757600080fd5b506102d3610306366004611e44565b610a07565b34801561031757600080fd5b50610320610a8e565b6040516101729190611eba565b34801561033957600080fd5b50610163610348366004611ccc565b610bff565b61021261035b366004611f39565b610c44565b34801561036c57600080fd5b5061038061037b366004611f69565b610d67565b6040516101729190611fd6565b6102d361039b366004611fe9565b610dcf565b3480156103ac57600080fd5b50610259611083565b3480156103c157600080fd5b506103806103d0366004611f69565b61124a565b3480156103e157600080fd5b5061032061128a565b3480156103f657600080fd5b50610380610405366004611e8e565b611314565b61018a610418366004612098565b611384565b34801561042957600080fd5b506102d3610438366004611e8e565b6113f3565b61018a61044b366004611f69565b611423565b34801561045c57600080fd5b5061032061046b366004611e44565b6114d9565b60008060006104818560008661167b565b9250509150601660030b82146104e85760405162461bcd60e51b815260206004820152602160248201527f4661696c656420746f206d696e74206e6f6e2d66756e6769626c6520746f6b656044820152603760f91b60648201526084015b60405180910390fd5b806000815181106104fb576104fb6120c6565b6020026020010151925050505b92915050565b6040516001600160a01b038581166024830152848116604483015283166064820152608481018290526000908190819061016790630aed65f560e11b9060a4015b60408051601f198184030181529181526020820180516001600160e01b03166001600160e01b031990941693909317909252905161058d91906120dc565b6000604051808303816000865af19150503d80600081146105ca576040519150601f19603f3d011682016040523d82523d6000602084013e6105cf565b606091505b5091509150816105e05760156105f4565b808060200190518101906105f4919061210f565b60030b979650505050505050565b33600090815260036020526040812080543491908390610623908490612140565b909155506000905061063485610a07565b905060006106428285610470565b60408051608081018252888152602081018881523392820192835260079390930b606082019081526005805460018181018355600092909252925160039093027f036b6384b5eca791c62761152d0c79bb0604c104a5fb6f4eb0703f3154bb3db081019390935593517f036b6384b5eca791c62761152d0c79bb0604c104a5fb6f4eb0703f3154bb3db183015591517f036b6384b5eca791c62761152d0c79bb0604c104a5fb6f4eb0703f3154bb3db2909101805492516001600160401b0316600160a01b026001600160e01b03199093166001600160a01b039290921691909117919091179055925050509392505050565b6000806101676001600160a01b031663618dc65e60e01b858560405160240161075f929190612153565b60408051601f198184030181529181526020820180516001600160e01b03166001600160e01b031990941693909317909252905161079d91906120dc565b6000604051808303816000865af19150503d80600081146107da576040519150601f19603f3d011682016040523d82523d6000602084013e6107df565b606091505b50915091507f4af4780e06fe8cb9df64b0794fa6f01399af979175bb988e35e0e57e594567bc828260405161081592919061217f565b60405180910390a150505050565b60606004805480602002602001604051908101604052809291908181526020016000905b828210156108a15760008481526020908190206040805160608101825260038602909201805483526001808201546001600160a01b0390811685870152600290920154909116918301919091529083529092019101610847565b50505050905090565b6040805160608101825260008082526020820181905291810191909152600482815481106108da576108da6120c6565b60009182526020918290206040805160608101825260039093029091018054835260018101546001600160a01b0390811694840194909452600201549092169181019190915292915050565b6000610933833384611779565b9050601681146105085760405162461bcd60e51b815260206004820152602560248201527f4661696c656420746f20617070726f7665206e6f6e2d66756e676962696c65206044820152643a37b5b2b760d91b60648201526084016104df565b60405163020604bf60e21b8152600481018290526000906001600160a01b0384169063081812fc906024015b602060405180830381865afa1580156109dc573d6000803e3d6000fd5b505050506040513d601f19601f82011682018060405250810190610a00919061219a565b9392505050565b60008060005b600454811015610a87578360048281548110610a2b57610a2b6120c6565b90600052602060002090600302016000015403610a755760048181548110610a5557610a556120c6565b60009182526020909120600260039092020101546001600160a01b031691505b80610a7f816121b7565b915050610a0d565b5092915050565b6005546060906000906001600160401b03811115610aae57610aae611b0d565b604051908082528060200260200182016040528015610b0057816020015b604080516080810182526000808252602080830182905292820181905260608201528252600019909201910181610acc5790505b5090506000805b600554811015610bf757336001600160a01b031660058281548110610b2e57610b2e6120c6565b60009182526020909120600260039092020101546001600160a01b031603610be55760058181548110610b6357610b636120c6565b6000918252602091829020604080516080810182526003909302909101805483526001810154938301939093526002909201546001600160a01b03811692820192909252600160a01b90910460070b60608201528351849084908110610bcb57610bcb6120c6565b60200260200101819052508180610be1906121b7565b9250505b80610bef816121b7565b915050610b07565b509092915050565b6040516001600160a01b038581166024830152848116604483015283166064820152608481018290526000908190819061016790639b23d3d960e01b9060a40161054f565b33600090815260036020526040812080543491908390610c65908490612140565b9250508190555060046040518060600160405280858152602001336001600160a01b03168152602001610d006040518060400160405280600a815260200169486173684368616e676560b01b815250604051806040016040528060048152602001634558523160e01b8152506040518060400160405280600c81526020016b66726f6d207375727665797360a01b81525088626acfc0610dcf565b6001600160a01b03908116909152825460018082018555600094855260209485902084516003909302019182559383015181850180546001600160a01b03199081169285169290921790556040909301516002909101805490931691161790559392505050565b6060816001600160a01b03166306fdde036040518163ffffffff1660e01b8152600401600060405180830381865afa158015610da7573d6000803e3d6000fd5b505050506040513d6000823e601f3d908101601f1916820160405261050891908101906121d0565b6040805160078082526101008201909252600091829190816020015b610df3611a93565b815260200190600190039081610deb579050509050610e156000600130611852565b81600081518110610e2857610e286120c6565b6020026020010181905250610e406004600130611852565b81600181518110610e5357610e536120c6565b6020026020010181905250610e6b6002600130611852565b81600281518110610e7e57610e7e6120c6565b6020026020010181905250610e966005600130611852565b81600381518110610ea957610ea96120c6565b6020026020010181905250610ec060018030611852565b81600481518110610ed357610ed36120c6565b6020026020010181905250610eeb6006600130611852565b81600581518110610efe57610efe6120c6565b6020026020010181905250610f166003600130611852565b81600681518110610f2957610f296120c6565b6020026020010181905250610f9a60408051610120810182526060808252602080830182905260008385018190528284018390526080840181905260a0840181905260c0840181905260e0840183905284519283018552808352908201819052928101929092529061010082015290565b8781526020810187905260608101869052306040820181905260016080830152600786900b60a083015260e08201839052600060c0830152611003908560408051606081018252600081526001600160a01b0393909316602084015260079190910b9082015290565b61010082015260008061101583611887565b9092509050601682146110765760405162461bcd60e51b815260206004820152602360248201527f4661696c656420746f20637265617465206e6f6e2d66756e6769626c6520746f60448201526235b2b760e91b60648201526084016104df565b9998505050505050505050565b606060008060005b6004548110156110f457336001600160a01b0316600482815481106110b2576110b26120c6565b60009182526020909120600160039092020101546001600160a01b0316036110e257816110de816121b7565b9250505b806110ec816121b7565b91505061108b565b506000816001600160401b0381111561110f5761110f611b0d565b60405190808252806020026020018201604052801561115a57816020015b604080516060810182526000808252602080830182905292820152825260001990920191018161112d5790505b50905060005b60045481101561124257336001600160a01b031660048281548110611187576111876120c6565b60009182526020909120600160039092020101546001600160a01b03160361123057600481815481106111bc576111bc6120c6565b60009182526020918290206040805160608101825260039093029091018054835260018101546001600160a01b039081169484019490945260020154909216918101919091528251839086908110611216576112166120c6565b6020026020010181905250838061122c906121b7565b9450505b8061123a816121b7565b915050611160565b509392505050565b6060816001600160a01b03166395d89b416040518163ffffffff1660e01b8152600401600060405180830381865afa158015610da7573d6000803e3d6000fd5b60606005805480602002602001604051908101604052809291908181526020016000905b828210156108a1576000848152602090819020604080516080810182526003860290920180548352600180820154848601526002909101546001600160a01b03811692840192909252600160a01b90910460070b606083015290835290920191016112ae565b60405163c87b56dd60e01b8152600481018290526060906001600160a01b0384169063c87b56dd90602401600060405180830381865afa15801561135c573d6000803e3d6000fd5b505050506040513d6000823e601f3d908101601f19168201604052610a0091908101906121d0565b600080611393843033866119a9565b905060168114610a005760405162461bcd60e51b815260206004820152602560248201527f4661696c656420746f207472616e73666572206e6f6e2d66756e6769626c65206044820152643a37b5b2b760d91b60648201526084016104df565b6040516331a9108f60e11b8152600481018290526000906001600160a01b03841690636352211e906024016109bf565b60408051600481526024810182526020810180516001600160e01b031663053aa6f360e11b1790529051600091829182916001600160a01b0386169161146991906120dc565b600060405180830381855af49150503d80600081146114a4576040519150601f19603f3d011682016040523d82523d6000602084013e6114a9565b606091505b5091509150816114ba5760156114ce565b808060200190518101906114ce919061210f565b60030b949350505050565b6005546060906000906001600160401b038111156114f9576114f9611b0d565b60405190808252806020026020018201604052801561154b57816020015b6040805160808101825260008082526020808301829052928201819052606082015282526000199092019101816115175790505b5090506000805b60055481101561167257336001600160a01b031660058281548110611579576115796120c6565b60009182526020909120600260039092020101546001600160a01b03161480156115c6575084600582815481106115b2576115b26120c6565b906000526020600020906003020160000154145b1561166057600581815481106115de576115de6120c6565b6000918252602091829020604080516080810182526003909302909101805483526001810154938301939093526002909201546001600160a01b03811692820192909252600160a01b90910460070b60608201528351849084908110611646576116466120c6565b6020026020010181905250818061165c906121b7565b9250505b8061166a816121b7565b915050611552565b50909392505050565b60008060606000806101676001600160a01b031663e0f4059a60e01b8989896040516024016116ac93929190612246565b60408051601f198184030181529181526020820180516001600160e01b03166001600160e01b03199094169390931790925290516116ea91906120dc565b6000604051808303816000865af19150503d8060008114611727576040519150601f19603f3d011682016040523d82523d6000602084013e61172c565b606091505b50915091508161174f576040805160008082526020820190925260159190611763565b8080602001905181019061176391906122c2565b60039290920b9a90995090975095505050505050565b604080516001600160a01b03858116602483015284166044820152606480820184905282518083039091018152608490910182526020810180516001600160e01b03166307336aaf60e41b179052905160009182918291610167916117de91906120dc565b6000604051808303816000865af19150503d806000811461181b576040519150601f19603f3d011682016040523d82523d6000602084013e611820565b606091505b509150915081611831576015611845565b80806020019051810190611845919061210f565b60030b9695505050505050565b61185a611a93565b604051806040016040528061186e866119f1565b815260200161187d8585611a30565b9052949350505050565b600080828061010001516000015160070b60001480156118b157506101008101516040015160070b155b156118c7576101008101516276a7006040909101525b6000806101676001600160a01b03163463ea83f29360e01b886040516024016118f09190612437565b60408051601f198184030181529181526020820180516001600160e01b03166001600160e01b031990941693909317909252905161192e91906120dc565b60006040518083038185875af1925050503d806000811461196b576040519150601f19603f3d011682016040523d82523d6000602084013e611970565b606091505b5091509150816119835760156000611997565b808060200190518101906119979190612543565b60039190910b97909650945050505050565b6040516001600160a01b038581166024830152848116604483015283166064820152600782900b60848201526000908190819061016790635cfc901160e01b9060a40161054f565b600060016000836006811115611a0957611a0961256f565b6006811115611a1a57611a1a61256f565b8152602001908152602001600020549050919050565b611a38611ab2565b6001836004811115611a4c57611a4c61256f565b03611a65576001600160a01b0382166020820152610508565b6004836004811115611a7957611a7961256f565b03610508576001600160a01b038216608082015292915050565b604051806040016040528060008152602001611aad611ab2565b905290565b6040518060a0016040528060001515815260200160006001600160a01b03168152602001606081526020016060815260200160006001600160a01b031681525090565b6001600160a01b0381168114611b0a57600080fd5b50565b634e487b7160e01b600052604160045260246000fd5b604051601f8201601f191681016001600160401b0381118282101715611b4b57611b4b611b0d565b604052919050565b60006001600160401b03821115611b6c57611b6c611b0d565b5060051b60200190565b60006001600160401b03821115611b8f57611b8f611b0d565b50601f01601f191660200190565b600082601f830112611bae57600080fd5b8135611bc1611bbc82611b76565b611b23565b818152846020838601011115611bd657600080fd5b816020850160208301376000918101602001919091529392505050565b600082601f830112611c0457600080fd5b81356020611c14611bbc83611b53565b82815260059290921b84018101918181019086841115611c3357600080fd5b8286015b84811015611c725780356001600160401b03811115611c565760008081fd5b611c648986838b0101611b9d565b845250918301918301611c37565b509695505050505050565b60008060408385031215611c9057600080fd5b8235611c9b81611af5565b915060208301356001600160401b03811115611cb657600080fd5b611cc285828601611bf3565b9150509250929050565b60008060008060808587031215611ce257600080fd5b8435611ced81611af5565b93506020850135611cfd81611af5565b92506040850135611d0d81611af5565b9396929550929360600135925050565b60008060408385031215611d3057600080fd5b50508035926020909101359150565b600080600060608486031215611d5457600080fd5b833592506020840135915060408401356001600160401b03811115611d7857600080fd5b611d8486828701611bf3565b9150509250925092565b60008060408385031215611da157600080fd5b8235611dac81611af5565b915060208301356001600160401b03811115611dc757600080fd5b611cc285828601611b9d565b6020808252825182820181905260009190848201906040850190845b81811015611e3857611e25838551805182526020808201516001600160a01b039081169184019190915260409182015116910152565b9284019260609290920191600101611def565b50909695505050505050565b600060208284031215611e5657600080fd5b5035919050565b606081016105088284805182526020808201516001600160a01b039081169184019190915260409182015116910152565b60008060408385031215611ea157600080fd5b8235611eac81611af5565b946020939093013593505050565b602080825282518282018190526000919060409081850190868401855b82811015611f1d578151805185528681015187860152858101516001600160a01b03168686015260609081015160070b9085015260809093019290850190600101611ed7565b5091979650505050505050565b8060070b8114611b0a57600080fd5b60008060408385031215611f4c57600080fd5b823591506020830135611f5e81611f2a565b809150509250929050565b600060208284031215611f7b57600080fd5b8135610a0081611af5565b60005b83811015611fa1578181015183820152602001611f89565b50506000910152565b60008151808452611fc2816020860160208601611f86565b601f01601f19169290920160200192915050565b602081526000610a006020830184611faa565b600080600080600060a0868803121561200157600080fd5b85356001600160401b038082111561201857600080fd5b61202489838a01611b9d565b9650602088013591508082111561203a57600080fd5b61204689838a01611b9d565b9550604088013591508082111561205c57600080fd5b5061206988828901611b9d565b935050606086013561207a81611f2a565b9150608086013561208a81611f2a565b809150509295509295909350565b600080604083850312156120ab57600080fd5b82356120b681611af5565b91506020830135611f5e81611f2a565b634e487b7160e01b600052603260045260246000fd5b600082516120ee818460208701611f86565b9190910192915050565b8051600381900b811461210a57600080fd5b919050565b60006020828403121561212157600080fd5b610a00826120f8565b634e487b7160e01b600052601160045260246000fd5b808201808211156105085761050861212a565b6001600160a01b038316815260406020820181905260009061217790830184611faa565b949350505050565b82151581526040602082015260006121776040830184611faa565b6000602082840312156121ac57600080fd5b8151610a0081611af5565b6000600182016121c9576121c961212a565b5060010190565b6000602082840312156121e257600080fd5b81516001600160401b038111156121f857600080fd5b8201601f8101841361220957600080fd5b8051612217611bbc82611b76565b81815285602083850101111561222c57600080fd5b61223d826020830160208601611f86565b95945050505050565b60006060820160018060a01b038616835260208560070b818501526060604085015281855180845260808601915060808160051b870101935082870160005b828110156122b357607f198887030184526122a1868351611faa565b95509284019290840190600101612285565b50939998505050505050505050565b6000806000606084860312156122d757600080fd5b6122e0846120f8565b92506020808501516122f181611f2a565b60408601519093506001600160401b0381111561230d57600080fd5b8501601f8101871361231e57600080fd5b805161232c611bbc82611b53565b81815260059190911b8201830190838101908983111561234b57600080fd5b928401925b8284101561237257835161236381611f2a565b82529284019290840190612350565b80955050505050509250925092565b600081518084526020808501808196508360051b8101915082860160005b85811015611f1d57828403895281516040815186528682015191508087870152815115158187015286820151606060018060a01b03808316828a015283850151935060a09250608083818b01526123f960e08b0186611faa565b928601518a8403603f1901858c01529294506124158584611faa565b9501511660c0989098019790975250509885019893509084019060010161239f565b60208152600082516101606020840152612455610180840182611faa565b90506020840151601f19808584030160408601526124738383611faa565b92506040860151915061249160608601836001600160a01b03169052565b60608601519150808584030160808601526124ac8383611faa565b9250608086015191506124c360a086018315159052565b60a086015191506124d960c086018360070b9052565b60c086015180151560e0870152915060e086015191506101008186850301818701526125058484612381565b908701518051600790810b61012089015260208201516001600160a01b03166101408901526040820151900b61016088015290935091506112429050565b6000806040838503121561255657600080fd5b61255f836120f8565b91506020830151611f5e81611af5565b634e487b7160e01b600052602160045260246000fdfea26469706673582212203d601323a11da89f045043227ba59643e8f40ac9b835ea8e866ab1d1f728b14d64736f6c63430008130033",
    "sourcePath": "/home/drleo/Projects/hackathons/hedera/smart-contracts/contracts/Surveys.sol",
    "compiler": {
        "name": "solc",
        "version": "0.8.19+commit.7dd6d404"
    },
    "functionHashes": {
        "approveNft(address,uint256)": "899b7898",
        "associate(address)": "d89f3123",
        "createHash(bytes32,bytes32)": "2b82b9a9",
        "createNft(string,string,string,int64,int64)": "b6c907a6",
        "getAnswerForSurvey(bytes32)": "ea03b4d7",
        "getAnswers()": "c793fcf9",
        "getApprovedNft(address,uint256)": "8bf3a32e",
        "getAuthorSurveys()": "c2e298c1",
        "getBalance()": "12065fe0",
        "getNftAddressForSurveyHash(bytes32)": "94496cba",
        "getSurvey(uint256)": "89670e15",
        "getSurveys()": "7dec8296",
        "getUserAnswers()": "9524d316",
        "mintNft(address,bytes[])": "0a284cb6",
        "nameOfNft(address)": "a6cdbdcd",
        "ownerOfNft(address,uint256)": "ce25e972",
        "redirectForToken(address,bytes)": "618dc65e",
        "setAnswer(bytes32,bytes32,bytes[])": "30f5ed82",
        "setSurvey(bytes32,int64)": "a34336d9",
        "symbolOfNft(address)": "c4b5fc27",
        "tokenURIOfNft(address,uint256)": "cb417cc2",
        "transferFrom(address,address,address,uint256)": "15dacbea",
        "transferFromNFT(address,address,address,uint256)": "9b23d3d9",
        "transferNft(address,int64)": "cd7c253e"
    },
    "gasEstimates": {
        "creation": {
            "codeDepositCost": "1931800",
            "executionCost": "infinite",
            "totalCost": "infinite"
        },
        "external": {
            "approveNft(address,uint256)": "infinite",
            "associate(address)": "infinite",
            "createHash(bytes32,bytes32)": "544",
            "createNft(string,string,string,int64,int64)": "infinite",
            "getAnswerForSurvey(bytes32)": "infinite",
            "getAnswers()": "infinite",
            "getApprovedNft(address,uint256)": "infinite",
            "getAuthorSurveys()": "infinite",
            "getBalance()": "229",
            "getNftAddressForSurveyHash(bytes32)": "infinite",
            "getSurvey(uint256)": "9206",
            "getSurveys()": "infinite",
            "getUserAnswers()": "infinite",
            "mintNft(address,bytes[])": "infinite",
            "nameOfNft(address)": "infinite",
            "ownerOfNft(address,uint256)": "infinite",
            "redirectForToken(address,bytes)": "infinite",
            "setAnswer(bytes32,bytes32,bytes[])": "infinite",
            "setSurvey(bytes32,int64)": "infinite",
            "symbolOfNft(address)": "infinite",
            "tokenURIOfNft(address,uint256)": "infinite",
            "transferFrom(address,address,address,uint256)": "infinite",
            "transferFromNFT(address,address,address,uint256)": "infinite",
            "transferNft(address,int64)": "infinite"
        },
        "internal": {
            "surveyExist(bytes32)": "infinite"
        }
    }
}