{
    "contractName": "Surveys",
    "abi": [
        {
            "inputs": [
                {
                    "internalType": "address",
                    "name": "_operatorAccountAddresss",
                    "type": "address"
                }
            ],
            "stateMutability": "nonpayable",
            "type": "constructor"
        },
        {
            "anonymous": false,
            "inputs": [
                {
                    "indexed": false,
                    "internalType": "bool",
                    "name": "",
                    "type": "bool"
                },
                {
                    "indexed": false,
                    "internalType": "bytes",
                    "name": "",
                    "type": "bytes"
                }
            ],
            "name": "CallResponseEvent",
            "type": "event"
        },
        {
            "anonymous": false,
            "inputs": [
                {
                    "indexed": false,
                    "internalType": "bool",
                    "name": "send",
                    "type": "bool"
                },
                {
                    "indexed": false,
                    "internalType": "bytes",
                    "name": "data",
                    "type": "bytes"
                }
            ],
            "name": "Response",
            "type": "event"
        },
        {
            "inputs": [
                {
                    "internalType": "address",
                    "name": "_token",
                    "type": "address"
                },
                {
                    "internalType": "uint256",
                    "name": "_serialNumber",
                    "type": "uint256"
                }
            ],
            "name": "approveNft",
            "outputs": [
                {
                    "internalType": "int256",
                    "name": "responseCode",
                    "type": "int256"
                }
            ],
            "stateMutability": "nonpayable",
            "type": "function"
        },
        {
            "inputs": [
                {
                    "internalType": "bytes32",
                    "name": "_a",
                    "type": "bytes32"
                },
                {
                    "internalType": "bytes32",
                    "name": "_b",
                    "type": "bytes32"
                }
            ],
            "name": "createHash",
            "outputs": [
                {
                    "internalType": "bytes32",
                    "name": "",
                    "type": "bytes32"
                }
            ],
            "stateMutability": "pure",
            "type": "function"
        },
        {
            "inputs": [
                {
                    "internalType": "string",
                    "name": "name",
                    "type": "string"
                },
                {
                    "internalType": "string",
                    "name": "symbol",
                    "type": "string"
                },
                {
                    "internalType": "string",
                    "name": "memo",
                    "type": "string"
                },
                {
                    "internalType": "int64",
                    "name": "maxSupply",
                    "type": "int64"
                },
                {
                    "internalType": "int64",
                    "name": "autoRenewPeriod",
                    "type": "int64"
                }
            ],
            "name": "createNft",
            "outputs": [
                {
                    "internalType": "address",
                    "name": "",
                    "type": "address"
                }
            ],
            "stateMutability": "payable",
            "type": "function"
        },
        {
            "inputs": [
                {
                    "internalType": "uint256",
                    "name": "i",
                    "type": "uint256"
                }
            ],
            "name": "getAnswer",
            "outputs": [
                {
                    "components": [
                        {
                            "internalType": "bytes32",
                            "name": "surveyHash",
                            "type": "bytes32"
                        },
                        {
                            "internalType": "bytes32",
                            "name": "answerHash",
                            "type": "bytes32"
                        },
                        {
                            "internalType": "address",
                            "name": "userAddress",
                            "type": "address"
                        }
                    ],
                    "internalType": "struct Surveys.Answer",
                    "name": "",
                    "type": "tuple"
                }
            ],
            "stateMutability": "view",
            "type": "function"
        },
        {
            "inputs": [],
            "name": "getAnswers",
            "outputs": [
                {
                    "components": [
                        {
                            "internalType": "bytes32",
                            "name": "surveyHash",
                            "type": "bytes32"
                        },
                        {
                            "internalType": "bytes32",
                            "name": "answerHash",
                            "type": "bytes32"
                        },
                        {
                            "internalType": "address",
                            "name": "userAddress",
                            "type": "address"
                        }
                    ],
                    "internalType": "struct Surveys.Answer[]",
                    "name": "",
                    "type": "tuple[]"
                }
            ],
            "stateMutability": "view",
            "type": "function"
        },
        {
            "inputs": [
                {
                    "internalType": "address",
                    "name": "token",
                    "type": "address"
                },
                {
                    "internalType": "uint256",
                    "name": "tokenId",
                    "type": "uint256"
                }
            ],
            "name": "getApprovedNft",
            "outputs": [
                {
                    "internalType": "address",
                    "name": "",
                    "type": "address"
                }
            ],
            "stateMutability": "view",
            "type": "function"
        },
        {
            "inputs": [],
            "name": "getAuthorSurveys",
            "outputs": [
                {
                    "components": [
                        {
                            "internalType": "bytes32",
                            "name": "surveyHash",
                            "type": "bytes32"
                        },
                        {
                            "internalType": "address",
                            "name": "author",
                            "type": "address"
                        },
                        {
                            "internalType": "address",
                            "name": "nftAddress",
                            "type": "address"
                        }
                    ],
                    "internalType": "struct Surveys.Survey[]",
                    "name": "",
                    "type": "tuple[]"
                }
            ],
            "stateMutability": "view",
            "type": "function"
        },
        {
            "inputs": [],
            "name": "getBalance",
            "outputs": [
                {
                    "internalType": "uint256",
                    "name": "",
                    "type": "uint256"
                }
            ],
            "stateMutability": "view",
            "type": "function"
        },
        {
            "inputs": [
                {
                    "internalType": "uint256",
                    "name": "_i",
                    "type": "uint256"
                }
            ],
            "name": "getSurvey",
            "outputs": [
                {
                    "components": [
                        {
                            "internalType": "bytes32",
                            "name": "surveyHash",
                            "type": "bytes32"
                        },
                        {
                            "internalType": "address",
                            "name": "author",
                            "type": "address"
                        },
                        {
                            "internalType": "address",
                            "name": "nftAddress",
                            "type": "address"
                        }
                    ],
                    "internalType": "struct Surveys.Survey",
                    "name": "",
                    "type": "tuple"
                }
            ],
            "stateMutability": "view",
            "type": "function"
        },
        {
            "inputs": [],
            "name": "getSurveys",
            "outputs": [
                {
                    "components": [
                        {
                            "internalType": "bytes32",
                            "name": "surveyHash",
                            "type": "bytes32"
                        },
                        {
                            "internalType": "address",
                            "name": "author",
                            "type": "address"
                        },
                        {
                            "internalType": "address",
                            "name": "nftAddress",
                            "type": "address"
                        }
                    ],
                    "internalType": "struct Surveys.Survey[]",
                    "name": "",
                    "type": "tuple[]"
                }
            ],
            "stateMutability": "view",
            "type": "function"
        },
        {
            "inputs": [],
            "name": "getUserAnswers",
            "outputs": [
                {
                    "components": [
                        {
                            "internalType": "bytes32",
                            "name": "surveyHash",
                            "type": "bytes32"
                        },
                        {
                            "internalType": "bytes32",
                            "name": "answerHash",
                            "type": "bytes32"
                        },
                        {
                            "internalType": "address",
                            "name": "userAddress",
                            "type": "address"
                        }
                    ],
                    "internalType": "struct Surveys.Answer[]",
                    "name": "",
                    "type": "tuple[]"
                }
            ],
            "stateMutability": "view",
            "type": "function"
        },
        {
            "inputs": [
                {
                    "internalType": "address",
                    "name": "token",
                    "type": "address"
                },
                {
                    "internalType": "bytes[]",
                    "name": "metadata",
                    "type": "bytes[]"
                }
            ],
            "name": "mintNft",
            "outputs": [
                {
                    "internalType": "int64",
                    "name": "",
                    "type": "int64"
                }
            ],
            "stateMutability": "payable",
            "type": "function"
        },
        {
            "inputs": [
                {
                    "internalType": "address",
                    "name": "token",
                    "type": "address"
                }
            ],
            "name": "nameOfNft",
            "outputs": [
                {
                    "internalType": "string",
                    "name": "",
                    "type": "string"
                }
            ],
            "stateMutability": "view",
            "type": "function"
        },
        {
            "inputs": [
                {
                    "internalType": "address",
                    "name": "token",
                    "type": "address"
                },
                {
                    "internalType": "uint256",
                    "name": "tokenId",
                    "type": "uint256"
                }
            ],
            "name": "ownerOfNft",
            "outputs": [
                {
                    "internalType": "address",
                    "name": "",
                    "type": "address"
                }
            ],
            "stateMutability": "view",
            "type": "function"
        },
        {
            "inputs": [
                {
                    "internalType": "address",
                    "name": "token",
                    "type": "address"
                },
                {
                    "internalType": "bytes",
                    "name": "encodedFunctionSelector",
                    "type": "bytes"
                }
            ],
            "name": "redirectForToken",
            "outputs": [],
            "stateMutability": "nonpayable",
            "type": "function"
        },
        {
            "inputs": [
                {
                    "internalType": "bytes32",
                    "name": "_surveyHash",
                    "type": "bytes32"
                },
                {
                    "internalType": "bytes32",
                    "name": "_answerHash",
                    "type": "bytes32"
                },
                {
                    "internalType": "bytes[]",
                    "name": "_metadata",
                    "type": "bytes[]"
                }
            ],
            "name": "setAnswer",
            "outputs": [
                {
                    "internalType": "int64",
                    "name": "",
                    "type": "int64"
                }
            ],
            "stateMutability": "payable",
            "type": "function"
        },
        {
            "inputs": [
                {
                    "internalType": "bytes32",
                    "name": "_surveyHash",
                    "type": "bytes32"
                }
            ],
            "name": "setSurvey",
            "outputs": [
                {
                    "internalType": "bool",
                    "name": "",
                    "type": "bool"
                }
            ],
            "stateMutability": "payable",
            "type": "function"
        },
        {
            "inputs": [
                {
                    "internalType": "address",
                    "name": "token",
                    "type": "address"
                }
            ],
            "name": "symbolOfNft",
            "outputs": [
                {
                    "internalType": "string",
                    "name": "",
                    "type": "string"
                }
            ],
            "stateMutability": "view",
            "type": "function"
        },
        {
            "inputs": [
                {
                    "internalType": "address",
                    "name": "token",
                    "type": "address"
                },
                {
                    "internalType": "uint256",
                    "name": "tokenId",
                    "type": "uint256"
                }
            ],
            "name": "tokenURIOfNft",
            "outputs": [
                {
                    "internalType": "string",
                    "name": "",
                    "type": "string"
                }
            ],
            "stateMutability": "view",
            "type": "function"
        },
        {
            "inputs": [
                {
                    "internalType": "address",
                    "name": "token",
                    "type": "address"
                },
                {
                    "internalType": "address",
                    "name": "from",
                    "type": "address"
                },
                {
                    "internalType": "address",
                    "name": "to",
                    "type": "address"
                },
                {
                    "internalType": "uint256",
                    "name": "amount",
                    "type": "uint256"
                }
            ],
            "name": "transferFrom",
            "outputs": [
                {
                    "internalType": "int64",
                    "name": "responseCode",
                    "type": "int64"
                }
            ],
            "stateMutability": "nonpayable",
            "type": "function"
        },
        {
            "inputs": [
                {
                    "internalType": "address",
                    "name": "token",
                    "type": "address"
                },
                {
                    "internalType": "address",
                    "name": "from",
                    "type": "address"
                },
                {
                    "internalType": "address",
                    "name": "to",
                    "type": "address"
                },
                {
                    "internalType": "uint256",
                    "name": "serialNumber",
                    "type": "uint256"
                }
            ],
            "name": "transferFromNFT",
            "outputs": [
                {
                    "internalType": "int64",
                    "name": "responseCode",
                    "type": "int64"
                }
            ],
            "stateMutability": "nonpayable",
            "type": "function"
        },
        {
            "inputs": [
                {
                    "internalType": "address",
                    "name": "token",
                    "type": "address"
                },
                {
                    "internalType": "uint256",
                    "name": "tokenId",
                    "type": "uint256"
                }
            ],
            "name": "transferNft",
            "outputs": [],
            "stateMutability": "payable",
            "type": "function"
        }
    ],
    "bytecode": "60806040523480156200001157600080fd5b506040516200273c3803806200273c833981016040819052620000349162000164565b600160208181527fa6eef7e35abe7026729641147f7915573c7e97b47efa546f5f6e3230263bcb499190915560027fcc69885fda6bcc1a4ace058b4a62bf5e179ea78fd58a1ccd71c22cc9b688792f81905560047fd9d16d34ffb15ba3a3d852f0d403e2ce1d691fb54de27ac87cd2f993f3ec330f5560087f7dfe757ecd65cbd7922a9c0161e935dd7fdbcc0e999689c7d31633896b1fc60b5560107fedc95719e9a3b28dd8e80877cb5880a9be7de1a13fc8b05e7999683b6b567643557fe2689cd4a84e23ad2f564004f1c9013e9589d260bde6380aba3ca7e09e4df40c91909155600660005260407f8f331abe73332f95a25873e8b430885974c0409691f89d643119a11623a7924a5580546001600160a01b0319166001600160a01b039290921691909117905562000196565b6000602082840312156200017757600080fd5b81516001600160a01b03811681146200018f57600080fd5b9392505050565b61259680620001a66000396000f3fe6080604052600436106101355760003560e01c80639524d316116100ab578063c2e298c11161006f578063c2e298c114610387578063c4b5fc271461039c578063c793fcf9146103bc578063cb417cc2146103d1578063ce25e972146103f1578063ce5cb1c61461041157600080fd5b80639524d316146102d85780639b23d3d9146102fa578063a6cdbdcd1461031a578063b5ab58dc14610347578063b6c907a61461037457600080fd5b806360cc1121116100fd57806360cc1121146101fc578063618dc65e146102115780637dec82961461023157806389670e1514610253578063899b7898146102805780638bf3a32e146102a057600080fd5b80630a284cb61461013a57806312065fe01461016557806315dacbea146101825780632b82b9a9146101a257806330f5ed82146101e9575b600080fd5b61014d610148366004611c85565b610434565b60405160079190910b81526020015b60405180910390f35b34801561017157600080fd5b50475b60405190815260200161015c565b34801561018e57600080fd5b5061014d61019d366004611cd4565b6104d2565b3480156101ae57600080fd5b506101746101bd366004611d25565b604080516020808201949094528082019290925280518083038201815260609092019052805191012090565b61014d6101f7366004611d47565b6105c6565b61020f61020a366004611d96565b610823565b005b34801561021d57600080fd5b5061020f61022c366004611dc2565b61088d565b34801561023d57600080fd5b5061024661097b565b60405161015c9190611e07565b34801561025f57600080fd5b5061027361026e366004611e78565b610a02565b60405161015c9190611e91565b34801561028c57600080fd5b5061017461029b366004611d96565b610a7e565b3480156102ac57600080fd5b506102c06102bb366004611d96565b610af6565b6040516001600160a01b03909116815260200161015c565b3480156102e457600080fd5b506102ed610b6a565b60405161015c9190611ec2565b34801561030657600080fd5b5061014d610315366004611cd4565b610cc3565b34801561032657600080fd5b5061033a610335366004611f21565b610d08565b60405161015c9190611f8e565b34801561035357600080fd5b50610367610362366004611e78565b610d70565b60405161015c9190611fa1565b6102c0610382366004611fda565b610de9565b34801561039357600080fd5b5061024661109d565b3480156103a857600080fd5b5061033a6103b7366004611f21565b611264565b3480156103c857600080fd5b506102ed6112a4565b3480156103dd57600080fd5b5061033a6103ec366004611d96565b6113ad565b3480156103fd57600080fd5b506102c061040c366004611d96565b61141d565b61042461041f366004611e78565b61144d565b604051901515815260200161015c565b600080600061044585600086611570565b9250509150601660030b82146104ac5760405162461bcd60e51b815260206004820152602160248201527f4661696c656420746f206d696e74206e6f6e2d66756e6769626c6520746f6b656044820152603760f91b60648201526084015b60405180910390fd5b806000815181106104bf576104bf612089565b6020026020010151925050505b92915050565b6040516001600160a01b038581166024830152848116604483015283166064820152608481018290526000908190819061016790630aed65f560e11b9060a4015b60408051601f198184030181529181526020820180516001600160e01b03166001600160e01b0319909416939093179092529051610551919061209f565b6000604051808303816000865af19150503d806000811461058e576040519150601f19603f3d011682016040523d82523d6000602084013e610593565b606091505b5091509150816105a45760156105b8565b808060200190518101906105b891906120d2565b60030b979650505050505050565b336000908152600360205260408120805434919083906105e7908490612103565b90915550600090506105f88561166e565b60408051606081018252878152602081018781523392820192835260058054600181018255600091825292517f036b6384b5eca791c62761152d0c79bb0604c104a5fb6f4eb0703f3154bb3db060039094029384015590517f036b6384b5eca791c62761152d0c79bb0604c104a5fb6f4eb0703f3154bb3db183015591517f036b6384b5eca791c62761152d0c79bb0604c104a5fb6f4eb0703f3154bb3db290910180546001600160a01b0319166001600160a01b039092169190911790559091506106c48285610434565b60405163095ea7b360e01b81523360048201526001600160401b038216602482018190529192506001600160a01b0384169063095ea7b390604401600060405180830381600087803b15801561071957600080fd5b505af115801561072d573d6000803e3d6000fd5b50506040516323b872dd60e01b8152306004820152336024820152604481018490526001600160a01b03861692506323b872dd9150606401600060405180830381600087803b15801561077f57600080fd5b505af1158015610793573d6000803e3d6000fd5b50503360008181526006602090815260408083208054600180820183559185528385200180546001600160a01b0319166001600160a01b039b909b169a909a1790995592825260078152918120805497880181558152206004860401805460039096166008026101000a6001600160401b0381810219909716968616029590951790945550909695505050505050565b6040516323b872dd60e01b8152306004820152336024820152604481018290526001600160a01b038316906323b872dd90606401600060405180830381600087803b15801561087157600080fd5b505af1158015610885573d6000803e3d6000fd5b505050505050565b6000806101676001600160a01b031663618dc65e60e01b85856040516024016108b7929190612116565b60408051601f198184030181529181526020820180516001600160e01b03166001600160e01b03199094169390931790925290516108f5919061209f565b6000604051808303816000865af19150503d8060008114610932576040519150601f19603f3d011682016040523d82523d6000602084013e610937565b606091505b50915091507f4af4780e06fe8cb9df64b0794fa6f01399af979175bb988e35e0e57e594567bc828260405161096d929190612142565b60405180910390a150505050565b60606004805480602002602001604051908101604052809291908181526020016000905b828210156109f95760008481526020908190206040805160608101825260038602909201805483526001808201546001600160a01b039081168587015260029092015490911691830191909152908352909201910161099f565b50505050905090565b604080516060810182526000808252602082018190529181019190915260048281548110610a3257610a32612089565b60009182526020918290206040805160608101825260039093029091018054835260018101546001600160a01b0390811694840194909452600201549092169181019190915292915050565b6000610a8a33846116f5565b50610a968333846117c9565b9050601681146104cc5760405162461bcd60e51b815260206004820152602560248201527f4661696c656420746f20617070726f7665206e6f6e2d66756e676962696c65206044820152643a37b5b2b760d91b60648201526084016104a3565b60405163020604bf60e21b8152600481018290526000906001600160a01b0384169063081812fc906024015b602060405180830381865afa158015610b3f573d6000803e3d6000fd5b505050506040513d601f19601f82011682018060405250810190610b63919061215d565b9392505050565b6005546060906000906001600160401b03811115610b8a57610b8a611b15565b604051908082528060200260200182016040528015610bd557816020015b6040805160608101825260008082526020808301829052928201528252600019909201910181610ba85790505b5090506000805b600554811015610cbb57336001600160a01b031660058281548110610c0357610c03612089565b60009182526020909120600260039092020101546001600160a01b031603610ca95760058181548110610c3857610c38612089565b6000918252602091829020604080516060810182526003909302909101805483526001810154938301939093526002909201546001600160a01b0316918101919091528351849084908110610c8f57610c8f612089565b60200260200101819052508180610ca59061217a565b9250505b80610cb38161217a565b915050610bdc565b509092915050565b6040516001600160a01b038581166024830152848116604483015283166064820152608481018290526000908190819061016790639b23d3d960e01b9060a401610513565b6060816001600160a01b03166306fdde036040518163ffffffff1660e01b8152600401600060405180830381865afa158015610d48573d6000803e3d6000fd5b505050506040513d6000823e601f3d908101601f191682016040526104cc9190810190612193565b604080516060810182526000808252602082018190529181019190915260058281548110610da057610da0612089565b6000918252602091829020604080516060810182526003909302909101805483526001810154938301939093526002909201546001600160a01b03169181019190915292915050565b6040805160078082526101008201909252600091829190816020015b610e0d611a9b565b815260200190600190039081610e05579050509050610e2f60006001306118a2565b81600081518110610e4257610e42612089565b6020026020010181905250610e5a60046001306118a2565b81600181518110610e6d57610e6d612089565b6020026020010181905250610e8560026001306118a2565b81600281518110610e9857610e98612089565b6020026020010181905250610eb060056001306118a2565b81600381518110610ec357610ec3612089565b6020026020010181905250610eda600180306118a2565b81600481518110610eed57610eed612089565b6020026020010181905250610f0560066001306118a2565b81600581518110610f1857610f18612089565b6020026020010181905250610f3060036001306118a2565b81600681518110610f4357610f43612089565b6020026020010181905250610fb460408051610120810182526060808252602080830182905260008385018190528284018390526080840181905260a0840181905260c0840181905260e0840183905284519283018552808352908201819052928101929092529061010082015290565b8781526020810187905260608101869052306040820181905260016080830152600786900b60a083015260e08201839052600060c083015261101d908560408051606081018252600081526001600160a01b0393909316602084015260079190910b9082015290565b61010082015260008061102f836118d7565b9092509050601682146110905760405162461bcd60e51b815260206004820152602360248201527f4661696c656420746f20637265617465206e6f6e2d66756e6769626c6520746f60448201526235b2b760e91b60648201526084016104a3565b9998505050505050505050565b606060008060005b60045481101561110e57336001600160a01b0316600482815481106110cc576110cc612089565b60009182526020909120600160039092020101546001600160a01b0316036110fc57816110f88161217a565b9250505b806111068161217a565b9150506110a5565b506000816001600160401b0381111561112957611129611b15565b60405190808252806020026020018201604052801561117457816020015b60408051606081018252600080825260208083018290529282015282526000199092019101816111475790505b50905060005b60045481101561125c57336001600160a01b0316600482815481106111a1576111a1612089565b60009182526020909120600160039092020101546001600160a01b03160361124a57600481815481106111d6576111d6612089565b60009182526020918290206040805160608101825260039093029091018054835260018101546001600160a01b03908116948401949094526002015490921691810191909152825183908690811061123057611230612089565b602002602001018190525083806112469061217a565b9450505b806112548161217a565b91505061117a565b509392505050565b6060816001600160a01b03166395d89b416040518163ffffffff1660e01b8152600401600060405180830381865afa158015610d48573d6000803e3d6000fd5b6005546060906000906001600160401b038111156112c4576112c4611b15565b60405190808252806020026020018201604052801561130f57816020015b60408051606081018252600080825260208083018290529282015282526000199092019101816112e25790505b50905060005b6005548110156113a7576005818154811061133257611332612089565b6000918252602091829020604080516060810182526003909302909101805483526001810154938301939093526002909201546001600160a01b031691810191909152825183908390811061138957611389612089565b6020026020010181905250808061139f9061217a565b915050611315565b50919050565b60405163c87b56dd60e01b8152600481018290526060906001600160a01b0384169063c87b56dd90602401600060405180830381865afa1580156113f5573d6000803e3d6000fd5b505050506040513d6000823e601f3d908101601f19168201604052610b639190810190612193565b6040516331a9108f60e11b8152600481018290526000906001600160a01b03841690636352211e90602401610b22565b3360009081526003602052604081208054349190839061146e908490612103565b9250508190555060046040518060600160405280848152602001336001600160a01b0316815260200161150a6040518060400160405280600a815260200169486173684368616e676560b01b815250604051806040016040528060048152602001634558523160e01b8152506040518060400160405280600c81526020016b66726f6d207375727665797360a01b815250600a626acfc0610de9565b6001600160a01b03908116909152825460018082018555600094855260209485902084516003909302019182559383015181850180546001600160a01b031990811692851692909217905560409093015160029091018054909316911617905592915050565b60008060606000806101676001600160a01b031663e0f4059a60e01b8989896040516024016115a193929190612209565b60408051601f198184030181529181526020820180516001600160e01b03166001600160e01b03199094169390931790925290516115df919061209f565b6000604051808303816000865af19150503d806000811461161c576040519150601f19603f3d011682016040523d82523d6000602084013e611621565b606091505b509150915081611644576040805160008082526020820190925260159190611658565b808060200190518101906116589190612285565b60039290920b9a90995090975095505050505050565b60008060005b6004548110156116ee57836004828154811061169257611692612089565b906000526020600020906003020160000154036116dc57600481815481106116bc576116bc612089565b60009182526020909120600260039092020101546001600160a01b031691505b806116e68161217a565b915050611674565b5092915050565b604080516001600160a01b038481166024830152831660448083019190915282518083039091018152606490910182526020810180516001600160e01b031663248a35ef60e11b17905290516000918291829161016791611756919061209f565b6000604051808303816000865af19150503d8060008114611793576040519150601f19603f3d011682016040523d82523d6000602084013e611798565b606091505b5091509150816117a95760156117bd565b808060200190518101906117bd91906120d2565b60030b95945050505050565b604080516001600160a01b03858116602483015284166044820152606480820184905282518083039091018152608490910182526020810180516001600160e01b03166307336aaf60e41b1790529051600091829182916101679161182e919061209f565b6000604051808303816000865af19150503d806000811461186b576040519150601f19603f3d011682016040523d82523d6000602084013e611870565b606091505b509150915081611881576015611895565b8080602001905181019061189591906120d2565b60030b9695505050505050565b6118aa611a9b565b60405180604001604052806118be866119f9565b81526020016118cd8585611a38565b9052949350505050565b600080828061010001516000015160070b600014801561190157506101008101516040015160070b155b15611917576101008101516276a7006040909101525b6000806101676001600160a01b03163463ea83f29360e01b886040516024016119409190612407565b60408051601f198184030181529181526020820180516001600160e01b03166001600160e01b031990941693909317909252905161197e919061209f565b60006040518083038185875af1925050503d80600081146119bb576040519150601f19603f3d011682016040523d82523d6000602084013e6119c0565b606091505b5091509150816119d357601560006119e7565b808060200190518101906119e79190612513565b60039190910b97909650945050505050565b600060016000836006811115611a1157611a1161254a565b6006811115611a2257611a2261254a565b8152602001908152602001600020549050919050565b611a40611aba565b6001836004811115611a5457611a5461254a565b03611a6d576001600160a01b03821660208201526104cc565b6004836004811115611a8157611a8161254a565b036104cc576001600160a01b038216608082015292915050565b604051806040016040528060008152602001611ab5611aba565b905290565b6040518060a0016040528060001515815260200160006001600160a01b03168152602001606081526020016060815260200160006001600160a01b031681525090565b6001600160a01b0381168114611b1257600080fd5b50565b634e487b7160e01b600052604160045260246000fd5b604051601f8201601f191681016001600160401b0381118282101715611b5357611b53611b15565b604052919050565b60006001600160401b03821115611b7457611b74611b15565b5060051b60200190565b60006001600160401b03821115611b9757611b97611b15565b50601f01601f191660200190565b600082601f830112611bb657600080fd5b8135611bc9611bc482611b7e565b611b2b565b818152846020838601011115611bde57600080fd5b816020850160208301376000918101602001919091529392505050565b600082601f830112611c0c57600080fd5b81356020611c1c611bc483611b5b565b82815260059290921b84018101918181019086841115611c3b57600080fd5b8286015b84811015611c7a5780356001600160401b03811115611c5e5760008081fd5b611c6c8986838b0101611ba5565b845250918301918301611c3f565b509695505050505050565b60008060408385031215611c9857600080fd5b8235611ca381611afd565b915060208301356001600160401b03811115611cbe57600080fd5b611cca85828601611bfb565b9150509250929050565b60008060008060808587031215611cea57600080fd5b8435611cf581611afd565b93506020850135611d0581611afd565b92506040850135611d1581611afd565b9396929550929360600135925050565b60008060408385031215611d3857600080fd5b50508035926020909101359150565b600080600060608486031215611d5c57600080fd5b833592506020840135915060408401356001600160401b03811115611d8057600080fd5b611d8c86828701611bfb565b9150509250925092565b60008060408385031215611da957600080fd5b8235611db481611afd565b946020939093013593505050565b60008060408385031215611dd557600080fd5b8235611de081611afd565b915060208301356001600160401b03811115611dfb57600080fd5b611cca85828601611ba5565b6020808252825182820181905260009190848201906040850190845b81811015611e6c57611e59838551805182526020808201516001600160a01b039081169184019190915260409182015116910152565b9284019260609290920191600101611e23565b50909695505050505050565b600060208284031215611e8a57600080fd5b5035919050565b606081016104cc8284805182526020808201516001600160a01b039081169184019190915260409182015116910152565b6020808252825182820181905260009190848201906040850190845b81811015611e6c57611f0e83855180518252602080820151908301526040908101516001600160a01b0316910152565b9284019260609290920191600101611ede565b600060208284031215611f3357600080fd5b8135610b6381611afd565b60005b83811015611f59578181015183820152602001611f41565b50506000910152565b60008151808452611f7a816020860160208601611f3e565b601f01601f19169290920160200192915050565b602081526000610b636020830184611f62565b81518152602080830151908201526040808301516001600160a01b031690820152606081016104cc565b8060070b8114611b1257600080fd5b600080600080600060a08688031215611ff257600080fd5b85356001600160401b038082111561200957600080fd5b61201589838a01611ba5565b9650602088013591508082111561202b57600080fd5b61203789838a01611ba5565b9550604088013591508082111561204d57600080fd5b5061205a88828901611ba5565b935050606086013561206b81611fcb565b9150608086013561207b81611fcb565b809150509295509295909350565b634e487b7160e01b600052603260045260246000fd5b600082516120b1818460208701611f3e565b9190910192915050565b8051600381900b81146120cd57600080fd5b919050565b6000602082840312156120e457600080fd5b610b63826120bb565b634e487b7160e01b600052601160045260246000fd5b808201808211156104cc576104cc6120ed565b6001600160a01b038316815260406020820181905260009061213a90830184611f62565b949350505050565b821515815260406020820152600061213a6040830184611f62565b60006020828403121561216f57600080fd5b8151610b6381611afd565b60006001820161218c5761218c6120ed565b5060010190565b6000602082840312156121a557600080fd5b81516001600160401b038111156121bb57600080fd5b8201601f810184136121cc57600080fd5b80516121da611bc482611b7e565b8181528560208385010111156121ef57600080fd5b612200826020830160208601611f3e565b95945050505050565b60006060820160018060a01b038616835260208560070b818501526060604085015281855180845260808601915060808160051b870101935082870160005b8281101561227657607f19888703018452612264868351611f62565b95509284019290840190600101612248565b50939998505050505050505050565b60008060006060848603121561229a57600080fd5b6122a3846120bb565b92506020808501516122b481611fcb565b60408601519093506001600160401b038111156122d057600080fd5b8501601f810187136122e157600080fd5b80516122ef611bc482611b5b565b81815260059190911b8201830190838101908983111561230e57600080fd5b928401925b8284101561233557835161232681611fcb565b82529284019290840190612313565b80955050505050509250925092565b600081518084526020808501808196508360051b8101915082860160005b858110156123fa57828403895281516040815186528682015191508087870152815115158187015286820151606060018060a01b03808316828a015283850151935060a09250608083818b01526123bc60e08b0186611f62565b928601518a8403603f1901858c01529294506123d88584611f62565b9501511660c09890980197909752505098850198935090840190600101612362565b5091979650505050505050565b60208152600082516101606020840152612425610180840182611f62565b90506020840151601f19808584030160408601526124438383611f62565b92506040860151915061246160608601836001600160a01b03169052565b606086015191508085840301608086015261247c8383611f62565b92506080860151915061249360a086018315159052565b60a086015191506124a960c086018360070b9052565b60c086015180151560e0870152915060e086015191506101008186850301818701526124d58484612344565b908701518051600790810b61012089015260208201516001600160a01b03166101408901526040820151900b610160880152909350915061125c9050565b6000806040838503121561252657600080fd5b61252f836120bb565b9150602083015161253f81611afd565b809150509250929050565b634e487b7160e01b600052602160045260246000fdfea26469706673582212208141ea3c6a089e23be2cd5ccbded5aa91d87c49f671e420fe66fa3a49bf0642964736f6c63430008130033",
    "sourcePath": "/home/drleo/Projects/hackathons/hedera/smart-contracts/contracts/Surveys.sol",
    "compiler": {
        "name": "solc",
        "version": "0.8.19+commit.7dd6d404"
    },
    "functionHashes": {
        "approveNft(address,uint256)": "899b7898",
        "createHash(bytes32,bytes32)": "2b82b9a9",
        "createNft(string,string,string,int64,int64)": "b6c907a6",
        "getAnswer(uint256)": "b5ab58dc",
        "getAnswers()": "c793fcf9",
        "getApprovedNft(address,uint256)": "8bf3a32e",
        "getAuthorSurveys()": "c2e298c1",
        "getBalance()": "12065fe0",
        "getSurvey(uint256)": "89670e15",
        "getSurveys()": "7dec8296",
        "getUserAnswers()": "9524d316",
        "mintNft(address,bytes[])": "0a284cb6",
        "nameOfNft(address)": "a6cdbdcd",
        "ownerOfNft(address,uint256)": "ce25e972",
        "redirectForToken(address,bytes)": "618dc65e",
        "setAnswer(bytes32,bytes32,bytes[])": "30f5ed82",
        "setSurvey(bytes32)": "ce5cb1c6",
        "symbolOfNft(address)": "c4b5fc27",
        "tokenURIOfNft(address,uint256)": "cb417cc2",
        "transferFrom(address,address,address,uint256)": "15dacbea",
        "transferFromNFT(address,address,address,uint256)": "9b23d3d9",
        "transferNft(address,uint256)": "60cc1121"
    },
    "gasEstimates": {
        "creation": {
            "codeDepositCost": "1924400",
            "executionCost": "infinite",
            "totalCost": "infinite"
        },
        "external": {
            "approveNft(address,uint256)": "infinite",
            "createHash(bytes32,bytes32)": "544",
            "createNft(string,string,string,int64,int64)": "infinite",
            "getAnswer(uint256)": "9220",
            "getAnswers()": "infinite",
            "getApprovedNft(address,uint256)": "infinite",
            "getAuthorSurveys()": "infinite",
            "getBalance()": "229",
            "getSurvey(uint256)": "9250",
            "getSurveys()": "infinite",
            "getUserAnswers()": "infinite",
            "mintNft(address,bytes[])": "infinite",
            "nameOfNft(address)": "infinite",
            "ownerOfNft(address,uint256)": "infinite",
            "redirectForToken(address,bytes)": "infinite",
            "setAnswer(bytes32,bytes32,bytes[])": "infinite",
            "setSurvey(bytes32)": "infinite",
            "symbolOfNft(address)": "infinite",
            "tokenURIOfNft(address,uint256)": "infinite",
            "transferFrom(address,address,address,uint256)": "infinite",
            "transferFromNFT(address,address,address,uint256)": "infinite",
            "transferNft(address,uint256)": "infinite"
        },
        "internal": {
            "getNftAddressForSurveyHash(bytes32)": "infinite",
            "surveyExist(bytes32)": "infinite"
        }
    }
}