{
    "contractName": "Surveys",
    "abi": [
        {
            "anonymous": false,
            "inputs": [
                {
                    "indexed": false,
                    "internalType": "bool",
                    "name": "send",
                    "type": "bool"
                },
                {
                    "indexed": false,
                    "internalType": "bytes",
                    "name": "data",
                    "type": "bytes"
                }
            ],
            "name": "Response",
            "type": "event"
        },
        {
            "inputs": [],
            "name": "_operatorAccountAddress",
            "outputs": [
                {
                    "internalType": "address",
                    "name": "",
                    "type": "address"
                }
            ],
            "stateMutability": "view",
            "type": "function"
        },
        {
            "inputs": [
                {
                    "internalType": "bytes32",
                    "name": "_a",
                    "type": "bytes32"
                },
                {
                    "internalType": "bytes32",
                    "name": "_b",
                    "type": "bytes32"
                }
            ],
            "name": "createHash",
            "outputs": [
                {
                    "internalType": "bytes32",
                    "name": "",
                    "type": "bytes32"
                }
            ],
            "stateMutability": "pure",
            "type": "function"
        },
        {
            "inputs": [
                {
                    "internalType": "uint256",
                    "name": "i",
                    "type": "uint256"
                }
            ],
            "name": "getAnswer",
            "outputs": [
                {
                    "components": [
                        {
                            "internalType": "bytes32",
                            "name": "surveyHash",
                            "type": "bytes32"
                        },
                        {
                            "internalType": "bytes32",
                            "name": "answerHash",
                            "type": "bytes32"
                        },
                        {
                            "internalType": "address",
                            "name": "userAddress",
                            "type": "address"
                        }
                    ],
                    "internalType": "struct Surveys.Answer",
                    "name": "",
                    "type": "tuple"
                }
            ],
            "stateMutability": "view",
            "type": "function"
        },
        {
            "inputs": [],
            "name": "getAnswers",
            "outputs": [
                {
                    "components": [
                        {
                            "internalType": "bytes32",
                            "name": "surveyHash",
                            "type": "bytes32"
                        },
                        {
                            "internalType": "bytes32",
                            "name": "answerHash",
                            "type": "bytes32"
                        },
                        {
                            "internalType": "address",
                            "name": "userAddress",
                            "type": "address"
                        }
                    ],
                    "internalType": "struct Surveys.Answer[]",
                    "name": "",
                    "type": "tuple[]"
                }
            ],
            "stateMutability": "view",
            "type": "function"
        },
        {
            "inputs": [],
            "name": "getAuthorSurveys",
            "outputs": [
                {
                    "components": [
                        {
                            "internalType": "bytes32",
                            "name": "surveyHash",
                            "type": "bytes32"
                        },
                        {
                            "internalType": "address",
                            "name": "author",
                            "type": "address"
                        }
                    ],
                    "internalType": "struct Surveys.Survey[]",
                    "name": "",
                    "type": "tuple[]"
                }
            ],
            "stateMutability": "view",
            "type": "function"
        },
        {
            "inputs": [],
            "name": "getBadgesOfAddress",
            "outputs": [
                {
                    "internalType": "contract Badge[]",
                    "name": "",
                    "type": "address[]"
                }
            ],
            "stateMutability": "view",
            "type": "function"
        },
        {
            "inputs": [
                {
                    "internalType": "uint256",
                    "name": "_i",
                    "type": "uint256"
                }
            ],
            "name": "getSurvey",
            "outputs": [
                {
                    "components": [
                        {
                            "internalType": "bytes32",
                            "name": "surveyHash",
                            "type": "bytes32"
                        },
                        {
                            "internalType": "address",
                            "name": "author",
                            "type": "address"
                        }
                    ],
                    "internalType": "struct Surveys.Survey",
                    "name": "",
                    "type": "tuple"
                }
            ],
            "stateMutability": "view",
            "type": "function"
        },
        {
            "inputs": [],
            "name": "getSurveys",
            "outputs": [
                {
                    "components": [
                        {
                            "internalType": "bytes32",
                            "name": "surveyHash",
                            "type": "bytes32"
                        },
                        {
                            "internalType": "address",
                            "name": "author",
                            "type": "address"
                        }
                    ],
                    "internalType": "struct Surveys.Survey[]",
                    "name": "",
                    "type": "tuple[]"
                }
            ],
            "stateMutability": "view",
            "type": "function"
        },
        {
            "inputs": [],
            "name": "getUserAnswers",
            "outputs": [
                {
                    "components": [
                        {
                            "internalType": "bytes32",
                            "name": "surveyHash",
                            "type": "bytes32"
                        },
                        {
                            "internalType": "bytes32",
                            "name": "answerHash",
                            "type": "bytes32"
                        },
                        {
                            "internalType": "address",
                            "name": "userAddress",
                            "type": "address"
                        }
                    ],
                    "internalType": "struct Surveys.Answer[]",
                    "name": "",
                    "type": "tuple[]"
                }
            ],
            "stateMutability": "view",
            "type": "function"
        },
        {
            "inputs": [
                {
                    "internalType": "bytes32",
                    "name": "_surveyHash",
                    "type": "bytes32"
                },
                {
                    "internalType": "bytes32",
                    "name": "_answerHash",
                    "type": "bytes32"
                }
            ],
            "name": "setAnswer",
            "outputs": [
                {
                    "internalType": "bool",
                    "name": "",
                    "type": "bool"
                }
            ],
            "stateMutability": "payable",
            "type": "function"
        },
        {
            "inputs": [
                {
                    "internalType": "bytes32",
                    "name": "_surveyHash",
                    "type": "bytes32"
                }
            ],
            "name": "setSurvey",
            "outputs": [
                {
                    "internalType": "bool",
                    "name": "",
                    "type": "bool"
                }
            ],
            "stateMutability": "payable",
            "type": "function"
        }
    ],
    "bytecode": "608060405234801561001057600080fd5b50612982806100206000396000f3fe608060405260043610620000a95760003560e01c8063a6adf3bd116200006c578063a6adf3bd1462000199578063b5ab58dc14620001c0578063c2e298c114620001f4578063c793fcf9146200020c578063ce5cb1c61462000224578063f8661e0f146200024c57600080fd5b80632b82b9a914620000ae5780637dec829614620000e65780638203d559146200010d57806389670e15146200013e5780639524d3161462000172575b600080fd5b348015620000bb57600080fd5b50620000d3620000cd36600462000eb1565b62000263565b6040519081526020015b60405180910390f35b348015620000f357600080fd5b50620000fe62000292565b604051620000dd919062000ed4565b3480156200011a57600080fd5b50620001256103e881565b6040516001600160a01b039091168152602001620000dd565b3480156200014b57600080fd5b50620001636200015d36600462000f37565b62000309565b604051620000dd919062000f51565b3480156200017f57600080fd5b506200018a6200036c565b604051620000dd919062000f72565b348015620001a657600080fd5b50620001b1620004db565b604051620000dd919062000fe0565b348015620001cd57600080fd5b50620001e5620001df36600462000f37565b62000701565b604051620000dd919062001023565b3480156200020157600080fd5b50620000fe6200077d565b3480156200021957600080fd5b506200018a6200094b565b6200023b6200023536600462000f37565b62000a64565b6040519015158152602001620000dd565b6200023b6200025d36600462000eb1565b62000be5565b604080516020808201859052818301849052825180830384018152606090920190925280519101205b92915050565b60606000805480602002602001604051908101604052809291908181526020016000905b82821015620003005760008481526020908190206040805180820190915260028502909101805482526001908101546001600160a01b0316828401529083529092019101620002b6565b50505050905090565b6040805180820190915260008082526020820152600082815481106200033357620003336200104e565b60009182526020918290206040805180820190915260029092020180548252600101546001600160a01b03169181019190915292915050565b60015460609060009067ffffffffffffffff81111562000390576200039062001064565b604051908082528060200260200182016040528015620003dd57816020015b6040805160608101825260008082526020808301829052928201528252600019909201910181620003af5790505b5090506000805b600154811015620004d357336001600160a01b0316600182815481106200040f576200040f6200104e565b60009182526020909120600260039092020101546001600160a01b031603620004be57600181815481106200044857620004486200104e565b6000918252602091829020604080516060810182526003909302909101805483526001810154938301939093526002909201546001600160a01b0316918101919091528351849084908110620004a257620004a26200104e565b60200260200101819052508180620004ba906200107a565b9250505b80620004ca816200107a565b915050620003e4565b509092915050565b3360009081526002602090815260408083208054825181850281018501909352808352606094938301828280156200053d57602002820191906000526020600020905b81546001600160a01b031681526001909101906020018083116200051e575b505050505090506000815167ffffffffffffffff81111562000563576200056362001064565b6040519080825280602002602001820160405280156200058d578160200160208202803683370190505b5090506000805b8351811015620006f857336001600160a01b0316848281518110620005bd57620005bd6200104e565b60200260200101516001600160a01b0316636352211e60036000336001600160a01b03166001600160a01b0316815260200190815260200160002084815481106200060c576200060c6200104e565b90600052602060002001546040518263ffffffff1660e01b81526004016200063691815260200190565b602060405180830381865afa15801562000654573d6000803e3d6000fd5b505050506040513d601f19601f820116820180604052508101906200067a9190620010a2565b6001600160a01b031603620006e3578381815181106200069e576200069e6200104e565b6020026020010151838381518110620006bb57620006bb6200104e565b6001600160a01b039092166020928302919091019091015281620006df816200107a565b9250505b80620006ef816200107a565b91505062000594565b50909392505050565b6040805160608101825260008082526020820181905291810191909152600182815481106200073457620007346200104e565b6000918252602091829020604080516060810182526003909302909101805483526001810154938301939093526002909201546001600160a01b03169181019190915292915050565b606060008060005b600054811015620007f857336001600160a01b031660008281548110620007b057620007b06200104e565b60009182526020909120600160029092020101546001600160a01b031603620007e35781620007df816200107a565b9250505b80620007ef816200107a565b91505062000785565b5060008167ffffffffffffffff81111562000817576200081762001064565b6040519080825280602002602001820160405280156200085e57816020015b6040805180820190915260008082526020820152815260200190600190039081620008365790505b50905060005b6000548110156200094357336001600160a01b0316600082815481106200088f576200088f6200104e565b60009182526020909120600160029092020101546001600160a01b0316036200092e5760008181548110620008c857620008c86200104e565b60009182526020918290206040805180820190915260029092020180548252600101546001600160a01b03169181019190915282518390869081106200091257620009126200104e565b602002602001018190525083806200092a906200107a565b9450505b806200093a816200107a565b91505062000864565b509392505050565b60015460609060009067ffffffffffffffff8111156200096f576200096f62001064565b604051908082528060200260200182016040528015620009bc57816020015b60408051606081018252600080825260208083018290529282015282526000199092019101816200098e5790505b50905060005b60015481101562000a5e5760018181548110620009e357620009e36200104e565b6000918252602091829020604080516060810182526003909302909101805483526001810154938301939093526002909201546001600160a01b031691810191909152825183908390811062000a3d5762000a3d6200104e565b6020026020010181905250808062000a55906200107a565b915050620009c2565b50919050565b60008060006103e86001600160a01b03163460405160006040518083038185875af1925050503d806000811462000ab8576040519150601f19603f3d011682016040523d82523d6000602084013e62000abd565b606091505b50915091508162000b115760405162461bcd60e51b81526020600482015260196024820152784661696c656420746f2070617920746865207375727665792160381b60448201526064015b60405180910390fd5b7f13848c3e38f8886f3f5d2ad9dff80d8092c2bbb8efd5b887a99c2c6cfc09ac2a828260405162000b44929190620010d4565b60405180910390a1505060408051808201909152918252503360208201908152600080546001808201835591805292517f290decd9548b62a8d60345a988386fc84ba6bc95484008f6362f93160ef3e56360029094029384015590517f290decd9548b62a8d60345a988386fc84ba6bc95484008f6362f93160ef3e56490920180546001600160a01b0319166001600160a01b039093169290921790915590565b60008060006103e86001600160a01b03163460405160006040518083038185875af1925050503d806000811462000c39576040519150601f19603f3d011682016040523d82523d6000602084013e62000c3e565b606091505b50915091508162000c8e5760405162461bcd60e51b81526020600482015260196024820152784661696c656420746f2070617920746865207375727665792160381b604482015260640162000b08565b604080516060810182528681526020810186815233828401908152600180548082018255600091825293517fb10e2d527612073b26eecdfd717e6a320cf44b4afac2b0732d9fcbe2b7fa0cf660039095029485015591517fb10e2d527612073b26eecdfd717e6a320cf44b4afac2b0732d9fcbe2b7fa0cf7840155517fb10e2d527612073b26eecdfd717e6a320cf44b4afac2b0732d9fcbe2b7fa0cf890920180546001600160a01b0319166001600160a01b0390931692909217909155905162000d599062000ea3565b604051809103906000f08015801562000d76573d6000803e3d6000fd5b509050806001600160a01b0316639d246cce3362000d95898962000263565b60405160e084901b6001600160e01b03191681526001600160a01b0390921660048301526024820152604401600060405180830381600087803b15801562000ddc57600080fd5b505af115801562000df1573d6000803e3d6000fd5b505033600081815260026020908152604080832080546001810182559084528284200180546001600160a01b0319166001600160a01b0389161790559282526003905220915062000e459050878762000263565b815460018101835560009283526020909220909101556040517f13848c3e38f8886f3f5d2ad9dff80d8092c2bbb8efd5b887a99c2c6cfc09ac2a9062000e8f9085908590620010d4565b60405180910390a150600195945050505050565b61181e806200112f83390190565b6000806040838503121562000ec557600080fd5b50508035926020909101359150565b602080825282518282018190526000919060409081850190868401855b8281101562000f2a5762000f19848351805182526020908101516001600160a01b0316910152565b928401929085019060010162000ef1565b5091979650505050505050565b60006020828403121562000f4a57600080fd5b5035919050565b815181526020808301516001600160a01b031690820152604081016200028c565b6020808252825182820181905260009190848201906040850190845b8181101562000fd45762000fc083855180518252602080820151908301526040908101516001600160a01b0316910152565b928401926060929092019160010162000f8e565b50909695505050505050565b6020808252825182820181905260009190848201906040850190845b8181101562000fd45783516001600160a01b03168352928401929184019160010162000ffc565b81518152602080830151908201526040808301516001600160a01b031690820152606081016200028c565b634e487b7160e01b600052603260045260246000fd5b634e487b7160e01b600052604160045260246000fd5b6000600182016200109b57634e487b7160e01b600052601160045260246000fd5b5060010190565b600060208284031215620010b557600080fd5b81516001600160a01b0381168114620010cd57600080fd5b9392505050565b821515815260006020604081840152835180604085015260005b818110156200110c57858101830151858201606001528201620010ee565b506000606082860101526060601f19601f83011685010192505050939250505056fe60806040523480156200001157600080fd5b506040518060400160405280600a8152602001692130b233b2aa37b5b2b760b11b8152506040518060400160405280600381526020016242444760e81b81525081600090816200006291906200018f565b5060016200007182826200018f565b5050506200008e620000886200009460201b60201c565b62000098565b6200025b565b3390565b600680546001600160a01b038381166001600160a01b0319831681179093556040519116919082907f8be0079c531659141344cd1fd0a4f28419497f9722a3daafe3b4186f6b6457e090600090a35050565b634e487b7160e01b600052604160045260246000fd5b600181811c908216806200011557607f821691505b6020821081036200013657634e487b7160e01b600052602260045260246000fd5b50919050565b601f8211156200018a57600081815260208120601f850160051c81016020861015620001655750805b601f850160051c820191505b81811015620001865782815560010162000171565b5050505b505050565b81516001600160401b03811115620001ab57620001ab620000ea565b620001c381620001bc845462000100565b846200013c565b602080601f831160018114620001fb5760008415620001e25750858301515b600019600386901b1c1916600185901b17855562000186565b600085815260208120601f198616915b828110156200022c578886015182559484019460019091019084016200020b565b50858210156200024b5787850151600019600388901b60f8161c191681555b5050505050600190811b01905550565b6115b3806200026b6000396000f3fe608060405234801561001057600080fd5b50600436106101165760003560e01c8063715018a6116100a2578063a22cb46511610071578063a22cb46514610239578063b88d4fde1461024c578063c87b56dd1461025f578063e985e9c514610272578063f2fde38b146102ae57600080fd5b8063715018a6146102055780638da5cb5b1461020d57806395d89b411461021e5780639d246cce1461022657600080fd5b806323b872dd116100e957806323b872dd1461019857806342842e0e146101ab57806342966c68146101be5780636352211e146101d157806370a08231146101e457600080fd5b806301ffc9a71461011b57806306fdde0314610143578063081812fc14610158578063095ea7b314610183575b600080fd5b61012e61012936600461113f565b6102c1565b60405190151581526020015b60405180910390f35b61014b610313565b60405161013a91906111ac565b61016b6101663660046111bf565b6103a5565b6040516001600160a01b03909116815260200161013a565b6101966101913660046111f4565b6103cc565b005b6101966101a636600461121e565b6104e6565b6101966101b936600461121e565b610517565b6101966101cc3660046111bf565b610532565b61016b6101df3660046111bf565b61059e565b6101f76101f236600461125a565b6105fe565b60405190815260200161013a565b610196610684565b6006546001600160a01b031661016b565b61014b610698565b6101966102343660046111f4565b6106a7565b610196610247366004611275565b6106bd565b61019661025a3660046112c7565b6106c8565b61014b61026d3660046111bf565b610700565b61012e6102803660046113a3565b6001600160a01b03918216600090815260056020908152604080832093909416825291909152205460ff1690565b6101966102bc36600461125a565b610774565b60006001600160e01b031982166380ac58cd60e01b14806102f257506001600160e01b03198216635b5e139f60e01b145b8061030d57506301ffc9a760e01b6001600160e01b03198316145b92915050565b606060008054610322906113d6565b80601f016020809104026020016040519081016040528092919081815260200182805461034e906113d6565b801561039b5780601f106103705761010080835404028352916020019161039b565b820191906000526020600020905b81548152906001019060200180831161037e57829003601f168201915b5050505050905090565b60006103b0826107ea565b506000908152600460205260409020546001600160a01b031690565b60006103d78261059e565b9050806001600160a01b0316836001600160a01b0316036104495760405162461bcd60e51b815260206004820152602160248201527f4552433732313a20617070726f76616c20746f2063757272656e74206f776e656044820152603960f91b60648201526084015b60405180910390fd5b336001600160a01b038216148061046557506104658133610280565b6104d75760405162461bcd60e51b815260206004820152603d60248201527f4552433732313a20617070726f76652063616c6c6572206973206e6f7420746f60448201527f6b656e206f776e6572206f7220617070726f76656420666f7220616c6c0000006064820152608401610440565b6104e18383610849565b505050565b6104f033826108b7565b61050c5760405162461bcd60e51b815260040161044090611410565b6104e1838383610936565b6104e1838383604051806020016040528060008152506106c8565b3361053c8261059e565b6001600160a01b0316146105925760405162461bcd60e51b815260206004820152601f60248201527f4552433732313a2063616c6c6572206973206e6f7420746865206f776e6572006044820152606401610440565b61059b81610a9a565b50565b6000818152600260205260408120546001600160a01b03168061030d5760405162461bcd60e51b8152602060048201526018602482015277115490cdcc8c4e881a5b9d985b1a59081d1bdad95b88125160421b6044820152606401610440565b60006001600160a01b0382166106685760405162461bcd60e51b815260206004820152602960248201527f4552433732313a2061646472657373207a65726f206973206e6f7420612076616044820152683634b21037bbb732b960b91b6064820152608401610440565b506001600160a01b031660009081526003602052604090205490565b61068c610aa3565b6106966000610afd565b565b606060018054610322906113d6565b6106af610aa3565b6106b98282610b4f565b5050565b6106b9338383610b69565b6106d233836108b7565b6106ee5760405162461bcd60e51b815260040161044090611410565b6106fa84848484610c37565b50505050565b606061070b826107ea565b600061072260408051602081019091526000815290565b90506000815111610742576040518060200160405280600081525061076d565b8061074c84610c6a565b60405160200161075d92919061145d565b6040516020818303038152906040525b9392505050565b61077c610aa3565b6001600160a01b0381166107e15760405162461bcd60e51b815260206004820152602660248201527f4f776e61626c653a206e6577206f776e657220697320746865207a65726f206160448201526564647265737360d01b6064820152608401610440565b61059b81610afd565b6000818152600260205260409020546001600160a01b031661059b5760405162461bcd60e51b8152602060048201526018602482015277115490cdcc8c4e881a5b9d985b1a59081d1bdad95b88125160421b6044820152606401610440565b600081815260046020526040902080546001600160a01b0319166001600160a01b038416908117909155819061087e8261059e565b6001600160a01b03167f8c5be1e5ebec7d5bd14f71427d1e84f3dd0314c0f7b2291e5b200ac8c7c3b92560405160405180910390a45050565b6000806108c38361059e565b9050806001600160a01b0316846001600160a01b0316148061090a57506001600160a01b0380821660009081526005602090815260408083209388168352929052205460ff165b8061092e5750836001600160a01b0316610923846103a5565b6001600160a01b0316145b949350505050565b826001600160a01b03166109498261059e565b6001600160a01b03161461096f5760405162461bcd60e51b81526004016104409061148c565b6001600160a01b0382166109d15760405162461bcd60e51b8152602060048201526024808201527f4552433732313a207472616e7366657220746f20746865207a65726f206164646044820152637265737360e01b6064820152608401610440565b826001600160a01b03166109e48261059e565b6001600160a01b031614610a0a5760405162461bcd60e51b81526004016104409061148c565b600081815260046020908152604080832080546001600160a01b03199081169091556001600160a01b0387811680865260038552838620805460001901905590871680865283862080546001019055868652600290945282852080549092168417909155905184937fddf252ad1be2c89b69c2b068fc378daa952ba7f163c4a11628f55a4df523b3ef91a4505050565b61059b81610cfd565b6006546001600160a01b031633146106965760405162461bcd60e51b815260206004820181905260248201527f4f776e61626c653a2063616c6c6572206973206e6f7420746865206f776e65726044820152606401610440565b600680546001600160a01b038381166001600160a01b0319831681179093556040519116919082907f8be0079c531659141344cd1fd0a4f28419497f9722a3daafe3b4186f6b6457e090600090a35050565b6106b9828260405180602001604052806000815250610d92565b816001600160a01b0316836001600160a01b031603610bca5760405162461bcd60e51b815260206004820152601960248201527f4552433732313a20617070726f766520746f2063616c6c6572000000000000006044820152606401610440565b6001600160a01b03838116600081815260056020908152604080832094871680845294825291829020805460ff191686151590811790915591519182527f17307eab39ab6107e8899845ad3d59bd9653f200f220920489ca2b5937696c31910160405180910390a3505050565b610c42848484610936565b610c4e84848484610dc5565b6106fa5760405162461bcd60e51b8152600401610440906114d1565b60606000610c7783610ec6565b600101905060008167ffffffffffffffff811115610c9757610c976112b1565b6040519080825280601f01601f191660200182016040528015610cc1576020820181803683370190505b5090508181016020015b600019016f181899199a1a9b1b9c1cb0b131b232b360811b600a86061a8153600a8504945084610ccb57509392505050565b6000610d088261059e565b9050610d138261059e565b600083815260046020908152604080832080546001600160a01b03199081169091556001600160a01b0385168085526003845282852080546000190190558785526002909352818420805490911690555192935084927fddf252ad1be2c89b69c2b068fc378daa952ba7f163c4a11628f55a4df523b3ef908390a45050565b610d9c8383610f9e565b610da96000848484610dc5565b6104e15760405162461bcd60e51b8152600401610440906114d1565b60006001600160a01b0384163b15610ebb57604051630a85bd0160e11b81526001600160a01b0385169063150b7a0290610e09903390899088908890600401611523565b6020604051808303816000875af1925050508015610e44575060408051601f3d908101601f19168201909252610e4191810190611560565b60015b610ea1573d808015610e72576040519150601f19603f3d011682016040523d82523d6000602084013e610e77565b606091505b508051600003610e995760405162461bcd60e51b8152600401610440906114d1565b805181602001fd5b6001600160e01b031916630a85bd0160e11b14905061092e565b506001949350505050565b60008072184f03e93ff9f4daa797ed6e38ed64bf6a1f0160401b8310610f055772184f03e93ff9f4daa797ed6e38ed64bf6a1f0160401b830492506040015b6d04ee2d6d415b85acef81000000008310610f31576d04ee2d6d415b85acef8100000000830492506020015b662386f26fc100008310610f4f57662386f26fc10000830492506010015b6305f5e1008310610f67576305f5e100830492506008015b6127108310610f7b57612710830492506004015b60648310610f8d576064830492506002015b600a831061030d5760010192915050565b6001600160a01b038216610ff45760405162461bcd60e51b815260206004820181905260248201527f4552433732313a206d696e7420746f20746865207a65726f20616464726573736044820152606401610440565b6000818152600260205260409020546001600160a01b0316156110595760405162461bcd60e51b815260206004820152601c60248201527f4552433732313a20746f6b656e20616c7265616479206d696e746564000000006044820152606401610440565b6000818152600260205260409020546001600160a01b0316156110be5760405162461bcd60e51b815260206004820152601c60248201527f4552433732313a20746f6b656e20616c7265616479206d696e746564000000006044820152606401610440565b6001600160a01b038216600081815260036020908152604080832080546001019055848352600290915280822080546001600160a01b0319168417905551839291907fddf252ad1be2c89b69c2b068fc378daa952ba7f163c4a11628f55a4df523b3ef908290a45050565b6001600160e01b03198116811461059b57600080fd5b60006020828403121561115157600080fd5b813561076d81611129565b60005b8381101561117757818101518382015260200161115f565b50506000910152565b6000815180845261119881602086016020860161115c565b601f01601f19169290920160200192915050565b60208152600061076d6020830184611180565b6000602082840312156111d157600080fd5b5035919050565b80356001600160a01b03811681146111ef57600080fd5b919050565b6000806040838503121561120757600080fd5b611210836111d8565b946020939093013593505050565b60008060006060848603121561123357600080fd5b61123c846111d8565b925061124a602085016111d8565b9150604084013590509250925092565b60006020828403121561126c57600080fd5b61076d826111d8565b6000806040838503121561128857600080fd5b611291836111d8565b9150602083013580151581146112a657600080fd5b809150509250929050565b634e487b7160e01b600052604160045260246000fd5b600080600080608085870312156112dd57600080fd5b6112e6856111d8565b93506112f4602086016111d8565b925060408501359150606085013567ffffffffffffffff8082111561131857600080fd5b818701915087601f83011261132c57600080fd5b81358181111561133e5761133e6112b1565b604051601f8201601f19908116603f01168101908382118183101715611366576113666112b1565b816040528281528a602084870101111561137f57600080fd5b82602086016020830137600060208483010152809550505050505092959194509250565b600080604083850312156113b657600080fd5b6113bf836111d8565b91506113cd602084016111d8565b90509250929050565b600181811c908216806113ea57607f821691505b60208210810361140a57634e487b7160e01b600052602260045260246000fd5b50919050565b6020808252602d908201527f4552433732313a2063616c6c6572206973206e6f7420746f6b656e206f776e6560408201526c1c881bdc88185c1c1c9bdd9959609a1b606082015260800190565b6000835161146f81846020880161115c565b83519083019061148381836020880161115c565b01949350505050565b60208082526025908201527f4552433732313a207472616e736665722066726f6d20696e636f72726563742060408201526437bbb732b960d91b606082015260800190565b60208082526032908201527f4552433732313a207472616e7366657220746f206e6f6e20455243373231526560408201527131b2b4bb32b91034b6b83632b6b2b73a32b960711b606082015260800190565b6001600160a01b038581168252841660208201526040810183905260806060820181905260009061155690830184611180565b9695505050505050565b60006020828403121561157257600080fd5b815161076d8161112956fea2646970667358221220658a8f62f8d5e1242625dba708642c1734c1e0645607fe83be24abc790cb86e364736f6c63430008130033a264697066735822122096fb8a780cd761741e192d2232cb5c9f466b15790a06c0a654f375c258c95aac64736f6c63430008130033",
    "sourcePath": "/home/drleo/Projects/hackathons/hedera/smart-contracts/contracts/Surveys.sol",
    "compiler": {
        "name": "solc",
        "version": "0.8.19+commit.7dd6d404"
    },
    "functionHashes": {
        "_operatorAccountAddress()": "8203d559",
        "createHash(bytes32,bytes32)": "2b82b9a9",
        "getAnswer(uint256)": "b5ab58dc",
        "getAnswers()": "c793fcf9",
        "getAuthorSurveys()": "c2e298c1",
        "getBadgesOfAddress()": "a6adf3bd",
        "getSurvey(uint256)": "89670e15",
        "getSurveys()": "7dec8296",
        "getUserAnswers()": "9524d316",
        "setAnswer(bytes32,bytes32)": "f8661e0f",
        "setSurvey(bytes32)": "ce5cb1c6"
    },
    "gasEstimates": {
        "creation": {
            "codeDepositCost": "2125200",
            "executionCost": "2265",
            "totalCost": "2127465"
        },
        "external": {
            "_operatorAccountAddress()": "261",
            "createHash(bytes32,bytes32)": "461",
            "getAnswer(uint256)": "9153",
            "getAnswers()": "infinite",
            "getAuthorSurveys()": "infinite",
            "getBadgesOfAddress()": "infinite",
            "getSurvey(uint256)": "6999",
            "getSurveys()": "infinite",
            "getUserAnswers()": "infinite",
            "setAnswer(bytes32,bytes32)": "infinite",
            "setSurvey(bytes32)": "infinite"
        },
        "internal": {
            "surveyExist(bytes32)": "infinite"
        }
    }
}